:020000040000FA
:04000000C8EF00F055
:100008001E829EAABFD09E9AABB402D0ABA202D0E9
:10001800AB98AB88B0EC0BF04C0AD8A404D03B0EDC
:100028001A6E030E1B6EB0EC0BF0440AD8A404D071
:10003800010E1A6E030E1B6EB0EC0BF0540AD8A416
:1000480004D0140E1A6E030E1B6EB0EC0BF0410AAE
:10005800D8A404D0580E1A6E030E1B6EB0EC0BF029
:10006800450AD8A404D01D0E1A6E030E1B6EB0EC00
:100078000BF05A0AD8A404D0340E1A6E030E1B6E65
:10008800B0EC0BF0520AD8A404D0410E1A6E030E3D
:100098001B6EB0EC0BF0580AD8A404D0620E1A6E8E
:1000A800030E1B6EB0EC0BF0590AD8A404D0650EF1
:1000B8001A6E030E1B6EB0EC0BF0640AD8A404D0C1
:1000C800250E1A6E030E1B6EB0EC0BF0650AD8A451
:1000D80004D00B0E1A6E030E1B6EB0EC0BF0660A02
:1000E800D8A404D02D0E1A6E030E1B6EB0EC0BF0C4
:1000F800740AD8A404D05D0E1A6E030E1B6EB0EC01
:100108000BF06D0AD8A404D04D0E1A6E030E1B6EA8
:10011800B0EC0BF02B0AD8A40ED03C0E1826000E1B
:100128001922580E185C020E1958D8A004D0000ED7
:10013800196E3C0E186EB0EC0BF02D0AD8A40ED038
:100148003C0E185E000E195A195008E13C0E185C56
:10015800D8B004D0010E196E2C0E186EB0EC0BF04E
:10016800470AD8A404D0000E176E010E166EB0EC24
:100178000BF0500AD8A406D060EC0BF0470E1A6EAC
:0C018800030E1B6E1E92110071EF0BF0B5
:100300000064697374616E6369610065737175651A
:1003100072646F00746F7175696E686F00657374D5
:1003200072656C61006469726569746F00667265FC
:100330006E7465007A69677A6167006C696E6861DE
:10034000007465737465007061726172006D6F7422
:100350006F720061717569006172636F0074726120
:0B036000730067640067650020000068
:10036C0080EC0BF08DEC0BF022EC0BF0A9EC0BF00D
:10037C00A1EC0BF0420E996EF28EF28C839083827C
:10038C0016501710D8B4FCD7530E026E030E036E22
:10039C00F8EC0AF03B0E1A180FE1030E1B18D8A448
:1003AC000BD0ACEC09F0470E1A18FBE1030E1B182E
:1003BC00D8A4F7D74FEC0BF0010E1A180FE1030E6F
:1003CC001B18D8A40BD0B6EC08F0470E1A18FBE19A
:1003DC00030E1B18D8A4F7D74FEC0BF0580E1A18B5
:1003EC0003E1030E1B18D8A43ED1D58E780ED66E21
:1003FC00F80ED76E000E106E32D180B880A418D0D3
:10040C0082B080A615D080A013D0660E086E000EA8
:10041C000A6E4B0E096E640EABEC0AF0660E086E9B
:10042C00000E0A6E5A0E096E650EABEC0AF005D181
:10043C0080A880A418D082B080A615D080A013D03C
:10044C00740E086E000E0A6E3C0E096E650EABEC57
:10045C000AF0660E086E000E0A6E3C0E096E640EF3
:10046C00ABEC0AF0EAD080B880A418D082A080A6A9
:10047C0015D080A013D0660E086E000E0A6E3C0ECE
:10048C00096E650EABEC0AF0660E086E000E0A6E75
:10049C003C0E096E640EABEC0AF0CFD080B880B481
:1004AC0018D082B080B615D080A013D0660E086E1E
:1004BC00000E0A6E3C0E096E650EABEC0AF0660E71
:1004CC00086E000E0A6E3C0E096E640EABEC0AF060
:1004DC00B4D080B880A418D082B080B615D080A0DB
:1004EC0013D0660E086E000E0A6E3C0E096E650E79
:1004FC00ABEC0AF0740E086E000E0A6E3C0E096E20
:10050C00640EABEC0AF099D080B880A418D082A00D
:10051C0080B615D080A013D0660E086E000E0A6E41
:10052C003C0E096E650EABEC0AF0740E086E000EF4
:10053C000A6E3C0E096E640EABEC0AF07ED080B8ED
:10054C0080B418D082B080A615D080A013D0740EC1
:10055C00086E000E0A6E3C0E096E650EABEC0AF0CE
:10056C00660E086E000E0A6E3C0E096E640EABEC45
:10057C000AF063D080B880B418D082A080A615D0C1
:10058C0080A013D0740E086E000E0A6E3C0E096E1D
:10059C00650EABEC0AF0660E086E000E0A6E3C0E91
:1005AC00096E640EABEC0AF048D080B880A418D069
:1005BC0082B080A615D080B013D0660E086E000EE7
:1005CC000A6E3C0E096E650EABEC0AF0740E086EEA
:1005DC00000E0A6E3C0E096E640EABEC0AF02DD0C8
:1005EC0080B880B418D082A080B615D080A013D06B
:1005FC00660E086E000E0A6E3C0E096E640EABECB5
:10060C000AF0660E086E000E0A6E3C0E096E650E40
:10061C00ABEC0AF012D0660E086E000E0A6E3C0EA1
:10062C00096E640EABEC0AF0660E086E000E0A6ED4
:10063C005A0E096E650EABEC0AF0F2A406D0F294D9
:10064C00780ED66EF80ED76E102A470E1A1807E1E0
:10065C00030E1B18D8A403D04FEC0BF003D0630E81
:10066C001064CBD6D59E140E1A1803E1030E1B187A
:10067C00D8A444D1CD80DE0ECE6E0B0ECF6E000E04
:10068C00146E000E136E000E126E34D19EA007D0A5
:10069C009E90DE0ECE6E0B0ECF6E124A132A13BE38
:1006AC0006D0135003E10A0E125CD8B010D180A80A
:1006BC0080A418D082B080A615D080A013D0740E60
:1006CC00086E000E0A6E3C0E096E650EABEC0AF05D
:1006DC00660E086E000E0A6E3C0E096E640EABECD4
:1006EC000AF0FED080B880A418D082A080A615D0C5
:1006FC0080A013D0660E086E000E0A6E3C0E096EBA
:10070C00650EABEC0AF0660E086E000E0A6E3C0E1F
:10071C00096E640EABEC0AF0E3D080B880B418D04C
:10072C0082B080B615D080A013D0660E086E000E75
:10073C000A6E3C0E096E650EABEC0AF0660E086E86
:10074C00000E0A6E3C0E096E640EABEC0AF0C8D0BB
:10075C0080B880A418D082B080B615D080A013D0F9
:10076C00660E086E000E0A6E3C0E096E650EABEC42
:10077C000AF0740E086E000E0A6E3C0E096E640EC2
:10078C00ABEC0AF0ADD080B880A418D082A080B6B3
:10079C0015D080A013D0660E086E000E0A6E3C0EAB
:1007AC00096E650EABEC0AF0740E086E000E0A6E44
:1007BC003C0E096E640EABEC0AF092D080B880B49B
:1007CC0018D082B080A615D080A013D0740E086EFD
:1007DC00000E0A6E3C0E096E650EABEC0AF0660E4E
:1007EC00086E000E0A6E3C0E096E640EABEC0AF03D
:1007FC0077D080B880B418D082A080A615D080A005
:10080C0013D0740E086E000E0A6E3C0E096E650E47
:10081C00ABEC0AF0660E086E000E0A6E3C0E096E0A
:10082C00640EABEC0AF05CD080B880A418D082B017
:10083C0080A615D080B013D0660E086E000E0A6E1E
:10084C003C0E096E650EABEC0AF0740E086E000ED1
:10085C000A6E3C0E096E640EABEC0AF041D080B807
:10086C0080B418D082A080B615D080A013D0660EAC
:10087C00086E000E0A6E3C0E096E640EABEC0AF0AC
:10088C00660E086E000E0A6E3C0E096E650EABEC21
:10089C000AF026D013BE05D0135016E11204D8B0BE
:1008AC0013D0660E086E000E0A6E3C0E096E640EB6
:1008BC00ABEC0AF0660E086E000E0A6E3C0E096E6A
:1008CC00650EABEC0AF00CD04FEC0BF009D0000E1F
:1008DC00136E000E126E142A1450300F97EC0BF09E
:1008EC00470E1A1807E1030E1B18D8A403D04FECBF
:1008FC000BF003D0090E1464C9D6CD901D0E1A1836
:10090C000FE1030E1B18D8A40BD038EC0AF0470EDD
:10091C001A18FBE1030E1B18D8A4F7D74FEC0BF0F9
:10092C00340E1A1803E1030E1B18D8A45AD2000E69
:10093C00116E000E156E660E086E000E0A6E3C0EE1
:10094C00096E640EABEC0AF0740E086E000E0A6EA3
:10095C003C0E096E650EABEC0AF0020E0F6EC70E64
:10096C000E6E880EE82EFED70E2EFCD70F2EFAD761
:10097C0000F000F0CD80DE0ECE6E0B0ECF6E29D2C5
:10098C009EA006D09E90DE0ECE6E0B0ECF6E152A5C
:10099C0080A880A418D082B080A615D080A013D0D7
:1009AC00740E086E000E0A6E3C0E096E650EABECF2
:1009BC000AF0660E086E000E0A6E3C0E096E640E8E
:1009CC00ABEC0AF0EAD080B880A418D082A080A644
:1009DC0015D080A013D0660E086E000E0A6E3C0E69
:1009EC00096E650EABEC0AF0660E086E000E0A6E10
:1009FC003C0E096E640EABEC0AF0CFD080B880B41C
:100A0C0018D082B080B615D080A013D0660E086EB8
:100A1C00000E0A6E3C0E096E650EABEC0AF0660E0B
:100A2C00086E000E0A6E3C0E096E640EABEC0AF0FA
:100A3C00B4D080B880A418D082B080B615D080A075
:100A4C0013D0660E086E000E0A6E3C0E096E650E13
:100A5C00ABEC0AF0740E086E000E0A6E3C0E096EBA
:100A6C00640EABEC0AF099D080B880A418D082A0A8
:100A7C0080B615D080A013D0660E086E000E0A6EDC
:100A8C003C0E096E650EABEC0AF0740E086E000E8F
:100A9C000A6E3C0E096E640EABEC0AF07ED080B888
:100AAC0080B418D082B080A615D080A013D0740E5C
:100ABC00086E000E0A6E3C0E096E650EABEC0AF069
:100ACC00660E086E000E0A6E3C0E096E640EABECE0
:100ADC000AF063D080B880B418D082A080A615D05C
:100AEC0080A013D0740E086E000E0A6E3C0E096EB8
:100AFC00650EABEC0AF0660E086E000E0A6E3C0E2C
:100B0C00096E640EABEC0AF048D080B880A418D003
:100B1C0082B080A615D080B013D0660E086E000E81
:100B2C000A6E3C0E096E650EABEC0AF0740E086E84
:100B3C00000E0A6E3C0E096E640EABEC0AF02DD062
:100B4C0080B880B418D082A080B615D080A013D005
:100B5C00660E086E000E0A6E3C0E096E640EABEC4F
:100B6C000AF0660E086E000E0A6E3C0E096E650EDB
:100B7C00ABEC0AF012D0660E086E000E0A6E3C0E3C
:100B8C00096E640EABEC0AF0660E086E000E0A6E6F
:100B9C003C0E096E650EABEC0AF0180E1564F0D61F
:100BAC00000E156E4FEC0BF0410E0E6EEE0EE82E95
:100BBC00FED70E2EFCD700F000F0F2D09EA006D08F
:100BCC009E90DE0ECE6E0B0ECF6E152A80A880A4E2
:100BDC0018D082B080A615D080A013D0740E086EE9
:100BEC00000E0A6E3C0E096E650EABEC0AF0660E3A
:100BFC00086E000E0A6E3C0E096E640EABEC0AF029
:100C0C00CFD080B880A418D082A080A615D080A0A8
:100C1C0013D0660E086E000E0A6E3C0E096E650E41
:100C2C00ABEC0AF0660E086E000E0A6E3C0E096EF6
:100C3C00640EABEC0AF0B4D080B880B418D082B09B
:100C4C0080B615D080A013D0660E086E000E0A6E0A
:100C5C003C0E096E650EABEC0AF0660E086E000ECB
:100C6C000A6E3C0E096E640EABEC0AF099D080B89B
:100C7C0080A418D082B080B615D080A013D0660E98
:100C8C00086E000E0A6E3C0E096E650EABEC0AF097
:100C9C00740E086E000E0A6E3C0E096E640EABEC00
:100CAC000AF07ED080B880A418D082A080B615D06F
:100CBC0080A013D0660E086E000E0A6E3C0E096EF4
:100CCC00650EABEC0AF0740E086E000E0A6E3C0E4C
:100CDC00096E640EABEC0AF063D080B880B418D007
:100CEC0082B080A615D080A013D0740E086E000EB2
:100CFC000A6E3C0E096E650EABEC0AF0660E086EC1
:100D0C00000E0A6E3C0E096E640EABEC0AF048D075
:100D1C0080B880B418D082A080A615D080A013D043
:100D2C00740E086E000E0A6E3C0E096E650EABEC6E
:100D3C000AF0660E086E000E0A6E3C0E096E640E0A
:100D4C00ABEC0AF02DD080B880A418D082B080A66D
:100D5C0015D080B013D0660E086E000E0A6E3C0ED5
:100D6C00096E650EABEC0AF0740E086E000E0A6E7E
:100D7C003C0E096E640EABEC0AF012D0740E086EC9
:100D8C00000E0A6E3C0E096E640EABEC0AF0660E99
:100D9C00086E000E0A6E3C0E096E650EABEC0AF086
:100DAC00060E15640BD74FEC0BF0410E0E6EEE0ECB
:100DBC00E82EFED70E2EFCD700F000F0470E1A18C6
:100DCC0007E1030E1B18D8A403D04FEC0BF004D092
:100DDC00112A0B0E1164E1D6CD90680E1A6E030E1B
:100DEC001B6E0B0E1A182EE1030E1B18D8A42AD05A
:100DFC00000E196E3C0E186E818E5D0E1A180CE1E9
:100E0C00030E1B18D8A408D018C077FF1950766EA3
:100E1C00000E756E000E0ED02D0E1A180CE1030E7E
:100E2C001B18D8A408D0000E776E000E766E18C072
:100E3C0075FF1950746E470E1A18DFE1030E1B185C
:100E4C00D8A4DBD7250E1A182EE1030E1B18D8A434
:100E5C002AD0000E196E3C0E186E818C2D0E1A18AD
:100E6C000CE1030E1B18D8A408D018C079FF195038
:100E7C00786E000E736E000E0ED05D0E1A180CE11B
:100E8C00030E1B18D8A408D0000E796E000E786ED5
:100E9C0018C073FF1950726E470E1A18DFE1030E5B
:100EAC001B18D8A4DBD74D0E1A1841E1030E1B18E2
:100EBC00D8A43DD0000E196E3C0E186E818C818E1C
:100ECC002D0E1A1814E1030E1B18D8A410D018C03C
:100EDC0079FF1950786E000E736E000E726E18C08A
:100EEC0075FF1950746E000E776E000E16D05D0EE5
:100EFC001A1814E1030E1B18D8A410D0000E796E2A
:100F0C00000E786E18C073FF1950726E000E756E5D
:100F1C00000E746E18C077FF1950766E470E1A18B3
:100F2C00CFE1030E1B18D8A4CBD74FEC0BF0410E1E
:100F3C001A1867E1030E1B18D8A463D0818E818C1C
:100F4C00660E086E000E0A6E500E096E640EABEC47
:100F5C000AF0660E086E000E0A6E500E096E650ED3
:100F6C00ABEC0AF00D0E0F6EAF0E0E6EB60EE82E39
:100F7C00FED70E2EFCD70F2EFAD700F000F0660E1F
:100F8C00086E000E0A6E000E096E640EABEC0AF0D1
:100F9C00660E086E000E0A6E000E096E650EABEC46
:100FAC000AF0330E0F6EBB0E0E6EE00EE82EFED75F
:100FBC000E2EFCD70F2EFAD7740E086E000E0A6E8A
:100FCC00500E096E640EABEC0AF0740E086E000E37
:100FDC000A6E500E096E650EABEC0AF00D0E0F6E1C
:100FEC00AF0E0E6EB60EE82EFED70E2EFCD70F2EC1
:100FFC00FAD700F000F04FEC0BF0200E1A6E000E3A
:10100C001B6E620E1A1827E1030E1B18D8A423D0EE
:10101C00660E086E000E0A6E3C0E096E650EABEC89
:10102C000AF0740E086E000E0A6E3C0E096E640E09
:10103C00ABEC0AF0080E0F6E9D0E0E6E060EE82E2F
:10104C00FED70E2EFCD70F2EFAD74FEC0BF0200E3E
:10105C001A6E000E1B6E650E1A1827E1030E1B1874
:10106C00D8A423D0740E086E000E0A6E3C0E096EC6
:10107C00650EABEC0AF0660E086E000E0A6E3C0EA6
:10108C00096E640EABEC0AF0080E0F6E9D0E0E6E20
:10109C00060EE82EFED70E2EFCD70F2EFAD74FECED
:1010AC000BF0200E1A6E000E1B6E80B010D0030ECB
:1010BC000F6E8A0E0E6E560EE82EFED70E2EFCD735
:1010CC000F2EFAD7300E97EC0BF0D0EF01F080B664
:1010DC0010D0030E0F6E8A0E0E6E560EE82EFED733
:1010EC000E2EFCD70F2EFAD7310E97EC0BF0D0EF5B
:1010FC0001F082B010D0030E0F6E8A0E0E6E560EDB
:10110C00E82EFED70E2EFCD70F2EFAD7320E97EC08
:10111C000BF0D0EF01F080B410D0030E0F6E8A0EDE
:10112C000E6E560EE82EFED70E2EFCD70F2EFAD7CB
:10113C00330E97EC0BF0D0EF01F080B8D0EF01F04C
:10114C00030E0F6E8A0E0E6E560EE82EFED70E2E66
:10115C00FCD70F2EFAD7340E97EC0BF0D0EF01F032
:10116C0080A880A418D082B080A615D080A013D0FF
:10117C00740E086E000E0A6E500E096E650EABEC06
:10118C000AF0660E086E000E0A6E500E096E640EA2
:10119C00ABEC0AF0120080B880A418D082A080A614
:1011AC0015D080A013D0660E086E000E0A6E500E7D
:1011BC00096E650EABEC0AF0660E086E000E0A6E38
:1011CC00500E096E640EABEC0AF0120080B880B4BD
:1011DC0018D082B080B615D080A013D0660E086EE1
:1011EC00000E0A6E500E096E650EABEC0AF0660E20
:1011FC00086E000E0A6E500E096E640EABEC0AF00F
:10120C00120080B880B418D082A080B615D080A00F
:10121C0013D0660E086E000E0A6E500E096E640E28
:10122C00ABEC0AF0660E086E000E0A6E500E096EDC
:10123C00650EABEC0AF0120080B880A418D082B016
:10124C0080B615D080A013D0660E086E000E0A6E04
:10125C00500E096E650EABEC0AF0740E086E000EA3
:10126C000A6E500E096E640EABEC0AF0120080B8D8
:10127C0080A418D082A080B615D080A013D0660EA2
:10128C00086E000E0A6E500E096E650EABEC0AF07D
:10129C00740E086E000E0A6E500E096E640EABECE6
:1012AC000AF0120080B880B418D082B080A615D095
:1012BC0080A013D0740E086E000E0A6E500E096ECC
:1012CC00650EABEC0AF0660E086E000E0A6E500E40
:1012DC00096E640EABEC0AF0120080B880B418D022
:1012EC0082A080A615D080A013D0740E086E000EBC
:1012FC000A6E500E096E650EABEC0AF0660E086EA7
:10130C00000E0A6E500E096E640EABEC0AF0120061
:10131C0080B880A418D082B080A615D080B013D02D
:10132C00660E086E000E0A6E500E096E650EABEC62
:10133C000AF0740E086E000E0A6E500E096E640EE2
:10134C00ABEC0AF012004FEC0BF0120082B682A844
:10135C0013D0660E086E000E0A6E460E096E640EF1
:10136C00ABEC0AF0660E086E000E0A6E460E096EA5
:10137C00650EABEC0AF0120082B682B81ED0660E77
:10138C00086E000E0A6E460E096E640EABEC0AF087
:10139C00740E086E000E0A6E460E096E650EABECEE
:1013AC000AF0030E0D6E8A0E0C6E560EE82EFED74A
:1013BC000C2EFCD70D2EFAD7120082A682A813D0C1
:1013CC00740E086E000E0A6E460E096E640EABECBF
:1013DC000AF0660E086E000E0A6E460E096E650E59
:1013EC00ABEC0AF0DED782B6120082B81200740E93
:1013FC00086E000E0A6E460E096E640EABEC0AF017
:10140C00740E086E000E0A6E460E096E650EABEC7D
:10141C000AF0020E0D6E450E0C6EAA0EE82EFED7CB
:10142C000C2EFCD70D2EFAD74FEC0BF0410E0C6E98
:10143C00EE0EE82EFED70C2EFCD700F000F0660E58
:10144C00086E000E0A6E460E096E640EABEC0AF0C6
:10145C00740E086E000E0A6E460E096E650EABEC2D
:10146C000AF0120082B682A803D0B6EC08F0120083
:10147C0082A682A813D0660E086E000E0A6E3C0E71
:10148C00096E640EABEC0AF0740E086E000E0A6E58
:10149C003C0E096E650EABEC0AF0120082B682B8F7
:1014AC0013D0740E086E000E0A6E3C0E096E640E9C
:1014BC00ABEC0AF0660E086E000E0A6E3C0E096E5E
:1014CC00650EABEC0AF0120082B6120082B8120064
:1014DC00740E086E000E0A6E3C0E096E640EABECB8
:1014EC000AF0740E086E000E0A6E3C0E096E650E44
:1014FC00ABEC0AF0020E0D6E450E0C6EAA0EE82E29
:10150C00FED70C2EFCD70D2EFAD74FEC0BF0020E9B
:10151C000D6E450E0C6EAA0EE82EFED70C2EFCD7C7
:10152C000D2EFAD7740E086E000E0A6E3C0E096E64
:10153C00640EABEC0AF0660E086E000E0A6E3C0EE2
:10154C00096E650EABEC0AF012000B6E09C002F0CE
:10155C000AC003F0000E056E060E046E3CEC0BF098
:10156C0002C009F003C00AF0650E0B18D8A41BD0FA
:10157C00818C660E0818D8A409D009C075FF0A50D2
:10158C00746E000E776E000E766E1200740E0818D4
:10159C00D8A4120009C077FF0A50766E000E756E43
:1015AC00000E746E1200640E0B18D8A41200818EFB
:1015BC00660E0818D8A409D009C079FF0A50786EB5
:1015CC00000E736E000E726E1200740E0818D8A402
:1015DC00120009C073FF0A50726E000E796E000E75
:1015EC00786E1200000E076E000E066E11D00650BB
:1015FC000224046E07500320056E04C0F6FF05C0DC
:10160C00F7FF0800F5CFADFFB4EC0BF0064A072A44
:10161C0006500224046E07500320056E04C0F6FF2A
:10162C0005C0F7FF0800F5500009D8A4E0D70D0E4F
:10163C00AD6EB4EC0BF01200000E7F6E800E7E6E61
:10164C005F0E6F6E010E6E6E100E6D6E6B68000E7F
:10165C006A6E960E7B6E000E7A6E000E7D6E000E1C
:10166C007C6E000E816E000E836E1200025004021E
:10167C00F3CF06F0F4CF07F002500502F350072623
:10168C0003500402F350072606C002F007C003F013
:10169C001200000E786E000E796E000E766E000E43
:1016AC00776E000E746E000E756E000E726E000E6C
:1016BC00736E1200000E786E000E796E000E766E50
:1016CC00000E776E000E746E000E756E000E726E4C
:1016DC00000E736E120000EE16F0080EEE6AE806AD
:1016EC00FDE11E901E92000EF86E030EF76E0001C7
:1016FC00B6EF01F09268000E936E9468000E956E32
:10170C00070E966E800EB86E010EB96E1200820E28
:10171C00AF6EAC8AAC98AC84AB8EAB889E9A9D8A2B
:10172C001200026E02C0ADFFB4EC0BF00D0EAD6EEC
:10173C00B4EC0BF01200CD8ECD9CCD88CD96CD9413
:10174C00CD92CD901200D59ED59CD59AD596D580AC
:10175C00F2941200AECF01F001501200ACB21200A4
:02176C00FDD7A7
:020000040020DA
:08000000FFFFFFFFFFFFFFFF00
:020000040030CA
:0E000000FFC20D3E3C1D81FF0FC00FE00F4000
:00000001FF
