:020000040000FA
:040000003BEF01F0E1
:100008001E829EAA0AEF00F00CEF00F039EF01F013
:100018009E9AABB412EF00F014EF00F01BEF00F063
:10002800ABA219EF00F01BEF00F01DEF00F0AB984A
:10003800AB880FEC12F04C0AD8A425EF00F027EF9C
:1000480000F02BEF00F03B0E1A6E030E1B6E0FEC48
:1000580012F0440AD8A433EF00F035EF00F039EF7E
:1000680000F0010E1A6E030E1B6E0FEC12F0540A0C
:10007800D8A441EF00F043EF00F047EF00F0140E72
:100088001A6E030E1B6E0FEC12F0410AD8A44FEF44
:1000980000F051EF00F055EF00F0580E1A6E030E05
:1000A8001B6E0FEC12F0450AD8A45DEF00F05FEF6D
:1000B80000F063EF00F01D0E1A6E030E1B6E0FECBE
:1000C80012F05A0AD8A46BEF00F06DEF00F071EF50
:1000D80000F0340E1A6E030E1B6E0FEC12F0520A6B
:1000E800D8A479EF00F07BEF00F07FEF00F0410E2D
:1000F8001A6E030E1B6E0FEC12F0580AD8A487EF85
:1001080000F089EF00F08DEF00F0620E1A6E030E1A
:100118001B6E0FEC12F0590AD8A495EF00F097EF78
:1001280000F09BEF00F0650E1A6E030E1B6E0FECCD
:1001380012F0640AD8A4A3EF00F0A5EF00F0A9EF2D
:1001480000F0250E1A6E030E1B6E0FEC12F0650AF6
:10015800D8A4B1EF00F0B3EF00F0B7EF00F00B0E4A
:100168001A6E030E1B6E0FEC12F0660AD8A4BFEFCE
:1001780000F0C1EF00F0C5EF00F02D0E1A6E030E6F
:100188001B6E0FEC12F0740AD8A4CDEF00F0CFEF7D
:1001980000F0D3EF00F05D0E1A6E030E1B6E0FEC2D
:1001A80012F06D0AD8A4DBEF00F0DDEF00F0E1EF0C
:1001B80000F04D0E1A6E030E1B6E0FEC12F02B0A98
:1001C800D8A4E9EF00F0EBEF00F0FEEF00F03C0EF2
:1001D8001826000E1922580E185C020E1958D8A0BD
:1001E800F8EF00F0FAEF00F0FEEF00F0000E196EE5
:1001F8003C0E186E0FEC12F02D0AD8A406EF01F091
:1002080008EF01F01BEF01F03C0E185E000E195AC2
:10021800195007E13C0E185CD8B015EF01F017EF44
:1002280001F01BEF01F0010E196E2C0E186E0FEC89
:1002380012F0470AD8A423EF01F025EF01F029EFC7
:1002480001F0000E176E010E166E0FEC12F0500A38
:10025800D8A431EF01F033EF01F039EF01F0B7EC3A
:1002680011F0470E1A6E030E1B6E1E921100C8EF96
:0202780011F083
:100300000064697374616E6369610065737175651A
:1003100072646F00746F7175696E686F00657374D5
:1003200072656C61006469726569746F00667265FC
:100330006E7465007A69677A6167006C696E6861DE
:10034000007465737465007061726172006D6F7422
:100350006F720061717569006172636F0074726120
:0B036000730067640067650020000068
:10036C00D7EC11F0E4EC11F079EC11F008EC12F090
:10037C00F8EC11F0F28EF28C8390838216501710E9
:10038C00D8B4CBEF01F0CDEF01F0C4EF01F0530E78
:10039C00026E030E036E49EC11F03B0E1A1807E1C6
:1003AC00030E1B18D8A4DDEF01F0DFEF01F0EFEF27
:1003BC0001F07CEC0FF0470E1A1807E1030E1B1826
:1003CC00D8A4EBEF01F0EDEF01F0DFEF01F0A6ECBC
:1003DC0011F0010E1A1807E1030E1B18D8A4F9EF3F
:1003EC0001F0FBEF01F00BEF02F08AEC0DF0470E81
:1003FC001A1807E1030E1B18D8A407EF02F009EF37
:10040C0002F0FBEF01F0A6EC11F0580E1A1807E100
:10041C00030E1B18D8A415EF02F017EF02F07EEFB5
:10042C0004F0D58E780ED66EF80ED76E000E106EC8
:10043C0075EF04F080A225EF02F027EF02F057EFE2
:10044C0002F080A02CEF02F02EEF02F057EF02F03A
:10045C0082A033EF02F035EF02F057EF02F080A6E6
:10046C003AEF02F03CEF02F057EF02F080A441EFBC
:10047C0002F043EF02F057EF02F0660E086E000E2A
:10048C000A6E4B0E096E640EDBEC10F0660E086EF5
:10049C00000E0A6E5A0E096E650EDBEC10F058EF6A
:1004AC0004F080B25CEF02F05EEF02F08EEF02F02F
:1004BC0080A063EF02F065EF02F08EEF02F082A0F5
:1004CC006AEF02F06CEF02F08EEF02F080A671EF93
:1004DC0002F073EF02F08EEF02F080A478EF02F0DE
:1004EC007AEF02F08EEF02F0740E086E000E0A6EB8
:1004FC003C0E096E650EDBEC10F0660E086E000EFD
:10050C000A6E3C0E096E640EDBEC10F058EF04F032
:10051C0080A293EF02F095EF02F0C5EF02F080A0FD
:10052C009AEF02F09CEF02F0C5EF02F082B0A1EF5F
:10053C0002F0A3EF02F0C5EF02F080A6A8EF02F0E4
:10054C00AAEF02F0C5EF02F080A4AFEF02F0B1EF1A
:10055C0002F0C5EF02F0660E086E000E0A6E3C0E3D
:10056C00096E650EDBEC10F0660E086E000E0A6E5E
:10057C003C0E096E640EDBEC10F058EF04F080A218
:10058C00CAEF02F0CCEF02F0FCEF02F080B0D1EF3A
:10059C0002F0D3EF02F0FCEF02F082A0D8EF02F0F1
:1005AC00DAEF02F0FCEF02F080B6DFEF02F0E1EFE1
:1005BC0002F0FCEF02F080A4E6EF02F0E8EF02F0AC
:1005CC00FCEF02F0660E086E000E0A6E3C0E096E11
:1005DC00650EDBEC10F0660E086E000E0A6E3C0E1B
:1005EC00096E640EDBEC10F058EF04F080A201EF02
:1005FC0003F003EF03F033EF03F080A008EF03F0F8
:10060C000AEF03F033EF03F082A00FEF03F011EFCA
:10061C0003F033EF03F080B616EF03F018EF03F09E
:10062C0033EF03F080A41DEF03F01FEF03F033EF63
:10063C0003F0660E086E000E0A6E3C0E096E650E17
:10064C00DBEC10F0740E086E000E0A6E3C0E096E98
:10065C00640EDBEC10F058EF04F080A238EF03F0DE
:10066C003AEF03F06AEF03F080A03FEF03F041EFA5
:10067C0003F06AEF03F082B046EF03F048EF03F0AB
:10068C006AEF03F080B64DEF03F04FEF03F06AEF23
:10069C0003F080A454EF03F056EF03F06AEF03F07D
:1006AC00660E086E000E0A6E3C0E096E650EDBECD3
:1006BC0010F0740E086E000E0A6E3C0E096E640E7D
:1006CC00DBEC10F058EF04F080A26FEF03F071EF49
:1006DC0003F0A1EF03F080B076EF03F078EF03F0B6
:1006EC00A1EF03F082A07DEF03F07FEF03F0A1EF09
:1006FC0003F080A684EF03F086EF03F0A1EF03F084
:10070C0080A48BEF03F08DEF03F0A1EF03F0740ED8
:10071C00086E000E0A6E3C0E096E650EDBEC10F0D6
:10072C00660E086E000E0A6E3C0E096E640EDBEC53
:10073C0010F058EF04F080A2A6EF03F0A8EF03F03E
:10074C00D8EF03F080B0ADEF03F0AFEF03F0D8EFCC
:10075C0003F082B0B4EF03F0B6EF03F0D8EF03F080
:10076C0080A6BBEF03F0BDEF03F0D8EF03F080A43D
:10077C00C2EF03F0C4EF03F0D8EF03F0740E086E71
:10078C00000E0A6E3C0E096E650EDBEC10F0660E68
:10079C00086E000E0A6E3C0E096E640EDBEC10F057
:1007AC0058EF04F080A2DDEF03F0DFEF03F00FEF62
:1007BC0004F080A0E4EF03F0E6EF03F00FEF04F099
:1007CC0082A0EBEF03F0EDEF03F00FEF04F080A647
:1007DC00F2EF03F0F4EF03F00FEF04F080B4F9EF55
:1007EC0003F0FBEF03F00FEF04F0660E086E000E43
:1007FC000A6E3C0E096E650EDBEC10F0740E086E82
:10080C00000E0A6E3C0E096E640EDBEC10F058EF15
:10081C0004F080A214EF04F016EF04F046EF04F09D
:10082C0080B01BEF04F01DEF04F046EF04F082B033
:10083C0022EF04F024EF04F046EF04F080B629EF29
:10084C0004F02BEF04F046EF04F080A430EF04F03A
:10085C0032EF04F046EF04F0660E086E000E0A6EDE
:10086C003C0E096E640EDBEC10F0660E086E000E8A
:10087C000A6E3C0E096E650EDBEC10F058EF04F0BE
:10088C00660E086E000E0A6E3C0E096E640EDBECF2
:10089C0010F0660E086E000E0A6E5A0E096E650E8A
:1008AC00DBEC10F0F2A45DEF04F05FEF04F065EF09
:1008BC0004F0F294780ED66EF80ED76E102A470E0E
:1008CC001A1807E1030E1B18D8A46FEF04F071EF90
:1008DC0004F075EF04F0A6EC11F07DEF04F0630E5C
:1008EC0010647BEF04F07DEF04F020EF02F0D59E56
:1008FC00140E1A1807E1030E1B18D8A488EF04F085
:10090C008AEF04F0E9EF06F0CD80DE0ECE6E0B0E12
:10091C00CF6E000E146E000E136E000E126EE0EF12
:10092C0006F09EA09CEF04F09EEF04F0A5EF04F0FF
:10093C009E90DE0ECE6E0B0ECF6E124A132A13BE95
:10094C00B3EF04F0135007E10A0E125CD8B0B1EF0C
:10095C0004F0B3EF04F0C7EF06F080B2B8EF04F088
:10096C00BAEF04F0EAEF04F080A0BFEF04F0C1EF9F
:10097C0004F0EAEF04F082A0C6EF04F0C8EF04F034
:10098C00EAEF04F080A6CDEF04F0CFEF04F0EAEF2D
:10099C0004F080A4D4EF04F0D6EF04F0EAEF04F0F6
:1009AC00740E086E000E0A6E3C0E096E650EDBECC2
:1009BC0010F0660E086E000E0A6E3C0E096E640E88
:1009CC00DBEC10F0D0EF06F080A2EFEF04F0F1EFCB
:1009DC0004F021EF05F080A0F6EF04F0F8EF04F03E
:1009EC0021EF05F082B0FDEF04F0FFEF04F021EFF2
:1009FC0005F080A604EF05F006EF05F021EF05F0F9
:100A0C0080A40BEF05F00DEF05F021EF05F0660E5D
:100A1C00086E000E0A6E3C0E096E650EDBEC10F0D3
:100A2C00660E086E000E0A6E3C0E096E640EDBEC50
:100A3C0010F0D0EF06F080A226EF05F028EF05F0BD
:100A4C0058EF05F080B02DEF05F02FEF05F058EFC3
:100A5C0005F082A034EF05F036EF05F058EF05F005
:100A6C0080B63BEF05F03DEF05F058EF05F080A4A4
:100A7C0042EF05F044EF05F058EF05F0660E086EF6
:100A8C00000E0A6E3C0E096E650EDBEC10F0660E65
:100A9C00086E000E0A6E3C0E096E640EDBEC10F054
:100AAC00D0EF06F080A25DEF05F05FEF05F08FEF61
:100ABC0005F080A064EF05F066EF05F08FEF05F010
:100ACC0082A06BEF05F06DEF05F08FEF05F080B6AF
:100ADC0072EF05F074EF05F08FEF05F080A479EF5D
:100AEC0005F07BEF05F08FEF05F0660E086E000E3B
:100AFC000A6E3C0E096E650EDBEC10F0740E086E7F
:100B0C00000E0A6E3C0E096E640EDBEC10F0D0EF9A
:100B1C0006F080A294EF05F096EF05F0C6EF05F015
:100B2C0080A09BEF05F09DEF05F0C6EF05F082B0BD
:100B3C00A2EF05F0A4EF05F0C6EF05F080B6A9EF23
:100B4C0005F0ABEF05F0C6EF05F080A4B0EF05F0B3
:100B5C00B2EF05F0C6EF05F0660E086E000E0A6ED9
:100B6C003C0E096E650EDBEC10F0740E086E000E78
:100B7C000A6E3C0E096E640EDBEC10F0D0EF06F042
:100B8C0080A2CBEF05F0CDEF05F0FDEF05F080B0C6
:100B9C00D2EF05F0D4EF05F0FDEF05F082A0D9EF10
:100BAC0005F0DBEF05F0FDEF05F080A6E0EF05F0BA
:100BBC00E2EF05F0FDEF05F080A4E7EF05F0E9EFBB
:100BCC0005F0FDEF05F0740E086E000E0A6E3C0E7B
:100BDC00096E650EDBEC10F0660E086E000E0A6EE8
:100BEC003C0E096E640EDBEC10F0D0EF06F080A228
:100BFC0002EF06F004EF06F034EF06F080B009EFD8
:100C0C0006F00BEF06F034EF06F082B010EF06F0B2
:100C1C0012EF06F034EF06F080A617EF06F019EF8E
:100C2C0006F034EF06F080A41EEF06F020EF06F07D
:100C3C0034EF06F0740E086E000E0A6E3C0E096E50
:100C4C00650EDBEC10F0660E086E000E0A6E3C0EA4
:100C5C00096E640EDBEC10F0D0EF06F080A239EFD9
:100C6C0006F03BEF06F06BEF06F080A040EF06F0CD
:100C7C0042EF06F06BEF06F082A047EF06F049EF6B
:100C8C0006F06BEF06F080A64EEF06F050EF06F084
:100C9C006BEF06F080B455EF06F057EF06F06BEFF4
:100CAC0006F0660E086E000E0A6E3C0E096E650E9E
:100CBC00DBEC10F0740E086E000E0A6E3C0E096E22
:100CCC00640EDBEC10F0D0EF06F080A270EF06F0B3
:100CDC0072EF06F0A2EF06F080B077EF06F079EF36
:100CEC0006F0A2EF06F082B07EEF06F080EF06F081
:100CFC00A2EF06F080B685EF06F087EF06F0A2EFC4
:100D0C0006F080A48CEF06F08EEF06F0A2EF06F052
:100D1C00660E086E000E0A6E3C0E096E640EDBEC5D
:100D2C0010F0660E086E000E0A6E3C0E096E650E13
:100D3C00DBEC10F0D0EF06F013BEAFEF06F0135063
:100D4C0006E11204D8B0ADEF06F0AFEF06F0C3EF3A
:100D5C0006F0660E086E000E0A6E3C0E096E640EEE
:100D6C00DBEC10F0660E086E000E0A6E3C0E096E7F
:100D7C00650EDBEC10F0D0EF06F0A6EC11F0D0EF26
:100D8C0006F0000E136E000E126E142A1450300F63
:100D9C00EEEC11F0470E1A1807E1030E1B18D8A43D
:100DAC00DAEF06F0DCEF06F0E0EF06F0A6EC11F05F
:100DBC00E8EF06F0090E1464E6EF06F0E8EF06F033
:100DCC0097EF04F0CD901D0E1A1807E1030E1B18B7
:100DDC00D8A4F3EF06F0F5EF06F005EF07F038ECCA
:100DEC0010F0470E1A1807E1030E1B18D8A401EFD8
:100DFC0007F003EF07F0F5EF06F0A6EC11F0340E58
:100E0C001A1807E1030E1B18D8A40FEF07F011EF07
:100E1C0007F068EF0BF0000E116E000E156E660EEB
:100E2C00086E000E0A6E3C0E096E640EDBEC10F0C0
:100E3C00740E086E000E0A6E3C0E096E650EDBEC2D
:100E4C0010F0020E0F6EC70E0E6E880EE82EFED737
:100E5C000E2EFCD70F2EFAD700F000F0CD80DE0E50
:100E6C00CE6E0B0ECF6E5BEF0BF09EA040EF07F03B
:100E7C0042EF07F048EF07F09E90DE0ECE6E0B0EA1
:100E8C00CF6E152A80B24DEF07F04FEF07F07FEFD2
:100E9C0007F080A054EF07F056EF07F07FEF07F054
:100EAC0082A05BEF07F05DEF07F07FEF07F080A605
:100EBC0062EF07F064EF07F07FEF07F080A469EFB3
:100ECC0007F06BEF07F07FEF07F0740E086E000E63
:100EDC000A6E3C0E096E650EDBEC10F0660E086EA9
:100EEC00000E0A6E3C0E096E640EDBEC10F049EF3E
:100EFC0009F080A284EF07F086EF07F0B6EF07F059
:100F0C0080A08BEF07F08DEF07F0B6EF07F082B003
:100F1C0092EF07F094EF07F0B6EF07F080A699EF89
:100F2C0007F09BEF07F0B6EF07F080A4A0EF07F0F7
:100F3C00A2EF07F0B6EF07F0660E086E000E0A6E11
:100F4C003C0E096E650EDBEC10F0660E086E000EA2
:100F5C000A6E3C0E096E640EDBEC10F049EF09F0E2
:100F6C0080A2BBEF07F0BDEF07F0EDEF07F080B00C
:100F7C00C2EF07F0C4EF07F0EDEF07F082A0C9EF66
:100F8C0007F0CBEF07F0EDEF07F080B6D0EF07F0EE
:100F9C00D2EF07F0EDEF07F080A4D7EF07F0D9EF11
:100FAC0007F0EDEF07F0660E086E000E0A6E3C0EB1
:100FBC00096E650EDBEC10F0660E086E000E0A6E04
:100FCC003C0E096E640EDBEC10F049EF09F080A2C8
:100FDC00F2EF07F0F4EF07F024EF08F080A0F9EF40
:100FEC0007F0FBEF07F024EF08F082A000EF08F009
:100FFC0002EF08F024EF08F080B607EF08F009EFD5
:10100C0008F024EF08F080A40EEF08F010EF08F0C1
:10101C0024EF08F0660E086E000E0A6E3C0E096E88
:10102C00650EDBEC10F0740E086E000E0A6E3C0EB2
:10103C00096E640EDBEC10F049EF09F080A229EF89
:10104C0008F02BEF08F05BEF08F080A030EF08F011
:10105C0032EF08F05BEF08F082B037EF08F039EFB1
:10106C0008F05BEF08F080B63EEF08F040EF08F0B8
:10107C005BEF08F080A445EF08F047EF08F05BEF5A
:10108C0008F0660E086E000E0A6E3C0E096E650EB8
:10109C00DBEC10F0740E086E000E0A6E3C0E096E3E
:1010AC00640EDBEC10F049EF09F080A260EF08F061
:1010BC0062EF08F092EF08F080B067EF08F069EF8C
:1010CC0008F092EF08F082A06EEF08F070EF08F0D5
:1010DC0092EF08F080A675EF08F077EF08F092EF2A
:1010EC0008F080A47CEF08F07EEF08F092EF08F097
:1010FC00740E086E000E0A6E3C0E096E650EDBEC6B
:10110C0010F0660E086E000E0A6E3C0E096E640E30
:10111C00DBEC10F049EF09F080A297EF08F099EFA3
:10112C0008F0C9EF08F080B09EEF08F0A0EF08F0CF
:10113C00C9EF08F082B0A5EF08F0A7EF08F0C9EFEF
:10114C0008F080A6ACEF08F0AEEF08F0C9EF08F09D
:10115C0080A4B3EF08F0B5EF08F0C9EF08F0740EF7
:10116C00086E000E0A6E3C0E096E650EDBEC10F07C
:10117C00660E086E000E0A6E3C0E096E640EDBECF9
:10118C0010F049EF09F080A2CEEF08F0D0EF08F094
:10119C0000EF09F080A0D5EF08F0D7EF08F000EFD2
:1011AC0009F082A0DCEF08F0DEEF08F000EF09F0A8
:1011BC0080A6E3EF08F0E5EF08F000EF09F080B44B
:1011CC00EAEF08F0ECEF08F000EF09F0660E086E9D
:1011DC00000E0A6E3C0E096E650EDBEC10F0740E00
:1011EC00086E000E0A6E3C0E096E640EDBEC10F0FD
:1011FC0049EF09F080A205EF09F007EF09F037EF8E
:10120C0009F080B00CEF09F00EEF09F037EF09F0A0
:10121C0082B013EF09F015EF09F037EF09F080B643
:10122C001AEF09F01CEF09F037EF09F080A421EF59
:10123C0009F023EF09F037EF09F0660E086E000E87
:10124C000A6E3C0E096E640EDBEC10F0660E086E36
:10125C00000E0A6E3C0E096E650EDBEC10F049EFC9
:10126C0009F0660E086E000E0A6E3C0E096E640ED6
:10127C00DBEC10F0660E086E000E0A6E3C0E096E6A
:10128C00650EDBEC10F0180E15644FEF09F051EF02
:10129C0009F03BEF07F0000E156EA6EC11F0410EB5
:1012AC000E6EEE0EE82EFED70E2EFCD700F000F0E0
:1012BC0037EF0BF09EA065EF09F067EF09F06DEFCB
:1012CC0009F09E90DE0ECE6E0B0ECF6E152A80B2FC
:1012DC0072EF09F074EF09F0A4EF09F080A079EF38
:1012EC0009F07BEF09F0A4EF09F082A080EF09F080
:1012FC0082EF09F0A4EF09F080A687EF09F089EFDF
:10130C0009F0A4EF09F080A48EEF09F090EF09F03A
:10131C00A4EF09F0740E086E000E0A6E3C0E096EF6
:10132C00650EDBEC10F0660E086E000E0A6E3C0EBD
:10133C00096E640EDBEC10F037EF0BF080A2A9EF16
:10134C0009F0ABEF09F0DBEF09F080A0B0EF09F08A
:10135C00B2EF09F0DBEF09F082B0B7EF09F0B9EFAB
:10136C0009F0DBEF09F080A6BEEF09F0C0EF09F041
:10137C00DBEF09F080A4C5EF09F0C7EF09F0DBEF54
:10138C0009F0660E086E000E0A6E3C0E096E650EB4
:10139C00DBEC10F0660E086E000E0A6E3C0E096E49
:1013AC00640EDBEC10F037EF0BF080A2E0EF09F0ED
:1013BC00E2EF09F012EF0AF080B0E7EF09F0E9EF85
:1013CC0009F012EF0AF082A0EEEF09F0F0EF09F04D
:1013DC0012EF0AF080B6F5EF09F0F7EF09F012EF13
:1013EC000AF080A4FCEF09F0FEEF09F012EF0AF00E
:1013FC00660E086E000E0A6E3C0E096E650EDBEC76
:10140C0010F0660E086E000E0A6E3C0E096E640E2D
:10141C00DBEC10F037EF0BF080A217EF0AF019EFAE
:10142C000AF049EF0AF080A01EEF0AF020EF0AF054
:10143C0049EF0AF082A025EF0AF027EF0AF049EFF6
:10144C000AF080B62CEF0AF02EEF0AF049EF0AF002
:10145C0080A433EF0AF035EF0AF049EF0AF0660E7C
:10146C00086E000E0A6E3C0E096E650EDBEC10F079
:10147C00740E086E000E0A6E3C0E096E640EDBECE8
:10148C0010F037EF0BF080A24EEF0AF050EF0AF09D
:10149C0080EF0AF080A055EF0AF057EF0AF080EFCA
:1014AC000AF082B05CEF0AF05EEF0AF080EF0AF00F
:1014BC0080B663EF0AF065EF0AF080EF0AF080A4C3
:1014CC006AEF0AF06CEF0AF080EF0AF0660E086E15
:1014DC00000E0A6E3C0E096E650EDBEC10F0740EFD
:1014EC00086E000E0A6E3C0E096E640EDBEC10F0FA
:1014FC0037EF0BF080A285EF0AF087EF0AF0B7EF19
:10150C000AF080B08CEF0AF08EEF0AF0B7EF0AF019
:10151C0082A093EF0AF095EF0AF0B7EF0AF080A6DD
:10152C009AEF0AF09CEF0AF0B7EF0AF080A4A1EF53
:10153C000AF0A3EF0AF0B7EF0AF0740E086E000E73
:10154C000A6E3C0E096E650EDBEC10F0660E086E32
:10155C00000E0A6E3C0E096E640EDBEC10F037EFD9
:10156C000BF080A2BCEF0AF0BEEF0AF0EEEF0AF02F
:10157C0080B0C3EF0AF0C5EF0AF0EEEF0AF082B0CC
:10158C00CAEF0AF0CCEF0AF0EEEF0AF080A6D1EF2A
:10159C000AF0D3EF0AF0EEEF0AF080A4D8EF0AF0CD
:1015AC00DAEF0AF0EEEF0AF0740E086E000E0A6E17
:1015BC003C0E096E650EDBEC10F0660E086E000E2C
:1015CC000A6E3C0E096E640EDBEC10F037EF0BF07C
:1015DC0080A2F3EF0AF0F5EF0AF025EF0BF080A0F4
:1015EC00FAEF0AF0FCEF0AF025EF0BF082A001EF06
:1015FC000BF003EF0BF025EF0BF080A608EF0BF0D0
:10160C000AEF0BF025EF0BF080B40FEF0BF011EF9E
:10161C000BF025EF0BF0660E086E000E0A6E3C0EFA
:10162C00096E650EDBEC10F0740E086E000E0A6E7F
:10163C003C0E096E640EDBEC10F037EF0BF0740E01
:10164C00086E000E0A6E3C0E096E640EDBEC10F098
:10165C00660E086E000E0A6E3C0E096E650EDBEC13
:10166C0010F0060E15643DEF0BF03FEF0BF060EF42
:10167C0009F0A6EC11F0410E0E6EEE0EE82EFED720
:10168C000E2EFCD700F000F0470E1A1807E1030EDF
:10169C001B18D8A454EF0BF056EF0BF05AEF0BF0CD
:1016AC00A6EC11F063EF0BF0112A0B0E116461EF35
:1016BC000BF063EF0BF049EF09F0CD90680E1A6E4A
:1016CC00030E1B6E0B0E1A1807E1030E1B18D8A481
:1016DC0072EF0BF074EF0BF0AFEF0BF0000E196E16
:1016EC003C0E186E818E5D0E1A1807E1030E1B1846
:1016FC00D8A483EF0BF085EF0BF08FEF0BF018C035
:10170C0077FF1950766E000E756E000E746EA3EF97
:10171C000BF02D0E1A1807E1030E1B18D8A499EF25
:10172C000BF09BEF0BF0A3EF0BF0000E776E000E9F
:10173C00766E18C075FF1950746E470E1A1807E1B3
:10174C00030E1B18D8A4ADEF0BF0AFEF0BF079EF35
:10175C000BF0250E1A1807E1030E1B18D8A4B9EFCD
:10176C000BF0BBEF0BF0F6EF0BF0000E196E3C0E0E
:10177C00186E818C2D0E1A1807E1030E1B18D8A4B5
:10178C00CAEF0BF0CCEF0BF0D6EF0BF018C079FFD3
:10179C001950786E000E736E000E726EEAEF0BF03D
:1017AC005D0E1A1807E1030E1B18D8A4E0EF0BF01E
:1017BC00E2EF0BF0EAEF0BF0000E796E000E786E94
:1017CC0018C073FF1950726E470E1A1807E1030EFA
:1017DC001B18D8A4F4EF0BF0F6EF0BF0C0EF0BF0E6
:1017EC004D0E1A1807E1030E1B18D8A400EF0CF0CD
:1017FC0002EF0CF050EF0CF0000E196E3C0E186E50
:10180C00818C818E2D0E1A1807E1030E1B18D8A49B
:10181C0012EF0CF014EF0CF026EF0CF018C079FF5F
:10182C001950786E000E736E000E726E18C075FF34
:10183C001950746E000E776E000E766E42EF0CF03F
:10184C005D0E1A1807E1030E1B18D8A430EF0CF02C
:10185C0032EF0CF042EF0CF0000E796E000E786E49
:10186C0018C073FF1950726E000E756E000E746EF8
:10187C0018C077FF1950766E470E1A1807E1030E41
:10188C001B18D8A44CEF0CF04EEF0CF008EF0CF03A
:10189C00A6EC11F0410E1A1807E1030E1B18D8A480
:1018AC005AEF0CF05CEF0CF0BFEF0CF0818E818CDA
:1018BC00660E086E000E0A6E500E096E640EDBEC9E
:1018CC0010F0660E086E000E0A6E500E096E650E54
:1018DC00DBEC10F00D0E0F6EAF0E0E6EB60EE82E8A
:1018EC00FED70E2EFCD70F2EFAD700F000F0660EA6
:1018FC00086E000E0A6E000E096E640EDBEC10F022
:10190C00660E086E000E0A6E000E096E650EDBEC9C
:10191C0010F0330E0F6EBB0E0E6EE00EE82EFED7DF
:10192C000E2EFCD70F2EFAD7740E086E000E0A6E10
:10193C00500E096E640EDBEC10F0740E086E000E87
:10194C000A6E500E096E650EDBEC10F00D0E0F6E6C
:10195C00AF0E0E6EB60EE82EFED70E2EFCD70F2E47
:10196C00FAD700F000F0A6EC11F0200E1A6E000E63
:10197C001B6E620E1A1807E1030E1B18D8A4C9EFD0
:10198C000CF0CBEF0CF0EEEF0CF0660E086E000EC8
:10199C000A6E3C0E096E650EDBEC10F0740E086ED0
:1019AC00000E0A6E3C0E096E640EDBEC10F0080E95
:1019BC000F6E9D0E0E6E060EE82EFED70E2EFCD769
:1019CC000F2EFAD7A6EC11F0200E1A6E000E1B6E1D
:1019DC00650E1A1807E1030E1B18D8A4F8EF0CF0CB
:1019EC00FAEF0CF01DEF0DF0740E086E000E0A6E7F
:1019FC003C0E096E650EDBEC10F0660E086E000EE8
:101A0C000A6E3C0E096E640EDBEC10F0080E0F6EC5
:101A1C009D0E0E6E060EE82EFED70E2EFCD70F2E48
:101A2C00FAD7A6EC11F0200E1A6E000E1B6E80B4C5
:101A3C0022EF0DF024EF0DF032EF0DF0030E0F6ED0
:101A4C008A0E0E6E560EE82EFED70E2EFCD70F2EDB
:101A5C00FAD7300EEEEC11F080B637EF0DF039EF0F
:101A6C000DF047EF0DF0030E0F6E8A0E0E6E560E34
:101A7C00E82EFED70E2EFCD70F2EFAD7310EEEEC39
:101A8C0011F082B04CEF0DF04EEF0DF05CEF0DF05D
:101A9C00030E0F6E8A0E0E6E560EE82EFED70E2E0D
:101AAC00FCD70F2EFAD7320EEEEC11F080B061EFAE
:101ABC000DF063EF0DF071EF0DF0030E0F6E8A0E4B
:101ACC000E6E560EE82EFED70E2EFCD70F2EFAD722
:101ADC00330EEEEC11F080B276EF0DF078EF0DF0E6
:101AEC00D3EF01F0030E0F6E8A0E0E6E560EE82E1B
:101AFC00FED70E2EFCD70F2EFAD7340EEEEC11F0CB
:101B0C00D3EF01F03BEF01F080B28FEF0DF091EFCE
:101B1C000DF0C1EF0DF080A096EF0DF098EF0DF0E9
:101B2C00C1EF0DF082A09DEF0DF09FEF0DF0C1EF16
:101B3C000DF080A6A4EF0DF0A6EF0DF0C1EF0DF0A7
:101B4C0080A4ABEF0DF0ADEF0DF0C1EF0DF0740E06
:101B5C00086E000E0A6E500E096E650EDBEC10F06E
:101B6C00660E086E000E0A6E500E096E640EDBECEB
:101B7C0010F07BEF0FF080A2C6EF0DF0C8EF0DF068
:101B8C00F8EF0DF080A0CDEF0DF0CFEF0DF0F8EFEA
:101B9C000DF082B0D4EF0DF0D6EF0DF0F8EF0DF0A4
:101BAC0080A6DBEF0DF0DDEF0DF0F8EF0DF080A46B
:101BBC00E2EF0DF0E4EF0DF0F8EF0DF0660E086EAD
:101BCC00000E0A6E500E096E650EDBEC10F0660E00
:101BDC00086E000E0A6E500E096E640EDBEC10F0EF
:101BEC007BEF0FF080A2FDEF0DF0FFEF0DF02FEF6C
:101BFC000EF080B004EF0EF006EF0EF02FEF0EF0AB
:101C0C0082A00BEF0EF00DEF0EF02FEF0EF080B662
:101C1C0012EF0EF014EF0EF02FEF0EF080A419EF70
:101C2C000EF01BEF0EF02FEF0EF0660E086E000E8E
:101C3C000A6E500E096E650EDBEC10F0660E086E27
:101C4C00000E0A6E500E096E640EDBEC10F07BEF8A
:101C5C000FF080A234EF0EF036EF0EF066EF0EF0C0
:101C6C0080B03BEF0EF03DEF0EF066EF0EF082B061
:101C7C0042EF0EF044EF0EF066EF0EF080B649EF37
:101C8C000EF04BEF0EF066EF0EF080A450EF0EF05E
:101C9C0052EF0EF066EF0EF0660E086E000E0A6E36
:101CAC00500E096E640EDBEC10F0660E086E000E22
:101CBC000A6E500E096E650EDBEC10F07BEF0FF028
:101CCC0080A26BEF0EF06DEF0EF09DEF0EF080A08A
:101CDC0072EF0EF074EF0EF09DEF0EF082A079EF24
:101CEC000EF07BEF0EF09DEF0EF080B680EF0EF055
:101CFC0082EF0EF09DEF0EF080A487EF0EF089EFCF
:101D0C000EF09DEF0EF0660E086E000E0A6E500E71
:101D1C00096E650EDBEC10F0740E086E000E0A6E88
:101D2C00500E096E640EDBEC10F07BEF0FF080A20E
:101D3C00A2EF0EF0A4EF0EF0D4EF0EF080A0A9EFFE
:101D4C000EF0ABEF0EF0D4EF0EF082B0B0EF0EF061
:101D5C00B2EF0EF0D4EF0EF080B6B7EF0EF0B9EF95
:101D6C000EF0D4EF0EF080A4BEEF0EF0C0EF0EF02C
:101D7C00D4EF0EF0660E086E000E0A6E500E096E51
:101D8C00650EDBEC10F0740E086E000E0A6E500E31
:101D9C00096E640EDBEC10F07BEF0FF080A2D9EF34
:101DAC000EF0DBEF0EF00BEF0FF080B0E0EF0EF06B
:101DBC00E2EF0EF00BEF0FF082A0E7EF0EF0E9EF81
:101DCC000EF00BEF0FF080A6EEEF0EF0F0EF0EF032
:101DDC000BEF0FF080A4F5EF0EF0F7EF0EF00BEF1A
:101DEC000FF0740E086E000E0A6E500E096E650E22
:101DFC00DBEC10F0660E086E000E0A6E500E096ECB
:101E0C00640EDBEC10F07BEF0FF080A210EF0FF004
:101E1C0012EF0FF042EF0FF080B017EF0FF019EF49
:101E2C000FF042EF0FF082B01EEF0FF020EF0FF02B
:101E3C0042EF0FF080A625EF0FF027EF0FF042EFE7
:101E4C000FF080A42CEF0FF02EEF0FF042EF0FF0FD
:101E5C00740E086E000E0A6E500E096E650EDBECE9
:101E6C0010F0660E086E000E0A6E500E096E640EAF
:101E7C00DBEC10F07BEF0FF080A247EF0FF049EF97
:101E8C000FF079EF0FF080A04EEF0FF050EF0FF046
:101E9C0079EF0FF082A055EF0FF057EF0FF079EFBD
:101EAC000FF080A65CEF0FF05EEF0FF079EF0FF004
:101EBC0080B463EF0FF065EF0FF079EF0FF0660E63
:101ECC00086E000E0A6E500E096E650EDBEC10F0FB
:101EDC00740E086E000E0A6E500E096E640EDBEC6A
:101EEC0010F07BEF0FF0A6EC11F0120082A681EF40
:101EFC000FF083EF0FF09EEF0FF082A888EF0FF03A
:101F0C008AEF0FF09EEF0FF0660E086E000E0A6E51
:101F1C00460E096E640EDBEC10F0660E086E000EB9
:101F2C000A6E460E096E650EDBEC10F037EF10F002
:101F3C0082A6A3EF0FF0A5EF0FF0CBEF0FF082B856
:101F4C00AAEF0FF0ACEF0FF0CBEF0FF0660E086EB0
:101F5C00000E0A6E460E096E640EDBEC10F0740E69
:101F6C00086E000E0A6E460E096E650EDBEC10F064
:101F7C00030E0D6E8A0E0C6E560EE82EFED70C2E2E
:101F8C00FCD70D2EFAD737EF10F082B6D0EF0FF04A
:101F9C00D2EF0FF0EDEF0FF082A8D7EF0FF0D9EFE3
:101FAC000FF0EDEF0FF0740E086E000E0A6E460E79
:101FBC00096E640EDBEC10F0660E086E000E0A6EF5
:101FCC00460E096E650EDBEC10F0BEEF0FF082B61C
:101FDC00F2EF0FF0F4EF0FF037EF10F082B8F9EFEB
:101FEC000FF0FBEF0FF037EF10F0740E086E000ED1
:101FFC000A6E460E096E640EDBEC10F0740E086E61
:10200C00000E0A6E460E096E650EDBEC10F0020E29
:10201C000D6E450E0C6EAA0EE82EFED70C2EFCD7BC
:10202C000D2EFAD7A6EC11F0410E0C6EEE0EE82E2A
:10203C00FED70C2EFCD700F000F0660E086E000EDA
:10204C000A6E460E096E640EDBEC10F0740E086E10
:10205C00000E0A6E460E096E650EDBEC10F037EFC3
:10206C0010F0120082A63DEF10F03FEF10F04AEF97
:10207C0010F082A844EF10F046EF10F04AEF10F089
:10208C008AEC0DF0DAEF10F082B64FEF10F051EF52
:10209C0010F06CEF10F082A856EF10F058EF10F023
:1020AC006CEF10F0660E086E000E0A6E3C0E096E98
:1020BC00640EDBEC10F0740E086E000E0A6E3C0E13
:1020CC00096E650EDBEC10F0DAEF10F082A671EF02
:1020DC0010F073EF10F08EEF10F082B878EF10F074
:1020EC007AEF10F08EEF10F0740E086E000E0A6E80
:1020FC003C0E096E640EDBEC10F0660E086E000EE2
:10210C000A6E3C0E096E650EDBEC10F0DAEF10F087
:10211C0082B693EF10F095EF10F0DAEF10F082B872
:10212C009AEF10F09CEF10F0DAEF10F0740E086ECE
:10213C00000E0A6E3C0E096E640EDBEC10F0740E91
:10214C00086E000E0A6E3C0E096E650EDBEC10F08C
:10215C00020E0D6E450E0C6EAA0EE82EFED70C2E3E
:10216C00FCD70D2EFAD7A6EC11F0020E0D6E450E13
:10217C000C6EAA0EE82EFED70C2EFCD70D2EFAD71D
:10218C00740E086E000E0A6E3C0E096E640EDBECCB
:10219C0010F0660E086E000E0A6E3C0E096E650E8F
:1021AC00DBEC10F0DAEF10F012000B6E09C002F04D
:1021BC000AC003F0000E056E060E046E93EC11F0CF
:1021CC0002C009F003C00AF0650E0B18D8A4F1EF99
:1021DC0010F0F3EF10F01AEF11F0818C660E081866
:1021EC00D8A4FBEF10F0FDEF10F007EF11F009C0D1
:1021FC0075FF0A50746E000E776E000E766E48EF07
:10220C0011F0740E0818D8A40EEF11F010EF11F0A5
:10221C0048EF11F009C077FF0A50766E000E756E0C
:10222C00000E746E48EF11F0640E0B18D8A421EF59
:10223C0011F023EF11F048EF11F0818E660E0818A3
:10224C00D8A42BEF11F02DEF11F037EF11F009C0DE
:10225C0079FF0A50786E000E736E000E726E48EFA6
:10226C0011F0740E0818D8A43EEF11F040EF11F0E5
:10227C0048EF11F009C073FF0A50726E000E796EB0
:10228C00000E786E1200000E076E000E066E60EFE8
:10229C0011F006500224046E07500320056E04C092
:1022AC00F6FF05C0F7FF0800F5CFADFF00EC12F00C
:1022BC00064A072A06500224046E07500320056EB6
:1022CC0004C0F6FF05C0F7FF0800F5500009D8A4BC
:1022DC0072EF11F074EF11F04FEF11F00D0EAD6EB7
:1022EC0000EC12F01200000E7F6E800E7E6E5F0E00
:1022FC006F6E010E6E6E100E6D6E6B68000E6A6E58
:10230C00960E7B6E000E7A6E000E7D6E000E7C6E4D
:10231C00000E816E000E836E120002500402F3CF89
:10232C0006F0F4CF07F002500502F35007260350D5
:10233C000402F350072606C002F007C003F0120097
:10234C00000E786E000E796E000E766E000E776EB3
:10235C00000E746E000E756E000E726E000E736EB3
:10236C001200000E786E000E796E000E766E000E66
:10237C00776E000E746E000E756E000E726E000E8F
:10238C00736E120000EE16F0080EEE6AE806FDE120
:10239C001E901E92000EF86E030EF76E0001B6EF43
:1023AC0001F09268000E936E9468000E956E070E05
:1023BC00966E800EB86E010EB96E1200820EAF6E64
:1023CC00AC8AAC98AC84AB8EAB889E9A9D8A12007A
:1023DC00026E02C0ADFF00EC12F00D0EAD6E00EC03
:1023EC0012F01200CD8ECD9CCD88CD96CD94CD9291
:1023FC00CD901200ACA205EF12F007EF12F000EF37
:10240C0012F01200D59ED59CD59AD596D580F29413
:0A241C001200AECF01F001501200D3
:020000040020DA
:08000000FFFFFFFFFFFFFFFF00
:020000040030CA
:0E000000FFC20D3E3C1D81FF0FC00FE00F4000
:00000001FF
