:020000040000FA
:040000004BEF01F0D1
:1000080022829EAA0AEF00F00CEF00F049EF01F0FF
:100018009E9AABB412EF00F014EF00F01BEF00F063
:10002800ABA219EF00F01BEF00F01DEF00F0AB984A
:10003800AB884FEC13F04C0AD8A425EF00F027EF5B
:1000480000F02BEF00F04C0E1C6E030E1D6E4FECF3
:1000580013F0440AD8A433EF00F035EF00F039EF7D
:1000680000F0010E1C6E030E1D6E4FEC13F0540AC7
:10007800D8A441EF00F043EF00F04BEF00F0000E82
:10008800196E010E186E1D0E1C6E030E1D6E4FECC0
:1000980013F0410AD8A453EF00F055EF00F05DEFDC
:1000A80000F0000E196E010E186E640E1C6E030E21
:1000B8001D6E4FEC13F0460AD8A465EF00F067EF09
:1000C80000F06FEF00F0000E196E010E186E0B0EA7
:1000D8001C6E030E1D6E4FEC13F0450AD8A477EF83
:1000E80000F079EF00F081EF00F0000E196E010EBC
:1000F800186E260E1C6E030E1D6E4FEC13F05A0A76
:10010800D8A489EF00F08BEF00F08FEF00F0450ED8
:100118001C6E030E1D6E4FEC13F0520AD8A497EF15
:1001280000F099EF00F09DEF00F0520E1C6E030EE8
:100138001D6E4FEC13F0580AD8A4A5EF00F0A7EFF6
:1001480000F0ABEF00F06E0E1C6E030E1D6E4FEC50
:1001580013F0590AD8A4B3EF00F0B5EF00F0B9EFE7
:1001680000F0710E1C6E030E1D6E4FEC13F0640A46
:10017800D8A4C1EF00F0C3EF00F0C7EF00F02E0ED7
:100188001C6E030E1D6E4FEC13F0650AD8A4CFEF5A
:1001980000F0D1EF00F0D5EF00F0140E1C6E030E46
:1001A8001D6E4FEC13F0660AD8A4DDEF00F0DFEF08
:1001B80000F0E3EF00F03E0E1C6E030E1D6E4FECD8
:1001C80013F0740AD8A4EBEF00F0EDEF00F0F1EFB4
:1001D80000F0690E1C6E030E1D6E4FEC13F06D0AD5
:1001E800D8A4F9EF00F0FBEF00F0FFEF00F05E0E8F
:1001F8001C6E030E1D6E4FEC13F02B0AD8A407EFEC
:1002080001F009EF01F01CEF01F03C0E1A26000E78
:100218001B22580E1A5C020E1B58D8A016EF01F0CC
:1002280018EF01F01CEF01F0000E1B6E3C0E1A6E69
:100238004FEC13F02D0AD8A424EF01F026EF01F0BB
:1002480039EF01F03C0E1A5E000E1B5A1B5007E1F5
:100258003C0E1A5CD8B033EF01F035EF01F039EFFE
:1002680001F0010E1B6E2C0E1A6E4FEC13F0500AA3
:10027800D8A441EF01F043EF01F049EF01F006EC9B
:1002880013F0580E1C6E030E1D6E22921100ADEF76
:0202980012F062
:100300000064697374616E63696100664573747239
:10031000656C6100657371756572646F00746F71EF
:1003200075696E686F0065737472656C61006469ED
:10033000726569746F00436F6D65636F75006672F7
:10034000656E7465007A69677A6167006C696E68CA
:1003500061007465737465007061726172006D6F25
:10036000746F72006172636F00747261730067640E
:07037000006765002000009A
:1003780017EC13F024EC13F0C8EC12F048EC13F06F
:1003880038EC13F0F28EF28C839083821850191097
:10039800D8B4D1EF01F0D3EF01F0CAEF01F0360E77
:1003A800026E030E036E7DEC12F07F0E116ED40EFA
:1003B800106E320EE82EFED7102EFCD7112EFAD76B
:1003C8004C0E1C1807E1030E1D18D8A4EEEF01F01F
:1003D800F0EF01F000EF02F0F9EC0FF0580E1C18E6
:1003E80007E1030E1D18D8A4FCEF01F0FEEF01F0A1
:1003F800F0EF01F0F5EC12F0010E1C1807E1030E06
:100408001D18D8A40AEF02F00CEF02F01CEF02F05E
:10041800F3EC0DF0580E1C1807E1030E1D18D8A4B4
:1004280018EF02F01AEF02F00CEF02F0F5EC12F000
:10043800640E1C1807E1030E1D18D8A426EF02F05D
:1004480028EF02F0A1EF04F0D58E780ED66EF80EE4
:10045800D76E000E126E98EF04F082A836EF02F005
:1004680038EF02F03FEF02F082B63DEF02F03FEFC7
:1004780002F043EF02F06CEC11F07BEF04F080A285
:1004880048EF02F04AEF02F07AEF02F080A84FEF4F
:1004980002F051EF02F07AEF02F082A056EF02F07C
:1004A80058EF02F07AEF02F080A65DEF02F05FEFFE
:1004B80002F07AEF02F080A464EF02F066EF02F037
:1004C8007AEF02F0660E086E000E0A6E320E096EA2
:1004D800640E0FEC12F0660E086E000E0A6E410EE6
:1004E800096E650E0FEC12F07BEF04F080B27FEF1F
:1004F80002F081EF02F0B1EF02F080A886EF02F07F
:1005080088EF02F0B1EF02F082A08DEF02F08FEFDA
:1005180002F0B1EF02F080A694EF02F096EF02F03D
:10052800B1EF02F080A49BEF02F09DEF02F0B1EF73
:1005380002F0740E086E000E0A6E3C0E096E650E0F
:100548000FEC12F0660E086E000E0A6E3C0E096E75
:10055800640E0FEC12F07BEF04F080A2B6EF02F00D
:10056800B8EF02F0E8EF02F080A8BDEF02F0BFEFAD
:1005780002F0E8EF02F082B0C4EF02F0C6EF02F03A
:10058800E8EF02F080A6CBEF02F0CDEF02F0E8EF43
:1005980002F080A4D2EF02F0D4EF02F0E8EF02F00C
:1005A800660E086E000E0A6E3C0E096E650E0FECA4
:1005B80012F0660E086E000E0A6E3C0E096E640E8E
:1005C8000FEC12F07BEF04F080A2EDEF02F0EFEFFA
:1005D80002F01FEF03F080B8F4EF02F0F6EF02F03C
:1005E8001FEF03F082A0FBEF02F0FDEF02F01FEF18
:1005F80003F080B602EF03F004EF03F01FEF03F0FF
:1006080080A409EF03F00BEF03F01FEF03F0660E71
:10061800086E000E0A6E3C0E096E650E0FEC12F0A5
:10062800660E086E000E0A6E3C0E096E640E0FEC24
:1006380012F07BEF04F080A224EF03F026EF03F022
:1006480056EF03F080A82BEF03F02DEF03F056EFE1
:1006580003F082A032EF03F034EF03F056EF03F01B
:1006680080B639EF03F03BEF03F056EF03F080A4B8
:1006780040EF03F042EF03F056EF03F0660E086E0A
:10068800000E0A6E3C0E096E650E0FEC12F0740E29
:10069800086E000E0A6E3C0E096E640E0FEC12F026
:1006A8007BEF04F080A25BEF03F05DEF03F08DEFCA
:1006B80003F080A862EF03F064EF03F08DEF03F01E
:1006C80082B069EF03F06BEF03F08DEF03F080B6B3
:1006D80070EF03F072EF03F08DEF03F080A477EF73
:1006E80003F079EF03F08DEF03F0660E086E000E4D
:1006F8000A6E3C0E096E650E0FEC12F0740E086E51
:10070800000E0A6E3C0E096E640E0FEC12F07BEFC1
:1007180004F080A292EF03F094EF03F0C4EF03F02B
:1007280080B899EF03F09BEF03F0C4EF03F082A0C9
:10073800A0EF03F0A2EF03F0C4EF03F080A6A7EF49
:1007480003F0A9EF03F0C4EF03F080A4AEEF03F0C9
:10075800B0EF03F0C4EF03F0740E086E000E0A6EDB
:100768003C0E096E650E0FEC12F0660E086E000E58
:100778000A6E3C0E096E640E0FEC12F07BEF04F06B
:1007880080A2C9EF03F0CBEF03F0FBEF03F080B8D2
:10079800D0EF03F0D2EF03F0FBEF03F082B0D7EF16
:1007A80003F0D9EF03F0FBEF03F080A6DEEF03F0D0
:1007B800E0EF03F0FBEF03F080A4E5EF03F0E7EFD1
:1007C80003F0FBEF03F0740E086E000E0A6E3C0E89
:1007D800096E650E0FEC12F0660E086E000E0A6EBA
:1007E8003C0E096E640E0FEC12F07BEF04F080A251
:1007F80000EF04F002EF04F032EF04F080A807EFF6
:1008080004F009EF04F032EF04F082A00EEF04F0D8
:1008180010EF04F032EF04F080A615EF04F017EFA4
:1008280004F032EF04F080B41CEF04F01EEF04F083
:1008380032EF04F0660E086E000E0A6E3C0E096E6A
:10084800650E0FEC12F0740E086E000E0A6E3C0E68
:10085800096E640E0FEC12F07BEF04F080A237EF04
:1008680004F039EF04F069EF04F080B83EEF04F0CB
:1008780040EF04F069EF04F082B045EF04F047EF71
:1008880004F069EF04F080B64CEF04F04EEF04F08A
:1008980069EF04F080A453EF04F055EF04F069EF1A
:1008A80004F0660E086E000E0A6E3C0E096E640EA9
:1008B8000FEC12F0660E086E000E0A6E3C0E096E02
:1008C800650E0FEC12F07BEF04F0660E086E000E5A
:1008D8000A6E3C0E096E640E0FEC12F0660E086E7E
:1008E800000E0A6E5A0E096E650E0FEC12F0F2A495
:1008F80080EF04F082EF04F088EF04F0F294780EB1
:10090800D66EF80ED76E122A580E1C1807E1030E81
:100918001D18D8A492EF04F094EF04F098EF04F0B7
:10092800F5EC12F0A0EF04F0630E12649EEF04F0F1
:10093800A0EF04F031EF02F0D59E1D0E1C1807E160
:10094800030E1D18D8A4ABEF04F0ADEF04F00CEFC4
:1009580007F0CD80DE0ECE6E0B0ECF6E000E166E3B
:10096800000E156E000E146E03EF07F09EA0BFEF89
:1009780004F0C1EF04F0C8EF04F09E90DE0ECE6ED6
:100988000B0ECF6E144A152A15BED6EF04F015507B
:1009980007E10A0E145CD8B0D4EF04F0D6EF04F0E7
:1009A800EAEF06F080B2DBEF04F0DDEF04F00DEFC4
:1009B80005F080A8E2EF04F0E4EF04F00DEF05F095
:1009C80082A0E9EF04F0EBEF04F00DEF05F080A64C
:1009D800F0EF04F0F2EF04F00DEF05F080A4F7EF6C
:1009E80004F0F9EF04F00DEF05F0740E086E000E38
:1009F8000A6E3C0E096E650E0FEC12F0660E086E5C
:100A0800000E0A6E3C0E096E640E0FEC12F0F3EF46
:100A180006F080A212EF05F014EF05F044EF05F0A0
:100A280080A819EF05F01BEF05F044EF05F082B040
:100A380020EF05F022EF05F044EF05F080A627EF40
:100A480005F029EF05F044EF05F080A42EEF05F03E
:100A580030EF05F044EF05F0660E086E000E0A6EE2
:100A68003C0E096E650E0FEC12F0660E086E000E55
:100A78000A6E3C0E096E640E0FEC12F0F3EF06F0EE
:100A880080A249EF05F04BEF05F07BEF05F080B849
:100A980050EF05F052EF05F07BEF05F082A057EF1D
:100AA80005F059EF05F07BEF05F080B65EEF05F035
:100AB80060EF05F07BEF05F080A465EF05F067EFC8
:100AC80005F07BEF05F0660E086E000E0A6E3C0E10
:100AD800096E650E0FEC12F0660E086E000E0A6EB7
:100AE8003C0E096E640E0FEC12F0F3EF06F080A2D4
:100AF80080EF05F082EF05F0B2EF05F080A887EFF0
:100B080005F089EF05F0B2EF05F082A08EEF05F051
:100B180090EF05F0B2EF05F080B695EF05F097EF8E
:100B280005F0B2EF05F080A49CEF05F09EEF05F00C
:100B3800B2EF05F0660E086E000E0A6E3C0E096EE6
:100B4800650E0FEC12F0740E086E000E0A6E3C0E65
:100B5800096E640E0FEC12F0F3EF06F080A2B7EF07
:100B680005F0B9EF05F0E9EF05F080A8BEEF05F054
:100B7800C0EF05F0E9EF05F082B0C5EF05F0C7EF6B
:100B880005F0E9EF05F080B6CCEF05F0CEEF05F003
:100B9800E9EF05F080A4D3EF05F0D5EF05F0E9EF14
:100BA80005F0660E086E000E0A6E3C0E096E650EA4
:100BB8000FEC12F0740E086E000E0A6E3C0E096EF1
:100BC800640E0FEC12F0F3EF06F080A2EEEF05F0E2
:100BD800F0EF05F020EF06F080B8F5EF05F0F7EF3D
:100BE80005F020EF06F082A0FCEF05F0FEEF05F01F
:100BF80020EF06F080A603EF06F005EF06F020EFE1
:100C080006F080A40AEF06F00CEF06F020EF06F0DD
:100C1800740E086E000E0A6E3C0E096E650E0FEC1F
:100C280012F0660E086E000E0A6E3C0E096E640E17
:100C38000FEC12F0F3EF06F080A225EF06F027EF95
:100C480006F057EF06F080B82CEF06F02EEF06F00E
:100C580057EF06F082B033EF06F035EF06F057EFA6
:100C680006F080A63AEF06F03CEF06F057EF06F0E4
:100C780080A441EF06F043EF06F057EF06F0740E3C
:100C8800086E000E0A6E3C0E096E650E0FEC12F02F
:100C9800660E086E000E0A6E3C0E096E640E0FECAE
:100CA80012F0F3EF06F080A25CEF06F05EEF06F0BC
:100CB8008EEF06F080A863EF06F065EF06F08EEF82
:100CC80006F082A06AEF06F06CEF06F08EEF06F0F1
:100CD80080A671EF06F073EF06F08EEF06F080B491
:100CE80078EF06F07AEF06F08EEF06F0660E086EE3
:100CF800000E0A6E3C0E096E650E0FEC12F0740EB3
:100D0800086E000E0A6E3C0E096E640E0FEC12F0AF
:100D1800F3EF06F080A293EF06F095EF06F0C5EF2B
:100D280006F080B89AEF06F09CEF06F0C5EF06F0E3
:100D380082B0A1EF06F0A3EF06F0C5EF06F080B68B
:100D4800A8EF06F0AAEF06F0C5EF06F080A4AFEF13
:100D580006F0B1EF06F0C5EF06F0660E086E000E5D
:100D68000A6E3C0E096E640E0FEC12F0660E086EE9
:100D7800000E0A6E3C0E096E650E0FEC12F0F3EFD2
:100D880006F015BED2EF06F0155006E11404D8B0EF
:100D9800D0EF06F0D2EF06F0E6EF06F0660E086E2A
:100DA800000E0A6E3C0E096E640E0FEC12F0660E11
:100DB800086E000E0A6E3C0E096E650E0FEC12F0FE
:100DC800F3EF06F0F5EC12F0F3EF06F0000E156EF7
:100DD800000E146E162A1650300F2EEC13F0580E13
:100DE8001C1807E1030E1D18D8A4FDEF06F0FFEF4D
:100DF80006F003EF07F0F5EC12F00BEF07F0090E21
:100E0800166409EF07F00BEF07F0BAEF04F0CD9086
:100E1800260E1C1807E1030E1D18D8A416EF07F0BC
:100E280018EF07F028EF07F0C0EC10F0580E1C1868
:100E380007E1030E1D18D8A424EF07F026EF07F0EA
:100E480018EF07F0F5EC12F00B0E1C1807E1030E73
:100E58001D18D8A432EF07F034EF07F06EEF07F053
:100E680020042110D8A43BEF07F03DEF07F05EEF18
:100E780007F0660E086E000E0A6E3C0E096E640ED0
:100E88000FEC12F0660E086E000E0A6E3C0E096E2C
:100E9800650E0FEC12F0020E116E450E106EAA0EC2
:100EA800E82EFED7102EFCD7112EFAD7000E216E91
:100EB800000E206EC0EC10F0580E1C1807E1030E4F
:100EC8001D18D8A46AEF07F06CEF07F034EF07F0AD
:100ED800F5EC12F0450E1C1807E1030E1D18D8A4F6
:100EE80078EF07F07AEF07F0D1EF0BF0000E136EF2
:100EF800000E176E660E086E000E0A6E3C0E096E26
:100F0800640E0FEC12F0740E086E000E0A6E3C0EA2
:100F1800096E650E0FEC12F0020E116EC70E106E00
:100F2800880EE82EFED7102EFCD7112EFAD700F027
:100F380000F0CD80DE0ECE6E0B0ECF6EC4EF0BF040
:100F48009EA0A9EF07F0ABEF07F0B1EF07F09E9076
:100F5800DE0ECE6E0B0ECF6E172A80B2B6EF07F0FC
:100F6800B8EF07F0E8EF07F080A8BDEF07F0BFEF94
:100F780007F0E8EF07F082A0C4EF07F0C6EF07F02C
:100F8800E8EF07F080A6CBEF07F0CDEF07F0E8EF2A
:100F980007F080A4D2EF07F0D4EF07F0E8EF07F0EE
:100FA800740E086E000E0A6E3C0E096E650E0FEC8C
:100FB80012F0660E086E000E0A6E3C0E096E640E84
:100FC8000FEC12F0B2EF09F080A2EDEF07F0EFEFAF
:100FD80007F01FEF08F080A8F4EF07F0F6EF07F02E
:100FE8001FEF08F082B0FBEF07F0FDEF07F01FEFEF
:100FF80008F080A602EF08F004EF08F01FEF08F0F1
:1010080080A409EF08F00BEF08F01FEF08F0660E58
:10101800086E000E0A6E3C0E096E650E0FEC12F09B
:10102800660E086E000E0A6E3C0E096E640E0FEC1A
:1010380012F0B2EF09F080A224EF08F026EF08F0D2
:1010480056EF08F080B82BEF08F02DEF08F056EFB8
:1010580008F082A032EF08F034EF08F056EF08F0FD
:1010680080B639EF08F03BEF08F056EF08F080A49F
:1010780040EF08F042EF08F056EF08F0660E086EF1
:10108800000E0A6E3C0E096E650E0FEC12F0660E2D
:10109800086E000E0A6E3C0E096E640E0FEC12F01C
:1010A800B2EF09F080A25BEF08F05DEF08F08DEF7A
:1010B80008F080A862EF08F064EF08F08DEF08F000
:1010C80082A069EF08F06BEF08F08DEF08F080B6AA
:1010D80070EF08F072EF08F08DEF08F080A477EF5A
:1010E80008F079EF08F08DEF08F0660E086E000E34
:1010F8000A6E3C0E096E650E0FEC12F0740E086E47
:10110800000E0A6E3C0E096E640E0FEC12F0B2EF80
:1011180009F080A292EF08F094EF08F0C4EF08F00D
:1011280080A899EF08F09BEF08F0C4EF08F082B0B0
:10113800A0EF08F0A2EF08F0C4EF08F080B6A7EF20
:1011480008F0A9EF08F0C4EF08F080A4AEEF08F0AB
:10115800B0EF08F0C4EF08F0660E086E000E0A6ED5
:101168003C0E096E650E0FEC12F0740E086E000E40
:101178000A6E3C0E096E640E0FEC12F0B2EF09F025
:1011880080A2C9EF08F0CBEF08F0FBEF08F080B8B9
:10119800D0EF08F0D2EF08F0FBEF08F082A0D7EF0D
:1011A80008F0D9EF08F0FBEF08F080A6DEEF08F0B2
:1011B800E0EF08F0FBEF08F080A4E5EF08F0E7EFB8
:1011C80008F0FBEF08F0740E086E000E0A6E3C0E75
:1011D800096E650E0FEC12F0660E086E000E0A6EB0
:1011E8003C0E096E640E0FEC12F0B2EF09F080A20B
:1011F80000EF09F002EF09F032EF09F080B807EFCD
:1012080009F009EF09F032EF09F082B00EEF09F0AA
:1012180010EF09F032EF09F080A615EF09F017EF8B
:1012280009F032EF09F080A41CEF09F01EEF09F075
:1012380032EF09F0740E086E000E0A6E3C0E096E4D
:10124800650E0FEC12F0660E086E000E0A6E3C0E6C
:10125800096E640E0FEC12F0B2EF09F080A237EFBE
:1012680009F039EF09F069EF09F080A83EEF09F0BD
:1012780040EF09F069EF09F082A045EF09F047EF68
:1012880009F069EF09F080A64CEF09F04EEF09F07C
:1012980069EF09F080B453EF09F055EF09F069EFF1
:1012A80009F0660E086E000E0A6E3C0E096E650E99
:1012B8000FEC12F0740E086E000E0A6E3C0E096EEA
:1012C800640E0FEC12F0B2EF09F080A26EEF09F095
:1012D80070EF09F0A0EF09F080B875EF09F077EF2B
:1012E80009F0A0EF09F082B07CEF09F07EEF09F079
:1012F800A0EF09F080B683EF09F085EF09F0A0EFC1
:1013080009F080A48AEF09F08CEF09F0A0EF09F04A
:10131800660E086E000E0A6E3C0E096E640E0FEC27
:1013280012F0660E086E000E0A6E3C0E096E650E0F
:101338000FEC12F0B2EF09F0660E086E000E0A6E9E
:101348003C0E096E640E0FEC12F0660E086E000E6D
:101358000A6E3C0E096E650E0FEC12F0180E17643B
:10136800B8EF09F0BAEF09F0A4EF07F0000E176E16
:10137800F5EC12F0410E106EEE0EE82EFED7102E90
:10138800FCD700F000F0A0EF0BF09EA0CEEF09F024
:10139800D0EF09F0D6EF09F09E90DE0ECE6E0B0E60
:1013A800CF6E172A80B2DBEF09F0DDEF09F00DEF01
:1013B8000AF080A8E2EF09F0E4EF09F00DEF0AF077
:1013C80082A0E9EF09F0EBEF09F00DEF0AF080A633
:1013D800F0EF09F0F2EF09F00DEF0AF080A4F7EF53
:1013E80009F0F9EF09F00DEF0AF0740E086E000E1F
:1013F8000A6E3C0E096E650E0FEC12F0660E086E52
:10140800000E0A6E3C0E096E640E0FEC12F0A0EF8F
:101418000BF080A212EF0AF014EF0AF044EF0AF082
:1014280080A819EF0AF01BEF0AF044EF0AF082B027
:1014380020EF0AF022EF0AF044EF0AF080A627EF27
:101448000AF029EF0AF044EF0AF080A42EEF0AF020
:1014580030EF0AF044EF0AF0660E086E000E0A6ECE
:101468003C0E096E650E0FEC12F0660E086E000E4B
:101478000A6E3C0E096E640E0FEC12F0A0EF0BF032
:1014880080A249EF0AF04BEF0AF07BEF0AF080B830
:1014980050EF0AF052EF0AF07BEF0AF082A057EF04
:1014A8000AF059EF0AF07BEF0AF080B65EEF0AF017
:1014B80060EF0AF07BEF0AF080A465EF0AF067EFAF
:1014C8000AF07BEF0AF0660E086E000E0A6E3C0EFC
:1014D800096E650E0FEC12F0660E086E000E0A6EAD
:1014E8003C0E096E640E0FEC12F0A0EF0BF080A218
:1014F80080EF0AF082EF0AF0B2EF0AF080A887EFD7
:101508000AF089EF0AF0B2EF0AF082A08EEF0AF033
:1015180090EF0AF0B2EF0AF080B695EF0AF097EF75
:101528000AF0B2EF0AF080A49CEF0AF09EEF0AF0EE
:10153800B2EF0AF0660E086E000E0A6E3C0E096ED7
:10154800650E0FEC12F0740E086E000E0A6E3C0E5B
:10155800096E640E0FEC12F0A0EF0BF080A2B7EF4B
:101568000AF0B9EF0AF0E9EF0AF080A8BEEF0AF036
:10157800C0EF0AF0E9EF0AF082B0C5EF0AF0C7EF52
:101588000AF0E9EF0AF080B6CCEF0AF0CEEF0AF0E5
:10159800E9EF0AF080A4D3EF0AF0D5EF0AF0E9EFFB
:1015A8000AF0660E086E000E0A6E3C0E096E650E95
:1015B8000FEC12F0740E086E000E0A6E3C0E096EE7
:1015C800640E0FEC12F0A0EF0BF080A2EEEF0AF021
:1015D800F0EF0AF020EF0BF080B8F5EF0AF0F7EF24
:1015E8000AF020EF0BF082A0FCEF0AF0FEEF0AF001
:1015F80020EF0BF080A603EF0BF005EF0BF020EFC8
:101608000BF080A40AEF0BF00CEF0BF020EF0BF0BF
:10161800740E086E000E0A6E3C0E096E650E0FEC15
:1016280012F0660E086E000E0A6E3C0E096E640E0D
:101638000FEC12F0A0EF0BF080A225EF0BF027EFD4
:101648000BF057EF0BF080B82CEF0BF02EEF0BF0F0
:1016580057EF0BF082B033EF0BF035EF0BF057EF8D
:101668000BF080A63AEF0BF03CEF0BF057EF0BF0C6
:1016780080A441EF0BF043EF0BF057EF0BF0740E23
:10168800086E000E0A6E3C0E096E650E0FEC12F025
:10169800660E086E000E0A6E3C0E096E640E0FECA4
:1016A80012F0A0EF0BF080A25CEF0BF05EEF0BF0F6
:1016B8008EEF0BF080A863EF0BF065EF0BF08EEF69
:1016C8000BF082A06AEF0BF06CEF0BF08EEF0BF0D3
:1016D80080A671EF0BF073EF0BF08EEF0BF080B478
:1016E80078EF0BF07AEF0BF08EEF0BF0660E086ECA
:1016F800000E0A6E3C0E096E650E0FEC12F0740EA9
:10170800086E000E0A6E3C0E096E640E0FEC12F0A5
:10171800A0EF0BF0740E086E000E0A6E3C0E096EF8
:10172800640E0FEC12F0660E086E000E0A6E3C0E88
:10173800096E650E0FEC12F0060E1764A6EF0BF09B
:10174800A8EF0BF0C9EF09F0F5EC12F0410E106E9E
:10175800EE0EE82EFED7102EFCD700F000F0580E43
:101768001C1807E1030E1D18D8A4BDEF0BF0BFEF3E
:101778000BF0C3EF0BF0F5EC12F0CCEF0BF0132AE3
:101788000B0E1364CAEF0BF0CCEF0BF0B2EF09F0BD
:10179800CD90740E1C6E030E1D6E140E1C1807E1FE
:1017A800030E1D18D8A4DBEF0BF0DDEF0BF018EFDC
:1017B8000CF0000E1B6E3C0E1A6E818E690E1C1802
:1017C80007E1030E1D18D8A4ECEF0BF0EEEF0BF0B9
:1017D800F8EF0BF0000E776E000E766E1AC075FFEC
:1017E8001B50746E0CEF0CF03E0E1C1807E1030E34
:1017F8001D18D8A402EF0CF004EF0CF00CEF0CF05D
:101808001AC077FF1B50766E000E756E000E746E50
:10181800580E1C1807E1030E1D18D8A416EF0CF07B
:1018280018EF0CF0E2EF0BF02E0E1C1807E1030E78
:101838001D18D8A422EF0CF024EF0CF05FEF0CF089
:10184800000E1B6E3C0E1A6E818C3E0E1C1807E1B2
:10185800030E1D18D8A433EF0CF035EF0CF03FEF52
:101868000CF01AC079FF1B50786E000E736E000ED4
:10187800726E53EF0CF0690E1C1807E1030E1D1869
:10188800D8A449EF0CF04BEF0CF053EF0CF0000E1E
:10189800796E000E786E1AC073FF1B50726E580E68
:1018A8001C1807E1030E1D18D8A45DEF0CF05FEFBC
:1018B8000CF029EF0CF05E0E1C1807E1030E1D1842
:1018C800D8A469EF0CF06BEF0CF0B9EF0CF0000E38
:1018D8001B6E3C0E1A6E818C818E3E0E1C1807E121
:1018E800030E1D18D8A47BEF0CF07DEF0CF08FEFE2
:1018F8000CF01AC079FF1B50786E000E736E000E44
:10190800726E1AC077FF1B50766E000E756E000E51
:10191800746EABEF0CF0690E1C1807E1030E1D186E
:10192800D8A499EF0CF09BEF0CF0ABEF0CF0000E85
:10193800796E000E786E1AC073FF1B50726E000E1F
:10194800776E000E766E1AC075FF1B50746E580EB7
:101958001C1807E1030E1D18D8A4B5EF0CF0B7EF5B
:101968000CF071EF0CF0F5EC12F0520E1C1807E1B8
:10197800030E1D18D8A4C3EF0CF0C5EF0CF028EF28
:101988000DF0818E818C660E086E000E0A6E500E68
:10199800096E640E0FEC12F0660E086E000E0A6EE9
:1019A800500E096E650E0FEC12F00D0E116EAF0E93
:1019B800106EB60EE82EFED7102EFCD7112EFAD7D1
:1019C80000F000F0660E086E000E0A6E000E096E3A
:1019D800640E0FEC12F0660E086E000E0A6E000E12
:1019E800096E650E0FEC12F0330E116EBB0E106E01
:1019F800E00EE82EFED7102EFCD7112EFAD7740E63
:101A0800086E000E0A6E500E096E640E0FEC12F08E
:101A1800740E086E000E0A6E500E096E650E0FECFD
:101A280012F00D0E116EAF0E106EB60EE82EFED728
:101A3800102EFCD7112EFAD700F000F0F5EC12F0BA
:101A4800200E1C6E000E1D6E6E0E1C1807E1030E94
:101A58001D18D8A432EF0DF034EF0DF057EF0DF04C
:101A6800660E086E000E0A6E3C0E096E650E0FECCF
:101A780012F0740E086E000E0A6E3C0E096E640EAB
:101A88000FEC12F0080E116E9D0E106E060EE82E69
:101A9800FED7102EFCD7112EFAD7F5EC12F0200E37
:101AA8001C6E000E1D6E710E1C1807E1030E1D182A
:101AB800D8A461EF0DF063EF0DF086EF0DF0740E12
:101AC800086E000E0A6E3C0E096E650E0FEC12F0E1
:101AD800660E086E000E0A6E3C0E096E640E0FEC60
:101AE80012F0080E116E9D0E106E060EE82EFED72F
:101AF800102EFCD7112EFAD7F5EC12F0200E1C6E22
:101B0800000E1D6E80B48BEF0DF08DEF0DF09BEF86
:101B18000DF0030E116E8A0E106E560EE82EFED7CB
:101B2800102EFCD7112EFAD7300E2EEC13F080B6FB
:101B3800A0EF0DF0A2EF0DF0B0EF0DF0030E116E57
:101B48008A0E106E560EE82EFED7102EFCD7112ED8
:101B5800FAD7310E2EEC13F082B0B5EF0DF0B7EFD7
:101B68000DF0C5EF0DF0030E116E8A0E106E560EB5
:101B7800E82EFED7102EFCD7112EFAD7320E2EECF7
:101B880013F080B8CAEF0DF0CCEF0DF0DAEF0DF0DE
:101B9800030E116E8A0E106E560EE82EFED7102E0A
:101BA800FCD7112EFAD7330E2EEC13F080B2DFEFEC
:101BB8000DF0E1EF0DF0E4EF01F0030E116E8A0E67
:101BC800106E560EE82EFED7102EFCD7112EFAD71F
:101BD800340E2EEC13F0E4EF01F04BEF01F0000EA1
:101BE8000D6E640E0C6E80B2FCEF0DF0FEEF0DF082
:101BF8002EEF0EF080A803EF0EF005EF0EF02EEF9B
:101C08000EF082A00AEF0EF00CEF0EF02EEF0EF0A1
:101C180080A611EF0EF013EF0EF02EEF0EF080A459
:101C280018EF0EF01AEF0EF02EEF0EF0740E086E8D
:101C3800000E0A6E3C0E096E650E0FEC12F0660E71
:101C4800086E000E0A6E3C0E096E640E0FEC12F060
:101C5800F8EF0FF080A233EF0EF035EF0EF065EFDE
:101C68000EF080A83AEF0EF03CEF0EF065EF0EF0A4
:101C780082B041EF0EF043EF0EF065EF0EF080A654
:101C880048EF0EF04AEF0EF065EF0EF080A44FEF2C
:101C98000EF051EF0EF065EF0EF0660E086E000EB6
:101CA8000A6E640E096E650E0FEC12F0660E086E71
:101CB800000E0A6E640E096E640E0FEC12F0F8EF57
:101CC8000FF080A26AEF0EF06CEF0EF09CEF0EF0B2
:101CD80080B871EF0EF073EF0EF09CEF0EF082A05B
:101CE80078EF0EF07AEF0EF09CEF0EF080B67FEFF3
:101CF8000EF081EF0EF09CEF0EF080A486EF0EF050
:101D080088EF0EF09CEF0EF0660E086E000E0A6E5D
:101D1800640E096E650E0FEC12F0660E086E000E6A
:101D28000A6E640E096E640E0FEC12F0F8EF0FF0F5
:101D380080A2A1EF0EF0A3EF0EF0D3EF0EF080B863
:101D4800A8EF0EF0AAEF0EF0D3EF0EF082B0AFEFCF
:101D58000EF0B1EF0EF0D3EF0EF080B6B6EF0EF046
:101D6800B8EF0EF0D3EF0EF080A4BDEF0EF0BFEF8A
:101D78000EF0D3EF0EF0660E086E000E0A6E640EBB
:101D8800096E640E0FEC12F0660E086E000E0A6EF5
:101D9800640E096E650E0FEC12F0F8EF0FF080A2DA
:101DA800D8EF0EF0DAEF0EF00AEF0FF080A8DFEFB1
:101DB8000EF0E1EF0EF00AEF0FF082A0E6EF0EF062
:101DC800E8EF0EF00AEF0FF080B6EDEF0EF0EFEF50
:101DD8000EF00AEF0FF080A4F4EF0EF0F6EF0EF01D
:101DE8000AEF0FF0660E086E000E0A6E3C0E096EC2
:101DF800650E0FEC12F0740E086E000E0A6E3C0EA3
:101E0800096E640E0FEC12F0F8EF0FF080A20FEFDE
:101E18000FF011EF0FF041EF0FF080A816EF0FF061
:101E280018EF0FF041EF0FF082B01DEF0FF01FEF2A
:101E38000FF041EF0FF080B624EF0FF026EF0FF010
:101E480041EF0FF080A42BEF0FF02DEF0FF041EFD3
:101E58000FF0660E086E000E0A6E3C0E096E650ED7
:101E68000FEC12F0740E086E000E0A6E3C0E096E2E
:101E7800640E0FEC12F0F8EF0FF080A246EF0FF0AF
:101E880048EF0FF078EF0FF080B84DEF0FF04FEFFD
:101E98000FF078EF0FF082A054EF0FF056EF0FF02D
:101EA80078EF0FF080A65BEF0FF05DEF0FF078EFA3
:101EB8000FF080A462EF0FF064EF0FF078EF0FF0EF
:101EC800740E086E000E0A6E3C0E096E650E0FEC5D
:101ED80012F0660E086E000E0A6E3C0E096E640E55
:101EE8000FEC12F0F8EF0FF080A27DEF0FF07FEF0C
:101EF8000FF0AFEF0FF080B884EF0FF086EF0FF020
:101F0800AFEF0FF082B08BEF0FF08DEF0FF0AFEF68
:101F18000FF080A692EF0FF094EF0FF0AFEF0FF0F5
:101F280080A499EF0FF09BEF0FF0AFEF0FF0740E56
:101F3800086E000E0A6E3C0E096E650E0FEC12F06C
:101F4800660E086E000E0A6E3C0E096E640E0FECEB
:101F580012F0F8EF0FF080A2B4EF0FF0B6EF0FF029
:101F6800E6EF0FF080A8BBEF0FF0BDEF0FF0E6EF44
:101F78000FF082A0C2EF0FF0C4EF0FF0E6EF0FF002
:101F880080A6C9EF0FF0CBEF0FF0E6EF0FF080B4AB
:101F9800D0EF0FF0D2EF0FF0E6EF0FF0660E086EFD
:101FA800000E0A6E3C0E096E650E0FEC12F0740EF0
:101FB800086E000E0A6E3C0E096E640E0FEC12F0ED
:101FC800F8EF0FF0660E086E000E0A6E3C0E096EF2
:101FD800640E0FEC12F0660E086E000E0A6E3C0ED0
:101FE800096E650E0FEC12F0120082A6FEEF0FF0DC
:101FF80000EF10F01BEF10F082A805EF10F007EFCC
:1020080010F01BEF10F0660E086E000E0A6E320E0E
:10201800096E640E0FEC12F0660E086E000E0A6E62
:10202800320E096E650E0FEC12F0BFEF10F082A6AB
:1020380020EF10F022EF10F048EF10F082B827EFF1
:1020480010F029EF10F048EF10F0660E086E000E41
:102058000A6E320E096E640E0FEC12F0740E086EE2
:10206800000E0A6E320E096E650E0FEC12F0080EA5
:102078000D6E9D0E0C6E060EE82EFED70C2EFCD7AC
:102088000D2EFAD7BFEF10F082B64DEF10F04FEFDC
:1020980010F06AEF10F082A854EF10F056EF10F02D
:1020A8006AEF10F0740E086E000E0A6E320E096E9A
:1020B800640E0FEC12F0660E086E000E0A6E320EF9
:1020C800096E650E0FEC12F03BEF10F082B66FEF61
:1020D80010F071EF10F0BFEF10F082B876EF10F04B
:1020E80078EF10F0BFEF10F0740E086E000E0A6E55
:1020F800320E096E640E0FEC12F0740E086E000EAC
:102108000A6E320E096E650E0FEC12F0030E0D6E9C
:102118008A0E0C6E560EE82EFED70C2EFCD70D2E0E
:10212800FAD7F5EC12F0410E0C6EEE0EE82EFED743
:102138000C2EFCD700F000F0660E086E000E0A6E3A
:10214800320E096E640E0FEC12F0740E086E000E5B
:102158000A6E320E096E650E0FEC12F0030E0D6E4C
:102168008A0E0C6E560EE82EFED70C2EFCD70D2EBE
:10217800FAD7BFEF10F0120082A6C5EF10F0C7EF34
:1021880010F0D2EF10F082A8CCEF10F0CEEF10F0E4
:10219800D2EF10F0F3EC0DF06BEF11F082B6D7EF41
:1021A80010F0D9EF10F0FFEF10F082A8DEEF10F07A
:1021B800E0EF10F0FFEF10F0660E086E000E0A6EEA
:1021C8003C0E096E640E0FEC12F0740E086E000ED1
:1021D8000A6E3C0E096E650E0FEC12F0060E0F6EBD
:1021E800130E0E6EAE0EE82EFED70E2EFCD70F2E57
:1021F800FAD76BEF11F082A604EF11F006EF11F099
:1022080021EF11F082B80BEF11F00DEF11F021EF73
:1022180011F0740E086E000E0A6E3C0E096E640E04
:102228000FEC12F0660E086E000E0A6E3C0E096E78
:10223800650E0FEC12F0F2EF10F082B626EF11F0F7
:1022480028EF11F06BEF11F082B82DEF11F02FEF9E
:1022580011F06BEF11F0740E086E000E0A6E3C0E52
:10226800096E640E0FEC12F0740E086E000E0A6E02
:102278003C0E096E650E0FEC12F0030E0F6E8A0EFF
:102288000E6E560EE82EFED70E2EFCD70F2EFAD75E
:10229800F5EC12F0410E0E6EEE0EE82EFED70E2E65
:1022A800FCD700F000F0740E086E000E0A6E3C0EAB
:1022B800096E640E0FEC12F0660E086E000E0A6EC0
:1022C8003C0E096E650E0FEC12F0F2EF10F01200E2
:1022D80082A671EF11F073EF11F099EF11F082B847
:1022E80078EF11F07AEF11F099EF11F0660E086EA1
:1022F800000E0A6E320E096E640E0FEC12F0740EA8
:10230800086E000E0A6E320E096E650E0FEC12F0A2
:10231800080E0D6E9D0E0C6E060EE82EFED70C2EC6
:10232800FCD70D2EFAD70EEF12F082B69EEF11F001
:10233800A0EF11F0BBEF11F082A8A5EF11F0A7EF05
:1023480011F0BBEF11F0740E086E000E0A6E320E1B
:10235800096E640E0FEC12F0660E086E000E0A6E1F
:10236800320E096E650E0FEC12F08CEF11F082B68A
:10237800C0EF11F0C2EF11F00EEF12F082B8C7EF04
:1023880011F0C9EF11F00EEF12F0740E086E000E86
:102398000A6E320E096E640E0FEC12F0740E086E9F
:1023A800000E0A6E320E096E650E0FEC12F0030E67
:1023B8000D6E8A0E0C6E560EE82EFED70C2EFCD72C
:1023C8000D2EFAD7F5EC12F0410E0C6EEE0EE82E3B
:1023D800FED70C2EFCD700F000F0660E086E000E3B
:1023E8000A6E320E096E640E0FEC12F0740E086E4F
:1023F800000E0A6E320E096E650E0FEC12F0030E17
:102408000D6E8A0E0C6E560EE82EFED70C2EFCD7DB
:102418000D2EFAD712000B6E09C002F00AC003F0A5
:10242800000E056E060E046EE2EC12F002C009F012
:1024380003C00AF0650E0B18D8A425EF12F027EF99
:1024480012F04EEF12F0818C660E0818D8A42FEF08
:1024580012F031EF12F03BEF12F009C077FF0A508B
:10246800766E000E756E000E746E7CEF12F0740EB0
:102478000818D8A442EF12F044EF12F07CEF12F0E3
:10248800000E776E000E766E09C075FF0A50746EE6
:102498007CEF12F0640E0B18D8A455EF12F057EF2A
:1024A80012F07CEF12F0818E660E0818D8A45FEF48
:1024B80012F061EF12F06BEF12F009C079FF0A50C9
:1024C800786E000E736E000E726E7CEF12F0740E52
:1024D8000818D8A472EF12F074EF12F07CEF12F023
:1024E80009C073FF0A50726E000E796E000E786E86
:1024F8001200000E076E000E066E94EF12F00650E2
:102508000224046E07500320056E04C0F6FF05C0C0
:10251800F7FF0800F5CFADFF40EC13F0064A072A95
:1025280006500224046E07500320056E04C0F6FF0F
:1025380005C0F7FF0800F5500009D8A4A6EF12F06F
:10254800A8EF12F083EF12F00D0EAD6E40EC13F011
:102558001200A60EF66E260EF76E000EF86E090033
:10256800F5CF20F00900F5CF21F000EE18F0080EA5
:10257800EE6AE806FDE122902292000EF86E030E44
:10258800F76E0001BCEF01F0000E7F6E800E7E6ECC
:102598005F0E6F6E010E6E6E100E6D6E6B68000E24
:1025A8006A6E960E7B6E000E7A6E000E7D6E000EC1
:1025B8007C6E000E816E000E836E120002500402C3
:1025C800F3CF06F0F4CF07F002500502F3500726C8
:1025D80003500402F350072606C002F007C003F0B8
:1025E8001200000E786E000E796E000E766E000EE8
:1025F800776E000E746E000E756E000E726E000E11
:10260800736E1200000E786E000E796E000E766EF4
:10261800000E776E000E746E000E756E000E726EF0
:10262800000E736E12009268000E936E9468000E8E
:10263800956E070E966E800EB86E010EB96E12007A
:10264800820EAF6EAC8AAC98AC84AB8EAB889E9A87
:102658009D8A1200026E02C0ADFF40EC13F00D0E11
:10266800AD6E40EC13F01200CD8ECD9CCD88CD968A
:10267800CD94CD92CD901200ACA245EF13F047EF68
:1026880013F040EF13F01200D59ED59CD59AD5963D
:10269800D580F2941200AECF01F001501200010073
:020000040020DA
:08000000FFFFFFFFFFFFFFFF00
:020000040030CA
:0E000000FFC20D3E3C1D81FF0FC00FE00F4000
:00000001FF
