:020000040000FA
:040000003BEF01F0E1
:1000080020829EAA0AEF00F00CEF00F039EF01F011
:100018009E9AABB412EF00F014EF00F01BEF00F063
:10002800ABA219EF00F01BEF00F01DEF00F0AB984A
:10003800AB8813EC12F04C0AD8A425EF00F027EF98
:1000480000F02BEF00F03B0E1C6E030E1D6E13EC40
:1000580012F0440AD8A433EF00F035EF00F039EF7E
:1000680000F0010E1C6E030E1D6E13EC12F0540A04
:10007800D8A441EF00F043EF00F047EF00F0140E72
:100088001C6E030E1D6E13EC12F0410AD8A44FEF3C
:1000980000F051EF00F055EF00F0580E1C6E030E03
:1000A8001D6E13EC12F0450AD8A45DEF00F05FEF67
:1000B80000F063EF00F01D0E1C6E030E1D6E13ECB6
:1000C80012F05A0AD8A46BEF00F06DEF00F071EF50
:1000D80000F0340E1C6E030E1D6E13EC12F0520A63
:1000E800D8A479EF00F07BEF00F07FEF00F0410E2D
:1000F8001C6E030E1D6E13EC12F0580AD8A487EF7D
:1001080000F089EF00F08DEF00F0620E1C6E030E18
:100118001D6E13EC12F0590AD8A495EF00F097EF72
:1001280000F09BEF00F0650E1C6E030E1D6E13ECC5
:1001380012F0640AD8A4A3EF00F0A5EF00F0A9EF2D
:1001480000F0250E1C6E030E1D6E13EC12F0650AEE
:10015800D8A4B1EF00F0B3EF00F0B7EF00F00B0E4A
:100168001C6E030E1D6E13EC12F0660AD8A4BFEFC6
:1001780000F0C1EF00F0C5EF00F02D0E1C6E030E6D
:100188001D6E13EC12F0740AD8A4CDEF00F0CFEF77
:1001980000F0D3EF00F05D0E1C6E030E1D6E13EC25
:1001A80012F06D0AD8A4DBEF00F0DDEF00F0E1EF0C
:1001B80000F04D0E1C6E030E1D6E13EC12F02B0A90
:1001C800D8A4E9EF00F0EBEF00F0FEEF00F03C0EF2
:1001D8001A26000E1B22580E1A5C020E1B58D8A0B5
:1001E800F8EF00F0FAEF00F0FEEF00F0000E1B6EE3
:1001F8003C0E1A6E13EC12F02D0AD8A406EF01F08B
:1002080008EF01F01BEF01F03C0E1A5E000E1B5ABE
:100218001B5007E13C0E1A5CD8B015EF01F017EF40
:1002280001F01BEF01F0010E1B6E2C0E1A6E13EC81
:1002380012F0470AD8A423EF01F025EF01F029EFC7
:1002480001F0000E196E010E186E13EC12F0500A30
:10025800D8A431EF01F033EF01F039EF01F0BBEC36
:1002680011F0470E1C6E030E1D6E20921100CCEF8C
:0202780011F083
:100300000064697374616E6369610065737175651A
:1003100072646F00746F7175696E686F00657374D5
:1003200072656C61006469726569746F00667265FC
:100330006E7465007A69677A6167006C696E6861DE
:10034000007465737465007061726172006D6F7422
:100350006F720061717569006172636F0074726120
:0B036000730067640067650020000068
:10036C00DBEC11F0E8EC11F07DEC11F00CEC12F080
:10037C00FCEC11F0F28EF28C8390838218501910E1
:10038C00D8B4CBEF01F0CDEF01F0C4EF01F0530E78
:10039C00026E030E036E4DEC11F03B0E1C1807E1C0
:1003AC00030E1D18D8A4DDEF01F0DFEF01F0EFEF25
:1003BC0001F080EC0FF0470E1C1807E1030E1D181E
:1003CC00D8A4EBEF01F0EDEF01F0DFEF01F0AAECB8
:1003DC0011F0010E1C1807E1030E1D18D8A4F9EF3B
:1003EC0001F0FBEF01F00BEF02F08AEC0DF0470E81
:1003FC001C1807E1030E1D18D8A407EF02F009EF33
:10040C0002F0FBEF01F0AAEC11F0580E1C1807E1FA
:10041C00030E1D18D8A415EF02F017EF02F07EEFB3
:10042C0004F0D58E780ED66EF80ED76E000E126EC6
:10043C0075EF04F080A225EF02F027EF02F057EFE2
:10044C0002F080A82CEF02F02EEF02F057EF02F032
:10045C0082A033EF02F035EF02F057EF02F080A6E6
:10046C003AEF02F03CEF02F057EF02F080A441EFBC
:10047C0002F043EF02F057EF02F0660E086E000E2A
:10048C000A6E4B0E096E640EDFEC10F0660E086EF1
:10049C00000E0A6E5A0E096E650EDFEC10F058EF66
:1004AC0004F080B25CEF02F05EEF02F08EEF02F02F
:1004BC0080A863EF02F065EF02F08EEF02F082A0ED
:1004CC006AEF02F06CEF02F08EEF02F080A671EF93
:1004DC0002F073EF02F08EEF02F080A478EF02F0DE
:1004EC007AEF02F08EEF02F0740E086E000E0A6EB8
:1004FC003C0E096E650EDFEC10F0660E086E000EF9
:10050C000A6E3C0E096E640EDFEC10F058EF04F02E
:10051C0080A293EF02F095EF02F0C5EF02F080A8F5
:10052C009AEF02F09CEF02F0C5EF02F082B0A1EF5F
:10053C0002F0A3EF02F0C5EF02F080A6A8EF02F0E4
:10054C00AAEF02F0C5EF02F080A4AFEF02F0B1EF1A
:10055C0002F0C5EF02F0660E086E000E0A6E3C0E3D
:10056C00096E650EDFEC10F0660E086E000E0A6E5A
:10057C003C0E096E640EDFEC10F058EF04F080A214
:10058C00CAEF02F0CCEF02F0FCEF02F080B8D1EF32
:10059C0002F0D3EF02F0FCEF02F082A0D8EF02F0F1
:1005AC00DAEF02F0FCEF02F080B6DFEF02F0E1EFE1
:1005BC0002F0FCEF02F080A4E6EF02F0E8EF02F0AC
:1005CC00FCEF02F0660E086E000E0A6E3C0E096E11
:1005DC00650EDFEC10F0660E086E000E0A6E3C0E17
:1005EC00096E640EDFEC10F058EF04F080A201EFFE
:1005FC0003F003EF03F033EF03F080A808EF03F0F0
:10060C000AEF03F033EF03F082A00FEF03F011EFCA
:10061C0003F033EF03F080B616EF03F018EF03F09E
:10062C0033EF03F080A41DEF03F01FEF03F033EF63
:10063C0003F0660E086E000E0A6E3C0E096E650E17
:10064C00DFEC10F0740E086E000E0A6E3C0E096E94
:10065C00640EDFEC10F058EF04F080A238EF03F0DA
:10066C003AEF03F06AEF03F080A83FEF03F041EF9D
:10067C0003F06AEF03F082B046EF03F048EF03F0AB
:10068C006AEF03F080B64DEF03F04FEF03F06AEF23
:10069C0003F080A454EF03F056EF03F06AEF03F07D
:1006AC00660E086E000E0A6E3C0E096E650EDFECCF
:1006BC0010F0740E086E000E0A6E3C0E096E640E7D
:1006CC00DFEC10F058EF04F080A26FEF03F071EF45
:1006DC0003F0A1EF03F080B876EF03F078EF03F0AE
:1006EC00A1EF03F082A07DEF03F07FEF03F0A1EF09
:1006FC0003F080A684EF03F086EF03F0A1EF03F084
:10070C0080A48BEF03F08DEF03F0A1EF03F0740ED8
:10071C00086E000E0A6E3C0E096E650EDFEC10F0D2
:10072C00660E086E000E0A6E3C0E096E640EDFEC4F
:10073C0010F058EF04F080A2A6EF03F0A8EF03F03E
:10074C00D8EF03F080B8ADEF03F0AFEF03F0D8EFC4
:10075C0003F082B0B4EF03F0B6EF03F0D8EF03F080
:10076C0080A6BBEF03F0BDEF03F0D8EF03F080A43D
:10077C00C2EF03F0C4EF03F0D8EF03F0740E086E71
:10078C00000E0A6E3C0E096E650EDFEC10F0660E64
:10079C00086E000E0A6E3C0E096E640EDFEC10F053
:1007AC0058EF04F080A2DDEF03F0DFEF03F00FEF62
:1007BC0004F080A8E4EF03F0E6EF03F00FEF04F091
:1007CC0082A0EBEF03F0EDEF03F00FEF04F080A647
:1007DC00F2EF03F0F4EF03F00FEF04F080B4F9EF55
:1007EC0003F0FBEF03F00FEF04F0660E086E000E43
:1007FC000A6E3C0E096E650EDFEC10F0740E086E7E
:10080C00000E0A6E3C0E096E640EDFEC10F058EF11
:10081C0004F080A214EF04F016EF04F046EF04F09D
:10082C0080B81BEF04F01DEF04F046EF04F082B02B
:10083C0022EF04F024EF04F046EF04F080B629EF29
:10084C0004F02BEF04F046EF04F080A430EF04F03A
:10085C0032EF04F046EF04F0660E086E000E0A6EDE
:10086C003C0E096E640EDFEC10F0660E086E000E86
:10087C000A6E3C0E096E650EDFEC10F058EF04F0BA
:10088C00660E086E000E0A6E3C0E096E640EDFECEE
:10089C0010F0660E086E000E0A6E5A0E096E650E8A
:1008AC00DFEC10F0F2A45DEF04F05FEF04F065EF05
:1008BC0004F0F294780ED66EF80ED76E122A470E0C
:1008CC001C1807E1030E1D18D8A46FEF04F071EF8C
:1008DC0004F075EF04F0AAEC11F07DEF04F0630E58
:1008EC0012647BEF04F07DEF04F020EF02F0D59E54
:1008FC00140E1C1807E1030E1D18D8A488EF04F081
:10090C008AEF04F0E9EF06F0CD80DE0ECE6E0B0E12
:10091C00CF6E000E166E000E156E000E146EE0EF0C
:10092C0006F09EA09CEF04F09EEF04F0A5EF04F0FF
:10093C009E90DE0ECE6E0B0ECF6E144A152A15BE8F
:10094C00B3EF04F0155007E10A0E145CD8B0B1EF08
:10095C0004F0B3EF04F0C7EF06F080B2B8EF04F088
:10096C00BAEF04F0EAEF04F080A8BFEF04F0C1EF97
:10097C0004F0EAEF04F082A0C6EF04F0C8EF04F034
:10098C00EAEF04F080A6CDEF04F0CFEF04F0EAEF2D
:10099C0004F080A4D4EF04F0D6EF04F0EAEF04F0F6
:1009AC00740E086E000E0A6E3C0E096E650EDFECBE
:1009BC0010F0660E086E000E0A6E3C0E096E640E88
:1009CC00DFEC10F0D0EF06F080A2EFEF04F0F1EFC7
:1009DC0004F021EF05F080A8F6EF04F0F8EF04F036
:1009EC0021EF05F082B0FDEF04F0FFEF04F021EFF2
:1009FC0005F080A604EF05F006EF05F021EF05F0F9
:100A0C0080A40BEF05F00DEF05F021EF05F0660E5D
:100A1C00086E000E0A6E3C0E096E650EDFEC10F0CF
:100A2C00660E086E000E0A6E3C0E096E640EDFEC4C
:100A3C0010F0D0EF06F080A226EF05F028EF05F0BD
:100A4C0058EF05F080B82DEF05F02FEF05F058EFBB
:100A5C0005F082A034EF05F036EF05F058EF05F005
:100A6C0080B63BEF05F03DEF05F058EF05F080A4A4
:100A7C0042EF05F044EF05F058EF05F0660E086EF6
:100A8C00000E0A6E3C0E096E650EDFEC10F0660E61
:100A9C00086E000E0A6E3C0E096E640EDFEC10F050
:100AAC00D0EF06F080A25DEF05F05FEF05F08FEF61
:100ABC0005F080A864EF05F066EF05F08FEF05F008
:100ACC0082A06BEF05F06DEF05F08FEF05F080B6AF
:100ADC0072EF05F074EF05F08FEF05F080A479EF5D
:100AEC0005F07BEF05F08FEF05F0660E086E000E3B
:100AFC000A6E3C0E096E650EDFEC10F0740E086E7B
:100B0C00000E0A6E3C0E096E640EDFEC10F0D0EF96
:100B1C0006F080A294EF05F096EF05F0C6EF05F015
:100B2C0080A89BEF05F09DEF05F0C6EF05F082B0B5
:100B3C00A2EF05F0A4EF05F0C6EF05F080B6A9EF23
:100B4C0005F0ABEF05F0C6EF05F080A4B0EF05F0B3
:100B5C00B2EF05F0C6EF05F0660E086E000E0A6ED9
:100B6C003C0E096E650EDFEC10F0740E086E000E74
:100B7C000A6E3C0E096E640EDFEC10F0D0EF06F03E
:100B8C0080A2CBEF05F0CDEF05F0FDEF05F080B8BE
:100B9C00D2EF05F0D4EF05F0FDEF05F082A0D9EF10
:100BAC0005F0DBEF05F0FDEF05F080A6E0EF05F0BA
:100BBC00E2EF05F0FDEF05F080A4E7EF05F0E9EFBB
:100BCC0005F0FDEF05F0740E086E000E0A6E3C0E7B
:100BDC00096E650EDFEC10F0660E086E000E0A6EE4
:100BEC003C0E096E640EDFEC10F0D0EF06F080A224
:100BFC0002EF06F004EF06F034EF06F080B809EFD0
:100C0C0006F00BEF06F034EF06F082B010EF06F0B2
:100C1C0012EF06F034EF06F080A617EF06F019EF8E
:100C2C0006F034EF06F080A41EEF06F020EF06F07D
:100C3C0034EF06F0740E086E000E0A6E3C0E096E50
:100C4C00650EDFEC10F0660E086E000E0A6E3C0EA0
:100C5C00096E640EDFEC10F0D0EF06F080A239EFD5
:100C6C0006F03BEF06F06BEF06F080A840EF06F0C5
:100C7C0042EF06F06BEF06F082A047EF06F049EF6B
:100C8C0006F06BEF06F080A64EEF06F050EF06F084
:100C9C006BEF06F080B455EF06F057EF06F06BEFF4
:100CAC0006F0660E086E000E0A6E3C0E096E650E9E
:100CBC00DFEC10F0740E086E000E0A6E3C0E096E1E
:100CCC00640EDFEC10F0D0EF06F080A270EF06F0AF
:100CDC0072EF06F0A2EF06F080B877EF06F079EF2E
:100CEC0006F0A2EF06F082B07EEF06F080EF06F081
:100CFC00A2EF06F080B685EF06F087EF06F0A2EFC4
:100D0C0006F080A48CEF06F08EEF06F0A2EF06F052
:100D1C00660E086E000E0A6E3C0E096E640EDFEC59
:100D2C0010F0660E086E000E0A6E3C0E096E650E13
:100D3C00DFEC10F0D0EF06F015BEAFEF06F015505B
:100D4C0006E11404D8B0ADEF06F0AFEF06F0C3EF38
:100D5C0006F0660E086E000E0A6E3C0E096E640EEE
:100D6C00DFEC10F0660E086E000E0A6E3C0E096E7B
:100D7C00650EDFEC10F0D0EF06F0AAEC11F0D0EF1E
:100D8C0006F0000E156E000E146E162A1650300F5B
:100D9C00F2EC11F0470E1C1807E1030E1D18D8A435
:100DAC00DAEF06F0DCEF06F0E0EF06F0AAEC11F05B
:100DBC00E8EF06F0090E1664E6EF06F0E8EF06F031
:100DCC0097EF04F0CD901D0E1C1807E1030E1D18B3
:100DDC00D8A4F3EF06F0F5EF06F005EF07F03CECC6
:100DEC0010F0470E1C1807E1030E1D18D8A401EFD4
:100DFC0007F003EF07F0F5EF06F0AAEC11F0340E54
:100E0C001C1807E1030E1D18D8A40FEF07F011EF03
:100E1C0007F068EF0BF0000E136E000E176E660EE7
:100E2C00086E000E0A6E3C0E096E640EDFEC10F0BC
:100E3C00740E086E000E0A6E3C0E096E650EDFEC29
:100E4C0010F0020E116EC70E106E880EE82EFED733
:100E5C00102EFCD7112EFAD700F000F0CD80DE0E4C
:100E6C00CE6E0B0ECF6E5BEF0BF09EA040EF07F03B
:100E7C0042EF07F048EF07F09E90DE0ECE6E0B0EA1
:100E8C00CF6E172A80B24DEF07F04FEF07F07FEFD0
:100E9C0007F080A854EF07F056EF07F07FEF07F04C
:100EAC0082A05BEF07F05DEF07F07FEF07F080A605
:100EBC0062EF07F064EF07F07FEF07F080A469EFB3
:100ECC0007F06BEF07F07FEF07F0740E086E000E63
:100EDC000A6E3C0E096E650EDFEC10F0660E086EA5
:100EEC00000E0A6E3C0E096E640EDFEC10F049EF3A
:100EFC0009F080A284EF07F086EF07F0B6EF07F059
:100F0C0080A88BEF07F08DEF07F0B6EF07F082B0FB
:100F1C0092EF07F094EF07F0B6EF07F080A699EF89
:100F2C0007F09BEF07F0B6EF07F080A4A0EF07F0F7
:100F3C00A2EF07F0B6EF07F0660E086E000E0A6E11
:100F4C003C0E096E650EDFEC10F0660E086E000E9E
:100F5C000A6E3C0E096E640EDFEC10F049EF09F0DE
:100F6C0080A2BBEF07F0BDEF07F0EDEF07F080B804
:100F7C00C2EF07F0C4EF07F0EDEF07F082A0C9EF66
:100F8C0007F0CBEF07F0EDEF07F080B6D0EF07F0EE
:100F9C00D2EF07F0EDEF07F080A4D7EF07F0D9EF11
:100FAC0007F0EDEF07F0660E086E000E0A6E3C0EB1
:100FBC00096E650EDFEC10F0660E086E000E0A6E00
:100FCC003C0E096E640EDFEC10F049EF09F080A2C4
:100FDC00F2EF07F0F4EF07F024EF08F080A8F9EF38
:100FEC0007F0FBEF07F024EF08F082A000EF08F009
:100FFC0002EF08F024EF08F080B607EF08F009EFD5
:10100C0008F024EF08F080A40EEF08F010EF08F0C1
:10101C0024EF08F0660E086E000E0A6E3C0E096E88
:10102C00650EDFEC10F0740E086E000E0A6E3C0EAE
:10103C00096E640EDFEC10F049EF09F080A229EF85
:10104C0008F02BEF08F05BEF08F080A830EF08F009
:10105C0032EF08F05BEF08F082B037EF08F039EFB1
:10106C0008F05BEF08F080B63EEF08F040EF08F0B8
:10107C005BEF08F080A445EF08F047EF08F05BEF5A
:10108C0008F0660E086E000E0A6E3C0E096E650EB8
:10109C00DFEC10F0740E086E000E0A6E3C0E096E3A
:1010AC00640EDFEC10F049EF09F080A260EF08F05D
:1010BC0062EF08F092EF08F080B867EF08F069EF84
:1010CC0008F092EF08F082A06EEF08F070EF08F0D5
:1010DC0092EF08F080A675EF08F077EF08F092EF2A
:1010EC0008F080A47CEF08F07EEF08F092EF08F097
:1010FC00740E086E000E0A6E3C0E096E650EDFEC67
:10110C0010F0660E086E000E0A6E3C0E096E640E30
:10111C00DFEC10F049EF09F080A297EF08F099EF9F
:10112C0008F0C9EF08F080B89EEF08F0A0EF08F0C7
:10113C00C9EF08F082B0A5EF08F0A7EF08F0C9EFEF
:10114C0008F080A6ACEF08F0AEEF08F0C9EF08F09D
:10115C0080A4B3EF08F0B5EF08F0C9EF08F0740EF7
:10116C00086E000E0A6E3C0E096E650EDFEC10F078
:10117C00660E086E000E0A6E3C0E096E640EDFECF5
:10118C0010F049EF09F080A2CEEF08F0D0EF08F094
:10119C0000EF09F080A8D5EF08F0D7EF08F000EFCA
:1011AC0009F082A0DCEF08F0DEEF08F000EF09F0A8
:1011BC0080A6E3EF08F0E5EF08F000EF09F080B44B
:1011CC00EAEF08F0ECEF08F000EF09F0660E086E9D
:1011DC00000E0A6E3C0E096E650EDFEC10F0740EFC
:1011EC00086E000E0A6E3C0E096E640EDFEC10F0F9
:1011FC0049EF09F080A205EF09F007EF09F037EF8E
:10120C0009F080B80CEF09F00EEF09F037EF09F098
:10121C0082B013EF09F015EF09F037EF09F080B643
:10122C001AEF09F01CEF09F037EF09F080A421EF59
:10123C0009F023EF09F037EF09F0660E086E000E87
:10124C000A6E3C0E096E640EDFEC10F0660E086E32
:10125C00000E0A6E3C0E096E650EDFEC10F049EFC5
:10126C0009F0660E086E000E0A6E3C0E096E640ED6
:10127C00DFEC10F0660E086E000E0A6E3C0E096E66
:10128C00650EDFEC10F0180E17644FEF09F051EFFC
:10129C0009F03BEF07F0000E176EAAEC11F0410EAF
:1012AC00106EEE0EE82EFED7102EFCD700F000F0DC
:1012BC0037EF0BF09EA065EF09F067EF09F06DEFCB
:1012CC0009F09E90DE0ECE6E0B0ECF6E172A80B2FA
:1012DC0072EF09F074EF09F0A4EF09F080A879EF30
:1012EC0009F07BEF09F0A4EF09F082A080EF09F080
:1012FC0082EF09F0A4EF09F080A687EF09F089EFDF
:10130C0009F0A4EF09F080A48EEF09F090EF09F03A
:10131C00A4EF09F0740E086E000E0A6E3C0E096EF6
:10132C00650EDFEC10F0660E086E000E0A6E3C0EB9
:10133C00096E640EDFEC10F037EF0BF080A2A9EF12
:10134C0009F0ABEF09F0DBEF09F080A8B0EF09F082
:10135C00B2EF09F0DBEF09F082B0B7EF09F0B9EFAB
:10136C0009F0DBEF09F080A6BEEF09F0C0EF09F041
:10137C00DBEF09F080A4C5EF09F0C7EF09F0DBEF54
:10138C0009F0660E086E000E0A6E3C0E096E650EB4
:10139C00DFEC10F0660E086E000E0A6E3C0E096E45
:1013AC00640EDFEC10F037EF0BF080A2E0EF09F0E9
:1013BC00E2EF09F012EF0AF080B8E7EF09F0E9EF7D
:1013CC0009F012EF0AF082A0EEEF09F0F0EF09F04D
:1013DC0012EF0AF080B6F5EF09F0F7EF09F012EF13
:1013EC000AF080A4FCEF09F0FEEF09F012EF0AF00E
:1013FC00660E086E000E0A6E3C0E096E650EDFEC72
:10140C0010F0660E086E000E0A6E3C0E096E640E2D
:10141C00DFEC10F037EF0BF080A217EF0AF019EFAA
:10142C000AF049EF0AF080A81EEF0AF020EF0AF04C
:10143C0049EF0AF082A025EF0AF027EF0AF049EFF6
:10144C000AF080B62CEF0AF02EEF0AF049EF0AF002
:10145C0080A433EF0AF035EF0AF049EF0AF0660E7C
:10146C00086E000E0A6E3C0E096E650EDFEC10F075
:10147C00740E086E000E0A6E3C0E096E640EDFECE4
:10148C0010F037EF0BF080A24EEF0AF050EF0AF09D
:10149C0080EF0AF080A855EF0AF057EF0AF080EFC2
:1014AC000AF082B05CEF0AF05EEF0AF080EF0AF00F
:1014BC0080B663EF0AF065EF0AF080EF0AF080A4C3
:1014CC006AEF0AF06CEF0AF080EF0AF0660E086E15
:1014DC00000E0A6E3C0E096E650EDFEC10F0740EF9
:1014EC00086E000E0A6E3C0E096E640EDFEC10F0F6
:1014FC0037EF0BF080A285EF0AF087EF0AF0B7EF19
:10150C000AF080B88CEF0AF08EEF0AF0B7EF0AF011
:10151C0082A093EF0AF095EF0AF0B7EF0AF080A6DD
:10152C009AEF0AF09CEF0AF0B7EF0AF080A4A1EF53
:10153C000AF0A3EF0AF0B7EF0AF0740E086E000E73
:10154C000A6E3C0E096E650EDFEC10F0660E086E2E
:10155C00000E0A6E3C0E096E640EDFEC10F037EFD5
:10156C000BF080A2BCEF0AF0BEEF0AF0EEEF0AF02F
:10157C0080B8C3EF0AF0C5EF0AF0EEEF0AF082B0C4
:10158C00CAEF0AF0CCEF0AF0EEEF0AF080A6D1EF2A
:10159C000AF0D3EF0AF0EEEF0AF080A4D8EF0AF0CD
:1015AC00DAEF0AF0EEEF0AF0740E086E000E0A6E17
:1015BC003C0E096E650EDFEC10F0660E086E000E28
:1015CC000A6E3C0E096E640EDFEC10F037EF0BF078
:1015DC0080A2F3EF0AF0F5EF0AF025EF0BF080A8EC
:1015EC00FAEF0AF0FCEF0AF025EF0BF082A001EF06
:1015FC000BF003EF0BF025EF0BF080A608EF0BF0D0
:10160C000AEF0BF025EF0BF080B40FEF0BF011EF9E
:10161C000BF025EF0BF0660E086E000E0A6E3C0EFA
:10162C00096E650EDFEC10F0740E086E000E0A6E7B
:10163C003C0E096E640EDFEC10F037EF0BF0740EFD
:10164C00086E000E0A6E3C0E096E640EDFEC10F094
:10165C00660E086E000E0A6E3C0E096E650EDFEC0F
:10166C0010F0060E17643DEF0BF03FEF0BF060EF40
:10167C0009F0AAEC11F0410E106EEE0EE82EFED71A
:10168C00102EFCD700F000F0470E1C1807E1030EDB
:10169C001D18D8A454EF0BF056EF0BF05AEF0BF0CB
:1016AC00AAEC11F063EF0BF0132A0B0E136461EF2D
:1016BC000BF063EF0BF049EF09F0CD90680E1C6E48
:1016CC00030E1D6E0B0E1C1807E1030E1D18D8A47B
:1016DC0072EF0BF074EF0BF0AFEF0BF0000E1B6E14
:1016EC003C0E1A6E818E5D0E1C1807E1030E1D1840
:1016FC00D8A483EF0BF085EF0BF08FEF0BF0000EFF
:10170C00776E000E766E1AC075FF1B50746EA3EFC9
:10171C000BF02D0E1C1807E1030E1D18D8A499EF21
:10172C000BF09BEF0BF0A3EF0BF01AC077FF1B50E5
:10173C00766E000E756E000E746E470E1C1807E167
:10174C00030E1D18D8A4ADEF0BF0AFEF0BF079EF33
:10175C000BF0250E1C1807E1030E1D18D8A4B9EFC9
:10176C000BF0BBEF0BF0F6EF0BF0000E1B6E3C0E0C
:10177C001A6E818C2D0E1C1807E1030E1D18D8A4AF
:10178C00CAEF0BF0CCEF0BF0D6EF0BF01AC079FFD1
:10179C001B50786E000E736E000E726EEAEF0BF03B
:1017AC005D0E1C1807E1030E1D18D8A4E0EF0BF01A
:1017BC00E2EF0BF0EAEF0BF0000E796E000E786E94
:1017CC001AC073FF1B50726E470E1C1807E1030EF4
:1017DC001D18D8A4F4EF0BF0F6EF0BF0C0EF0BF0E4
:1017EC004D0E1C1807E1030E1D18D8A400EF0CF0C9
:1017FC0002EF0CF050EF0CF0000E1B6E3C0E1A6E4C
:10180C00818C818E2D0E1C1807E1030E1D18D8A497
:10181C0012EF0CF014EF0CF026EF0CF01AC079FF5D
:10182C001B50786E000E736E000E726E1AC077FF2E
:10183C001B50766E000E756E000E746E42EF0CF03F
:10184C005D0E1C1807E1030E1D18D8A430EF0CF028
:10185C0032EF0CF042EF0CF0000E796E000E786E49
:10186C001AC073FF1B50726E000E776E000E766EF0
:10187C001AC075FF1B50746E470E1C1807E1030E3F
:10188C001D18D8A44CEF0CF04EEF0CF008EF0CF038
:10189C00AAEC11F0410E1C1807E1030E1D18D8A478
:1018AC005AEF0CF05CEF0CF0BFEF0CF0818E818CDA
:1018BC00660E086E000E0A6E500E096E640EDFEC9A
:1018CC0010F0660E086E000E0A6E500E096E650E54
:1018DC00DFEC10F00D0E116EAF0E106EB60EE82E82
:1018EC00FED7102EFCD7112EFAD700F000F0660EA2
:1018FC00086E000E0A6E000E096E640EDFEC10F01E
:10190C00660E086E000E0A6E000E096E650EDFEC98
:10191C0010F0330E116EBB0E106EE00EE82EFED7DB
:10192C00102EFCD7112EFAD7740E086E000E0A6E0C
:10193C00500E096E640EDFEC10F0740E086E000E83
:10194C000A6E500E096E650EDFEC10F00D0E116E66
:10195C00AF0E106EB60EE82EFED7102EFCD7112E41
:10196C00FAD700F000F0AAEC11F0200E1C6E000E5D
:10197C001D6E620E1C1807E1030E1D18D8A4C9EFCA
:10198C000CF0CBEF0CF0EEEF0CF0660E086E000EC8
:10199C000A6E3C0E096E650EDFEC10F0740E086ECC
:1019AC00000E0A6E3C0E096E640EDFEC10F0080E91
:1019BC00116E9D0E106E060EE82EFED7102EFCD763
:1019CC00112EFAD7AAEC11F0200E1C6E000E1D6E13
:1019DC00650E1C1807E1030E1D18D8A4F8EF0CF0C7
:1019EC00FAEF0CF01DEF0DF0740E086E000E0A6E7F
:1019FC003C0E096E650EDFEC10F0660E086E000EE4
:101A0C000A6E3C0E096E640EDFEC10F0080E116EBF
:101A1C009D0E106E060EE82EFED7102EFCD7112E42
:101A2C00FAD7AAEC11F0200E1C6E000E1D6E80B4BD
:101A3C0022EF0DF024EF0DF032EF0DF0030E116ECE
:101A4C008A0E106E560EE82EFED7102EFCD7112ED5
:101A5C00FAD7300EF2EC11F080B637EF0DF039EF0B
:101A6C000DF047EF0DF0030E116E8A0E106E560E30
:101A7C00E82EFED7102EFCD7112EFAD7310EF2EC31
:101A8C0011F082B04CEF0DF04EEF0DF05CEF0DF05D
:101A9C00030E116E8A0E106E560EE82EFED7102E07
:101AAC00FCD7112EFAD7320EF2EC11F080B861EFA0
:101ABC000DF063EF0DF071EF0DF0030E116E8A0E49
:101ACC00106E560EE82EFED7102EFCD7112EFAD71C
:101ADC00330EF2EC11F080B276EF0DF078EF0DF0E2
:101AEC00D3EF01F0030E116E8A0E106E560EE82E17
:101AFC00FED7102EFCD7112EFAD7340EF2EC11F0C3
:101B0C00D3EF01F03BEF01F0000E0D6E000E0C6EEA
:101B1C0080B293EF0DF095EF0DF0C5EF0DF080A8AE
:101B2C009AEF0DF09CEF0DF0C5EF0DF082A0A1EF38
:101B3C000DF0A3EF0DF0C5EF0DF080A6A8EF0DF0A2
:101B4C00AAEF0DF0C5EF0DF080A4AFEF0DF0B1EFE3
:101B5C000DF0C5EF0DF0740E086E000E0A6E320E0D
:101B6C00096E650EDFEC10F0660E086E000E0A6E44
:101B7C00320E096E640EDFEC10F07FEF0FF080A2D6
:101B8C00CAEF0DF0CCEF0DF0FCEF0DF080A8D1EF0B
:101B9C000DF0D3EF0DF0FCEF0DF082B0D8EF0DF09F
:101BAC00DAEF0DF0FCEF0DF080A6DFEF0DF0E1EFBA
:101BBC000DF0FCEF0DF080A4E6EF0DF0E8EF0DF06A
:101BCC00FCEF0DF0660E086E000E0A6E000E096E2C
:101BDC00650EDFEC10F0660E086E000E0A6E000E3D
:101BEC00096E640EDFEC10F07FEF0FF080A201EFB6
:101BFC000EF003EF0EF033EF0EF080B808EF0EF09E
:101C0C000AEF0EF033EF0EF082A00FEF0EF011EF93
:101C1C000EF033EF0EF080B616EF0EF018EF0EF05C
:101C2C0033EF0EF080A41DEF0EF01FEF0EF033EF2C
:101C3C000EF0660E086E000E0A6E000E096E650E32
:101C4C00DFEC10F0660E086E000E0A6E000E096EC8
:101C5C00640EDFEC10F07FEF0FF080A238EF0EF087
:101C6C003AEF0EF06AEF0EF080B83FEF0EF041EF56
:101C7C000EF06AEF0EF082B046EF0EF048EF0EF069
:101C8C006AEF0EF080B64DEF0EF04FEF0EF06AEFEC
:101C9C000EF080A454EF0EF056EF0EF06AEF0EF03B
:101CAC00660E086E000E0A6E000E096E640EDFECF6
:101CBC0010F0660E086E000E0A6E000E096E650EB0
:101CCC00DFEC10F07FEF0FF080A26FEF0EF071EFF2
:101CDC000EF0A1EF0EF080A876EF0EF078EF0EF07C
:101CEC00A1EF0EF082A07DEF0EF07FEF0EF0A1EFD2
:101CFC000EF080B684EF0EF086EF0EF0A1EF0EF032
:101D0C0080A48BEF0EF08DEF0EF0A1EF0EF0660EAF
:101D1C00086E000E0A6E320E096E650EDFEC10F0C6
:101D2C00740E086E000E0A6E320E096E640EDFEC35
:101D3C0010F07FEF0FF080A2A6EF0EF0A8EF0EF0E0
:101D4C00D8EF0EF080A8ADEF0EF0AFEF0EF0D8EF9D
:101D5C000EF082B0B4EF0EF0B6EF0EF0D8EF0EF03E
:101D6C0080B6BBEF0EF0BDEF0EF0D8EF0EF080A4F6
:101D7C00C2EF0EF0C4EF0EF0D8EF0EF0660E086E48
:101D8C00000E0A6E320E096E650EDFEC10F0740E4A
:101D9C00086E000E0A6E320E096E640EDFEC10F047
:101DAC007FEF0FF080A2DDEF0EF0DFEF0EF00FEF04
:101DBC000FF080B8E4EF0EF0E6EF0EF00FEF0FF03F
:101DCC0082A0EBEF0EF0EDEF0EF00FEF0FF080A610
:101DDC00F2EF0EF0F4EF0EF00FEF0FF080A4F9EF2E
:101DEC000EF0FBEF0EF00FEF0FF0740E086E000EFE
:101DFC000A6E320E096E650EDFEC10F0660E086E80
:101E0C00000E0A6E320E096E640EDFEC10F07FEFDE
:101E1C000FF080A214EF0FF016EF0FF046EF0FF05B
:101E2C0080B81BEF0FF01DEF0FF046EF0FF082B0F4
:101E3C0022EF0FF024EF0FF046EF0FF080A629EF02
:101E4C000FF02BEF0FF046EF0FF080A430EF0FF0F8
:101E5C0032EF0FF046EF0FF0740E086E000E0A6EA4
:101E6C00320E096E650EDFEC10F0660E086E000E79
:101E7C000A6E320E096E640EDFEC10F07FEF0FF07D
:101E8C0080A24BEF0FF04DEF0FF07DEF0FF080A81D
:101E9C0052EF0FF054EF0FF07DEF0FF082A059EFDF
:101EAC000FF05BEF0FF07DEF0FF080A660EF0FF0FF
:101EBC0062EF0FF07DEF0FF080B467EF0FF069EF7A
:101ECC000FF07DEF0FF0660E086E000E0A6E320EEC
:101EDC00096E650EDFEC10F0740E086E000E0A6EC3
:101EEC00320E096E640EDFEC10F07FEF0FF0AAECEF
:101EFC0011F0120082A685EF0FF087EF0FF0A2EF22
:101F0C000FF082A88CEF0FF08EEF0FF0A2EF0FF016
:101F1C00660E086E000E0A6E1E0E096E640EDFEC65
:101F2C0010F0660E086E000E0A6E1E0E096E650E1F
:101F3C00DFEC10F03BEF10F082A6A7EF0FF0A9EF4B
:101F4C000FF0CFEF0FF082B8AEEF0FF0B0EF0FF055
:101F5C00CFEF0FF0660E086E000E0A6E1E0E096EA5
:101F6C00640EDFEC10F0740E086E000E0A6E1E0E7E
:101F7C00096E650EDFEC10F0030E0D6E8A0E0C6E02
:101F8C00560EE82EFED70C2EFCD70D2EFAD73BEFB3
:101F9C0010F082B6D4EF0FF0D6EF0FF0F1EF0FF098
:101FAC0082A8DBEF0FF0DDEF0FF0F1EF0FF0740E06
:101FBC00086E000E0A6E1E0E096E640EDFEC10F039
:101FCC00660E086E000E0A6E1E0E096E650EDFECB4
:101FDC0010F0C2EF0FF082B6F6EF0FF0F8EF0FF043
:101FEC003BEF10F082B8FDEF0FF0FFEF0FF03BEF7F
:101FFC0010F0740E086E000E0A6E1E0E096E640E42
:10200C00DFEC10F0740E086E000E0A6E1E0E096ED8
:10201C00650EDFEC10F0020E0D6E450E0C6EAA0E66
:10202C00E82EFED70C2EFCD70D2EFAD7AAEC11F009
:10203C00410E0C6EEE0EE82EFED70C2EFCD700F0E7
:10204C0000F0660E086E000E0A6E1E0E096E640E0F
:10205C00DFEC10F0740E086E000E0A6E1E0E096E88
:10206C00650EDFEC10F03BEF10F0120082A641EF92
:10207C0010F043EF10F04EEF10F082A848EF10F084
:10208C004AEF10F04EEF10F08AEC0DF0DEEF10F08E
:10209C0082B653EF10F055EF10F070EF10F082A8ED
:1020AC005AEF10F05CEF10F070EF10F0660E086E47
:1020BC00000E0A6E3C0E096E640EDFEC10F0740E0E
:1020CC00086E000E0A6E3C0E096E650EDFEC10F009
:1020DC00DEEF10F082A675EF10F077EF10F092EFB4
:1020EC0010F082B87CEF10F07EEF10F092EF10F051
:1020FC00740E086E000E0A6E3C0E096E640EDFEC58
:10210C0010F0660E086E000E0A6E3C0E096E650E1F
:10211C00DFEC10F0DEEF10F082B697EF10F099EFD5
:10212C0010F0DEEF10F082B89EEF10F0A0EF10F080
:10213C00DEEF10F0740E086E000E0A6E3C0E096E87
:10214C00640EDFEC10F0740E086E000E0A6E3C0E7E
:10215C00096E650EDFEC10F0020E0F6E450E0E6E62
:10216C00AA0EE82EFED70E2EFCD70F2EFAD7AAEC0D
:10217C0011F0020E0F6E450E0E6EAA0EE82EFED753
:10218C000E2EFCD70F2EFAD7740E086E000E0A6EA8
:10219C003C0E096E640EDFEC10F0660E086E000E3D
:1021AC000A6E3C0E096E650EDFEC10F0DEEF10F0DF
:1021BC0012000B6E09C002F00AC003F0000E056E8F
:1021CC00060E046E97EC11F002C009F003C00AF081
:1021DC00650E0B18D8A4F5EF10F0F7EF10F01EEF0A
:1021EC0011F0818C660E0818D8A4FFEF10F001EFE7
:1021FC0011F00BEF11F009C077FF0A50766E000E4C
:10220C00756E000E746E4CEF11F0740E0818D8A495
:10221C0012EF11F014EF11F04CEF11F0000E776E7D
:10222C00000E766E09C075FF0A50746E4CEF11F0FB
:10223C00640E0B18D8A425EF11F027EF11F04CEF1A
:10224C0011F0818E660E0818D8A42FEF11F031EF23
:10225C0011F03BEF11F009C079FF0A50786E000EB7
:10226C00736E000E726E4CEF11F0740E0818D8A439
:10227C0042EF11F044EF11F04CEF11F009C073FF75
:10228C000A50726E000E796E000E786E1200000EFF
:10229C00076E000E066E64EF11F006500224046EF9
:1022AC0007500320056E04C0F6FF05C0F7FF0800B9
:1022BC00F5CFADFF04EC12F0064A072A06500224B3
:1022CC00046E07500320056E04C0F6FF05C0F7FF2F
:1022DC000800F5500009D8A476EF11F078EF11F052
:1022EC0053EF11F00D0EAD6E04EC12F01200000E57
:1022FC007F6E800E7E6E5F0E6F6E010E6E6E100E18
:10230C006D6E6B68000E6A6E960E7B6E000E7A6EAA
:10231C00000E7D6E000E7C6E000E816E000E836EC4
:10232C00120002500402F3CF06F0F4CF07F0025073
:10233C000502F350072603500402F350072606C08B
:10234C0002F007C003F01200000E786E000E796EDA
:10235C00000E766E000E776E000E746E000E756EAB
:10236C00000E726E000E736E1200000E786E000E70
:10237C00796E000E766E000E776E000E746E000E87
:10238C00756E000E726E000E736E120000EE18F079
:10239C00080EEE6AE806FDE120902092000EF86E21
:1023AC00030EF76E0001B6EF01F09268000E936E0B
:1023BC009468000E956E070E966E800EB86E010E28
:1023CC00B96E1200820EAF6EAC8AAC98AC84AB8E38
:1023DC00AB889E9A9D8A1200026E02C0ADFF04EC7F
:1023EC0012F00D0EAD6E04EC12F01200CD8ECD9CE1
:1023FC00CD88CD96CD94CD92CD901200ACA209EFA4
:10240C0012F00BEF12F004EF12F01200D59ED59CD7
:10241C00D59AD596D580F2941200AECF01F001502A
:02242C0012009C
:020000040020DA
:08000000FFFFFFFFFFFFFFFF00
:020000040030CA
:0E000000FFC20D3E3C1D81FF0FC00FE00F4000
:00000001FF
