:020000040000FA
:04000000A9EF00F074
:1000080020829EAA0AEF00F00CEF00F0A7EF00F0A4
:100018009E9AABB412EF00F014EF00F01BEF00F063
:10002800ABA219EF00F01BEF00F01DEF00F0AB984A
:10003800AB882AEC0DF04C0AD8A425EF00F027EF86
:1000480000F02FEF00F0000E176E010E166E2D0E49
:100058001A6E030E1B6E2AEC0DF0440AD8A437EF73
:1000680000F039EF00F041EF00F0000E176E010EBE
:10007800166E010E1A6E030E1B6E2AEC0DF0540A52
:10008800D8A449EF00F04BEF00F053EF00F0000E5A
:10009800176E010E166E140E1A6E030E1B6E2AECE6
:1000A8000DF0410AD8A45BEF00F05DEF00F065EFBA
:1000B80000F0000E176E010E166E390E1A6E030E42
:1000C8001B6E2AEC0DF0460AD8A46DEF00F06FEF16
:1000D80000F077EF00F0000E176E010E166E0B0E93
:1000E8001A6E030E1B6E2AEC0DF0450AD8A47FEF9A
:1000F80000F081EF00F089EF00F0000E176E010E9E
:10010800166E1D0E1A6E030E1B6E2AEC0DF0470AB2
:10011800D8A491EF00F093EF00F097EF00F0000EF5
:10012800176E010E166E2AEC0DF0500AD8A49FEF38
:1001380000F0A1EF00F0A7EF00F0E1EC0CF0330EB7
:0E0148001A6E030E1B6E2092110088EF0CF051
:100300000064697374616E63696100664573747239
:10031000656C6100746F7175696E686F00657374E8
:1003200072656C6100436F6D65636F75006C696E1B
:0F0330006861007061726172006172636F00003A
:10034000F2EC0CF0FFEC0CF0A3EC0CF023EC0DF055
:1003500013EC0DF0F28EF28C8390838216501710FE
:10036000D8B4B5EF01F0B7EF01F0AEEF01F0250E14
:10037000026E030E036E58EC0CF07F0E116ED40E5D
:10038000106E320EE82EFED7102EFCD7112EFAD7A3
:100390002D0E1A1807E1030E1B18D8A4D2EF01F096
:1003A000D4EF01F0E4EF01F0D4EC09F0330E1A18A9
:1003B00007E1030E1B18D8A4E0EF01F0E2EF01F013
:1003C000D4EF01F0D0EC0CF0010E1A1807E1030E87
:1003D0001B18D8A4EEEF01F0F0EF01F000EF02F0EF
:1003E000CEEC07F0330E1A1807E1030E1B18D8A441
:1003F000FCEF01F0FEEF01F0F0EF01F0D0EC0CF0BB
:10040000390E1A1807E1030E1B18D8A40AEF02F0E0
:100410000CEF02F085EF04F0D58E780ED66EF80E54
:10042000D76E000E126E7CEF04F082A81AEF02F075
:100430001CEF02F023EF02F082B621EF02F023EF6F
:1004400002F027EF02F047EC0BF05FEF04F080A220
:100450002CEF02F02EEF02F05EEF02F080A833EFF7
:1004600002F035EF02F05EEF02F082A03AEF02F008
:100470003CEF02F05EEF02F080A641EF02F043EFA6
:1004800002F05EEF02F080A448EF02F04AEF02F0C3
:100490005EEF02F0660E086E000E0A6E460E096EE2
:1004A000640EEAEC0BF0660E086E000E0A6E500E3B
:1004B000096E650EEAEC0BF05FEF04F080B263EFBB
:1004C00002F065EF02F095EF02F080A86AEF02F00B
:1004D0006CEF02F095EF02F082A071EF02F073EF83
:1004E00002F095EF02F080A678EF02F07AEF02F0CA
:1004F00095EF02F080A47FEF02F081EF02F095EF1C
:1005000002F0740E086E000E0A6E460E096E650E3D
:10051000EAEC0BF0660E086E000E0A6E460E096ECF
:10052000640EEAEC0BF05FEF04F080A29AEF02F0A9
:100530009CEF02F0CCEF02F080A8A1EF02F0A3EF55
:1005400002F0CCEF02F082B0A8EF02F0AAEF02F0C6
:10055000CCEF02F080A6AFEF02F0B1EF02F0CCEFEB
:1005600002F080A4B6EF02F0B8EF02F0CCEF02F098
:10057000660E086E000E0A6E460E096E650EEAECF7
:100580000BF0660E086E000E0A6E460E096E640EC3
:10059000EAEC0BF05FEF04F080A2D1EF02F0D3EFB2
:1005A00002F003EF03F080B8D8EF02F0DAEF02F0C8
:1005B00003EF03F082A0DFEF02F0E1EF02F003EFC0
:1005C00003F080B6E6EF02F0E8EF02F003EF03F08D
:1005D00080A4EDEF02F0EFEF02F003EF03F0660E00
:1005E000086E000E0A6E460E096E650EEAEC0BF000
:1005F000660E086E000E0A6E460E096E640EEAEC78
:100600000BF05FEF04F080A208EF03F00AEF03F0B5
:100610003AEF03F080A80FEF03F011EF03F03AEF89
:1006200003F082A016EF03F018EF03F03AEF03F0A7
:1006300080B61DEF03F01FEF03F03AEF03F080A444
:1006400024EF03F026EF03F03AEF03F0660E086E96
:10065000000E0A6E460E096E650EEAEC0BF0740E83
:10066000086E000E0A6E460E096E640EEAEC0BF080
:100670005FEF04F080A23FEF03F041EF03F071EF72
:1006800003F080A846EF03F048EF03F071EF03F0AA
:1006900082B04DEF03F04FEF03F071EF03F080B63F
:1006A00054EF03F056EF03F071EF03F080A45BEF1B
:1006B00003F05DEF03F071EF03F0660E086E000EBD
:1006C0000A6E460E096E650EEAEC0BF0740E086EAB
:1006D000000E0A6E460E096E640EEAEC0BF05FEF38
:1006E00004F080A276EF03F078EF03F0A8EF03F0B8
:1006F00080B87DEF03F07FEF03F0A8EF03F082A056
:1007000084EF03F086EF03F0A8EF03F080A68BEFF1
:1007100003F08DEF03F0A8EF03F080A492EF03F055
:1007200094EF03F0A8EF03F0740E086E000E0A6E4B
:10073000460E096E650EEAEC0BF0660E086E000EB2
:100740000A6E460E096E640EEAEC0BF05FEF04F0E1
:1007500080A2ADEF03F0AFEF03F0DFEF03F080B85E
:10076000B4EF03F0B6EF03F0DFEF03F082B0BBEFBE
:1007700003F0BDEF03F0DFEF03F080A6C2EF03F05C
:10078000C4EF03F0DFEF03F080A4C9EF03F0CBEF79
:1007900003F0DFEF03F0740E086E000E0A6E460ED3
:1007A000096E650EEAEC0BF0660E086E000E0A6E1E
:1007B000460E096E640EEAEC0BF05FEF04F080A2C7
:1007C000E4EF03F0E6EF03F016EF04F080A8EBEFA0
:1007D00003F0EDEF03F016EF04F082A0F2EF03F068
:1007E000F4EF03F016EF04F080A6F9EF03F0FBEF4F
:1007F00003F016EF04F080B400EF04F002EF04F011
:1008000016EF04F0660E086E000E0A6E460E096EB4
:10081000650EEAEC0BF0740E086E000E0A6E460EC2
:10082000096E640EEAEC0BF05FEF04F080A21BEFA0
:1008300004F01DEF04F04DEF04F080B822EF04F057
:1008400024EF04F04DEF04F082B029EF04F02BEF19
:1008500004F04DEF04F080B630EF04F032EF04F016
:100860004DEF04F080A437EF04F039EF04F04DEFC2
:1008700004F0660E086E000E0A6E640E096E640EB9
:10088000EAEC0BF0660E086E000E0A6E640E096E3E
:10089000650EEAEC0BF05FEF04F0660E086E000EDA
:1008A0000A6E640E096E640EEAEC0BF0660E086EBA
:1008B000000E0A6E640E096E650EEAEC0BF0F2A4EF
:1008C00064EF04F066EF04F06CEF04F0F294780E3D
:1008D000D66EF80ED76E122A330E1A1807E1030EE1
:1008E0001B18D8A476EF04F078EF04F07CEF04F046
:1008F000D0EC0CF084EF04F0630E126482EF04F08D
:1009000084EF04F015EF02F0D59E140E1A1807E1DB
:10091000030E1B18D8A48FEF04F091EF04F002EF40
:1009200007F0CD80DE0ECE6E0B0ECF6E000E156E74
:10093000000E146E000E136EF9EF06F09EA0A3EFEA
:1009400004F0A5EF04F0ACEF04F09E90DE0ECE6E46
:100950000B0ECF6E134A142A82A8B1EF04F0B3EF46
:1009600004F0BAEF04F082B6B8EF04F0BAEF04F086
:10097000BEEF04F047EC0BF0E9EF06F014BECCEF4D
:1009800004F0145007E10A0E135CD8B0CAEF04F06B
:10099000CCEF04F0E0EF06F080B2D1EF04F0D3EF3B
:1009A00004F003EF05F080A8D8EF04F0DAEF04F0CC
:1009B00003EF05F082A0DFEF04F0E1EF04F003EFB6
:1009C00005F080A6E6EF04F0E8EF04F003EF05F091
:1009D00080A4EDEF04F0EFEF04F003EF05F0740EE8
:1009E000086E000E0A6E500E096E650EEAEC0BF0F2
:1009F000660E086E000E0A6E500E096E640EEAEC6A
:100A00000BF0E9EF06F080A208EF05F00AEF05F021
:100A10003AEF05F080A80FEF05F011EF05F03AEF7F
:100A200005F082B016EF05F018EF05F03AEF05F08B
:100A300080A61DEF05F01FEF05F03AEF05F080A44A
:100A400024EF05F026EF05F03AEF05F0660E086E8C
:100A5000000E0A6E640E096E650EEAEC0BF0660E6F
:100A6000086E000E0A6E640E096E640EEAEC0BF05E
:100A7000E9EF06F080A23FEF05F041EF05F071EFDE
:100A800005F080B846EF05F048EF05F071EF05F08E
:100A900082A04DEF05F04FEF05F071EF05F080B645
:100AA00054EF05F056EF05F071EF05F080A45BEF11
:100AB00005F05DEF05F071EF05F0660E086E000EB3
:100AC0000A6E640E096E650EEAEC0BF0660E086E97
:100AD000000E0A6E640E096E640EEAEC0BF0E9EF8C
:100AE00006F080A276EF05F078EF05F0A8EF05F0AC
:100AF00080A87DEF05F07FEF05F0A8EF05F082A05C
:100B000084EF05F086EF05F0A8EF05F080B68BEFD7
:100B100005F08DEF05F0A8EF05F080A492EF05F049
:100B200094EF05F0A8EF05F0660E086E000E0A6E51
:100B3000460E096E650EEAEC0BF0740E086E000EA0
:100B40000A6E460E096E640EEAEC0BF0E9EF06F051
:100B500080A2ADEF05F0AFEF05F0DFEF05F080A864
:100B6000B4EF05F0B6EF05F0DFEF05F082B0BBEFB4
:100B700005F0BDEF05F0DFEF05F080B6C2EF05F040
:100B8000C4EF05F0DFEF05F080A4C9EF05F0CBEF6F
:100B900005F0DFEF05F0660E086E000E0A6E460ED9
:100BA000096E650EEAEC0BF0740E086E000E0A6E0C
:100BB000460E096E640EEAEC0BF0E9EF06F080A237
:100BC000E4EF05F0E6EF05F016EF06F080B8EBEF86
:100BD00005F0EDEF05F016EF06F082A0F2EF05F05C
:100BE000F4EF05F016EF06F080A6F9EF05F0FBEF45
:100BF00005F016EF06F080A400EF06F002EF06F015
:100C000016EF06F0740E086E000E0A6E460E096EA0
:100C1000650EEAEC0BF0660E086E000E0A6E460ECC
:100C2000096E640EEAEC0BF0E9EF06F080A21BEF10
:100C300006F01DEF06F04DEF06F080B822EF06F04B
:100C400024EF06F04DEF06F082B029EF06F02BEF0F
:100C500006F04DEF06F080A630EF06F032EF06F01A
:100C60004DEF06F080A437EF06F039EF06F04DEFB8
:100C700006F0740E086E000E0A6E460E096E650EC2
:100C8000EAEC0BF0660E086E000E0A6E460E096E58
:100C9000640EEAEC0BF0E9EF06F080A252EF06F0EA
:100CA00054EF06F084EF06F080A859EF06F05BEFF2
:100CB00006F084EF06F082A060EF06F062EF06F027
:100CC00084EF06F080A667EF06F069EF06F084EF88
:100CD00006F080B46EEF06F070EF06F084EF06F0D9
:100CE000660E086E000E0A6E500E096E650EEAEC76
:100CF0000BF0740E086E000E0A6E500E096E640E34
:100D0000EAEC0BF0E9EF06F080A289EF06F08BEF3A
:100D100006F0BBEF06F080B890EF06F092EF06F019
:100D2000BBEF06F082B097EF06F099EF06F0BBEF4D
:100D300006F080B69EEF06F0A0EF06F0BBEF06F0DF
:100D400080A4A5EF06F0A7EF06F0BBEF06F0660E55
:100D5000086E000E0A6E640E096E640EEAEC0BF06B
:100D6000660E086E000E0A6E640E096E650EEAECE1
:100D70000BF0E9EF06F014BEC8EF06F0145006E1E0
:100D80001304D8B0C6EF06F0C8EF06F0DCEF06F0AB
:100D9000660E086E000E0A6E3C0E096E640EEAECDA
:100DA0000BF0660E086E000E0A6E3C0E096E650EA4
:100DB000EAEC0BF0E9EF06F0D0EC0CF0E9EF06F00E
:100DC000000E146E000E136E152A1550300F09EC2C
:100DD0000DF0330E1A1807E1030E1B18D8A4F3EF19
:100DE00006F0F5EF06F0F9EF06F0D0EC0CF001EFAD
:100DF00007F0090E1564FFEF06F001EF07F09EEF14
:100E000004F0CD901D0E1A1807E1030E1B18D8A48C
:100E10000CEF07F00EEF07F01EEF07F09BEC0AF067
:100E2000330E1A1807E1030E1B18D8A41AEF07F0A7
:100E30001CEF07F00EEF07F0D0EC0CF00B0E1A18B9
:100E400007E1030E1B18D8A428EF07F02AEF07F0DC
:100E500061EF07F01E041F10D8A431EF07F033EF45
:100E600007F051EF07F0660E086E000E0A6E640E72
:100E7000096E640EEAEC0BF0660E086E000E0A6E48
:100E8000640E096E650EEAEC0BF0C30E106ECD0E0B
:100E9000E82EFED7102EFCD700F0000E1F6E000EBD
:100EA0001E6E9BEC0AF0330E1A1807E1030E1B1896
:100EB000D8A45DEF07F05FEF07F02AEF07F0D0EC62
:100EC0000CF080B466EF07F068EF07F076EF07F0FC
:100ED000030E116E8A0E106E560EE82EFED7102EDF
:100EE000FCD7112EFAD7300E09EC0DF080B67BEF4F
:100EF00007F07DEF07F08BEF07F0030E116E8A0EFF
:100F0000106E560EE82EFED7102EFCD7112EFAD7F3
:100F1000310E09EC0DF082B090EF07F092EF07F080
:100F2000A0EF07F0030E116E8A0E106E560EE82E1B
:100F3000FED7102EFCD7112EFAD7320E09EC0DF089
:100F400080B8A5EF07F0A7EF07F0B5EF07F0030EA5
:100F5000116E8A0E106E560EE82EFED7102EFCD79C
:100F6000112EFAD7330E09EC0DF080B2BAEF07F06C
:100F7000BCEF07F0C8EF01F0030E116E8A0E106E81
:100F8000560EE82EFED7102EFCD7112EFAD7340EAF
:100F900009EC0DF0C8EF01F0A9EF00F0000E0D6EA6
:100FA000640E0C6E80B2D7EF07F0D9EF07F009EFAF
:100FB00008F080A8DEEF07F0E0EF07F009EF08F097
:100FC00082A0E5EF07F0E7EF07F009EF08F080A651
:100FD000ECEF07F0EEEF07F009EF08F080A4F3EF75
:100FE00007F0F5EF07F009EF08F0740E086E000E39
:100FF0000A6E460E096E650EEAEC0BF0660E086E80
:10100000000E0A6E460E096E640EEAEC0BF0D3EF8A
:1010100009F080A20EEF08F010EF08F040EF08F0A2
:1010200080A815EF08F017EF08F040EF08F082B045
:101030001CEF08F01EEF08F040EF08F080A623EF49
:1010400008F025EF08F040EF08F080A42AEF08F040
:101050002CEF08F040EF08F0660E086E000E0A6EE6
:10106000640E096E650EEAEC0BF0660E086E000E5B
:101070000A6E640E096E640EEAEC0BF0D3EF09F011
:1010800080A245EF08F047EF08F077EF08F080B84E
:101090004CEF08F04EEF08F077EF08F082A053EF26
:1010A00008F055EF08F077EF08F080B65AEF08F037
:1010B0005CEF08F077EF08F080A461EF08F063EFD1
:1010C00008F077EF08F0660E086E000E0A6E640EE8
:1010D000096E650EEAEC0BF0660E086E000E0A6EE5
:1010E000640E096E640EEAEC0BF0D3EF09F080A2F7
:1010F0007CEF08F07EEF08F0AEEF08F080B883EFE9
:1011000008F085EF08F0AEEF08F082B08AEF08F043
:101110008CEF08F0AEEF08F080B691EF08F093EF97
:1011200008F0AEEF08F080A498EF08F09AEF08F00E
:10113000AEEF08F0660E086E000E0A6E640E096EC1
:10114000640EEAEC0BF0660E086E000E0A6E640E7A
:10115000096E650EEAEC0BF0D3EF09F080A2B3EF55
:1011600008F0B5EF08F0E5EF08F080A8BAEF08F056
:10117000BCEF08F0E5EF08F082A0C1EF08F0C3EF84
:1011800008F0E5EF08F080B6C8EF08F0CAEF08F005
:10119000E5EF08F080A4CFEF08F0D1EF08F0E5EF1D
:1011A00008F0660E086E000E0A6E460E096E650E99
:1011B000EAEC0BF0740E086E000E0A6E460E096E15
:1011C000640EEAEC0BF0D3EF09F080A2EAEF08F02E
:1011D000ECEF08F01CEF09F080A8F1EF08F0F3EF56
:1011E00008F01CEF09F082B0F8EF08F0FAEF08F011
:1011F0001CEF09F080B6FFEF08F001EF09F01CEFDB
:1012000009F080A406EF09F008EF09F01CEF09F0DF
:10121000660E086E000E0A6E460E096E650EEAEC4A
:101220000BF0740E086E000E0A6E460E096E640E08
:10123000EAEC0BF0D3EF09F080A221EF09F023EFE5
:1012400009F053EF09F080B828EF09F02AEF09F010
:1012500053EF09F082A02FEF09F031EF09F053EFBF
:1012600009F080A636EF09F038EF09F053EF09F0E6
:1012700080A43DEF09F03FEF09F053EF09F0740E41
:10128000086E000E0A6E460E096E650EEAEC0BF053
:10129000660E086E000E0A6E460E096E640EEAECCB
:1012A0000BF0D3EF09F080A258EF09F05AEF09F0E4
:1012B0008AEF09F080B85FEF09F061EF09F08AEF7B
:1012C00009F082B066EF09F068EF09F08AEF09F0E3
:1012D00080A66DEF09F06FEF09F08AEF09F080A4A6
:1012E00074EF09F076EF09F08AEF09F0740E086EDA
:1012F000000E0A6E460E096E650EEAEC0BF0660EE5
:10130000086E000E0A6E460E096E640EEAEC0BF0D3
:10131000D3EF09F080A28FEF09F091EF09F0C1EF50
:1013200009F080A896EF09F098EF09F0C1EF09F0F5
:1013300082A09DEF09F09FEF09F0C1EF09F080A6B0
:10134000A4EF09F0A6EF09F0C1EF09F080B4ABEF0C
:1013500009F0ADEF09F0C1EF09F0660E086E000E5E
:101360000A6E460E096E650EEAEC0BF0740E086EFE
:10137000000E0A6E460E096E640EEAEC0BF0D3EF17
:1013800009F0660E086E000E0A6E640E096E640E99
:10139000EAEC0BF0660E086E000E0A6E640E096E23
:1013A000650EEAEC0BF0120082A6D9EF09F0DBEF34
:1013B00009F0F6EF09F082A8E0EF09F0E2EF09F09A
:1013C000F6EF09F0660E086E000E0A6E320E096E18
:1013D000640EEAEC0BF0660E086E000E0A6E320E1A
:1013E000096E650EEAEC0BF09AEF0AF082A6FBEFAD
:1013F00009F0FDEF09F023EF0AF082B802EF0AF0DE
:1014000004EF0AF023EF0AF0660E086E000E0A6E73
:10141000320E096E640EEAEC0BF0740E086E000ECC
:101420000A6E320E096E650EEAEC0BF0080E0D6EB8
:101430009D0E0C6E060EE82EFED70C2EFCD70D2E40
:10144000FAD79AEF0AF082B628EF0AF02AEF0AF0EC
:1014500045EF0AF082A82FEF0AF031EF0AF045EFCE
:101460000AF0740E086E000E0A6E320E096E640EDB
:10147000EAEC0BF0660E086E000E0A6E320E096E74
:10148000650EEAEC0BF016EF0AF082B64AEF0AF0AE
:101490004CEF0AF09AEF0AF082B851EF0AF053EFDE
:1014A0000AF09AEF0AF0740E086E000E0A6E320E01
:1014B000096E640EEAEC0BF0740E086E000E0A6EF4
:1014C000320E096E650EEAEC0BF0030E0D6E8A0EFD
:1014D0000C6E560EE82EFED70C2EFCD70D2EFAD72A
:1014E000D0EC0CF0410E0C6EEE0EE82EFED70C2E5A
:1014F000FCD700F000F0660E086E000E0A6E320E89
:10150000096E640EEAEC0BF0740E086E000E0A6EA3
:10151000320E096E650EEAEC0BF0030E0D6E8A0EAC
:101520000C6E560EE82EFED70C2EFCD70D2EFAD7D9
:101530009AEF0AF0120082A6A0EF0AF0A2EF0AF0DA
:10154000ADEF0AF082A8A7EF0AF0A9EF0AF0ADEF1D
:101550000AF0CEEC07F046EF0BF082B6B2EF0AF0DD
:10156000B4EF0AF0DAEF0AF082A8B9EF0AF0BBEFA5
:101570000AF0DAEF0AF0660E086E000E0A6E460EEA
:10158000096E640EEAEC0BF0740E086E000E0A6E23
:10159000460E096E650EEAEC0BF0030E0F6E8A0E16
:1015A0000E6E560EE82EFED70E2EFCD70F2EFAD753
:1015B00046EF0BF082A6DFEF0AF0E1EF0AF0FCEF56
:1015C0000AF082B8E6EF0AF0E8EF0AF0FCEF0AF062
:1015D000740E086E000E0A6E460E096E640EEAEC7A
:1015E0000BF0660E086E000E0A6E460E096E650E52
:1015F000EAEC0BF0CDEF0AF082B601EF0BF003EF4F
:101600000BF046EF0BF082B808EF0BF00AEF0BF08F
:1016100046EF0BF0740E086E000E0A6E500E096E47
:10162000640EEAEC0BF0740E086E000E0A6E500E9B
:10163000096E650EEAEC0BF0030E0F6E8A0E0E6E4D
:10164000560EE82EFED70E2EFCD70F2EFAD7D0EC72
:101650000CF0410E0E6EEE0EE82EFED70E2EFCD7CD
:1016600000F000F0740E086E000E0A6E460E096E51
:10167000640EEAEC0BF0660E086E000E0A6E460E63
:10168000096E650EEAEC0BF0CDEF0AF0120082A6AF
:101690004CEF0BF04EEF0BF074EF0BF082B853EF02
:1016A0000BF055EF0BF074EF0BF0660E086E000EAA
:1016B0000A6E320E096E640EEAEC0BF0740E086EC0
:1016C000000E0A6E320E096E650EEAEC0BF0080E83
:1016D0000D6E9D0E0C6E060EE82EFED70C2EFCD75E
:1016E0000D2EFAD7E9EF0BF082B679EF0BF07BEF16
:1016F0000BF096EF0BF082A880EF0BF082EF0BF06F
:1017000096EF0BF0740E086E000E0A6E320E096E24
:10171000640EEAEC0BF0660E086E000E0A6E320ED6
:10172000096E650EEAEC0BF067EF0BF082B69BEFEB
:101730000BF09DEF0BF0E9EF0BF082B8A2EF0BF08E
:10174000A4EF0BF0E9EF0BF0740E086E000E0A6EBA
:10175000320E096E640EEAEC0BF0740E086E000E89
:101760000A6E320E096E650EEAEC0BF0030E0D6E7A
:101770008A0E0C6E560EE82EFED70C2EFCD70D2EC0
:10178000FAD7D0EC0CF0410E0C6EEE0EE82EFED720
:101790000C2EFCD700F000F0660E086E000E0A6EEC
:1017A000320E096E640EEAEC0BF0740E086E000E39
:1017B0000A6E320E096E650EEAEC0BF0030E0D6E2A
:1017C0008A0E0C6E560EE82EFED70C2EFCD70D2E70
:1017D000FAD712000B6E09C002F00AC003F0000E27
:1017E000056E060E046EBDEC0CF002C009F003C0DD
:1017F0000AF0650E0B18D8A400EF0CF002EF0CF005
:1018000029EF0CF0818C660E0818D8A40AEF0CF0B2
:101810000CEF0CF016EF0CF009C077FF0A50766E53
:10182000000E756E000E746E57EF0CF0740E0818F3
:10183000D8A41DEF0CF01FEF0CF057EF0CF0000ECA
:10184000776E000E766E09C075FF0A50746E57EF02
:101850000CF0640E0B18D8A430EF0CF032EF0CF043
:1018600057EF0CF0818E660E0818D8A43AEF0CF0F2
:101870003CEF0CF046EF0CF009C079FF0A50786E8F
:10188000000E736E000E726E57EF0CF0740E081897
:10189000D8A44DEF0CF04FEF0CF057EF0CF009C04F
:1018A00073FF0A50726E000E796E000E786E120091
:1018B000000E076E000E066E6FEF0CF0065002244D
:1018C000046E07500320056E04C0F6FF05C0F7FF45
:1018D0000800F5CFADFF1BEC0DF0064A072A0650B5
:1018E0000224046E07500320056E04C0F6FF05C0F5
:1018F000F7FF0800F5500009D8A481EF0CF083EF42
:101900000CF05EEF0CF00D0EAD6E1BEC0DF0120046
:101910005C0EF66E1A0EF76E000EF86E0900F5CF2B
:101920001EF00900F5CF1FF000EE16F0080EEE6A6B
:10193000E806FDE120902092000EF86E030EF76E8F
:101940000001A0EF01F0000E7F6E800E7E6E5F0E34
:101950006F6E010E6E6E100E6D6E6B68000E6A6E0D
:10196000960E7B6E000E7A6E000E7D6E000E7C6E03
:10197000000E816E000E836E120002500402F3CF3F
:1019800006F0F4CF07F002500502F350072603508B
:101990000402F350072606C002F007C003F012004D
:1019A000000E786E000E796E000E766E000E776E69
:1019B000000E746E000E756E000E726E000E736E69
:1019C0001200000E786E000E796E000E766E000E1C
:1019D000776E000E746E000E756E000E726E000E45
:1019E000736E12009268000E936E9468000E956EEE
:1019F000070E966E800EB86E010EB96E1200820E42
:101A0000AF6EAC8AAC98AC84AB8EAB889E9A9D8A44
:101A10001200026E02C0ADFF1BEC0DF00D0EAD6E9C
:101A20001BEC0DF01200CD8ECD9CCD88CD96CD94C3
:101A3000CD92CD901200ACA220EF0DF022EF0DF070
:101A40001BEF0DF01200D59ED59CD59AD596D5806A
:0E1A5000F2941200AECF01F00150120001001E
:020000040020DA
:08000000FFFFFFFFFFFFFFFF00
:020000040030CA
:0E000000FFC20D3E3C1D81FF0FC00FE00F4000
:00000001FF
