:020000040000FA
:040000004BEF01F0D1
:1000080022829EAA0AEF00F00CEF00F049EF01F0FF
:100018009E9AABB412EF00F014EF00F01BEF00F063
:10002800ABA219EF00F01BEF00F01DEF00F0AB984A
:10003800AB884CEC13F04C0AD8A425EF00F027EF5E
:1000480000F02BEF00F04C0E1C6E030E1D6E4CECF6
:1000580013F0440AD8A433EF00F035EF00F039EF7D
:1000680000F0010E1C6E030E1D6E4CEC13F0540ACA
:10007800D8A441EF00F043EF00F04BEF00F0000E82
:10008800196E010E186E1D0E1C6E030E1D6E4CECC3
:1000980013F0410AD8A453EF00F055EF00F05DEFDC
:1000A80000F0000E196E010E186E640E1C6E030E21
:1000B8001D6E4CEC13F0460AD8A465EF00F067EF0C
:1000C80000F06FEF00F0000E196E010E186E0B0EA7
:1000D8001C6E030E1D6E4CEC13F0450AD8A477EF86
:1000E80000F079EF00F081EF00F0000E196E010EBC
:1000F800186E260E1C6E030E1D6E4CEC13F05A0A79
:10010800D8A489EF00F08BEF00F08FEF00F0450ED8
:100118001C6E030E1D6E4CEC13F0520AD8A497EF18
:1001280000F099EF00F09DEF00F0520E1C6E030EE8
:100138001D6E4CEC13F0580AD8A4A5EF00F0A7EFF9
:1001480000F0ABEF00F06E0E1C6E030E1D6E4CEC53
:1001580013F0590AD8A4B3EF00F0B5EF00F0B9EFE7
:1001680000F0710E1C6E030E1D6E4CEC13F0640A49
:10017800D8A4C1EF00F0C3EF00F0C7EF00F02E0ED7
:100188001C6E030E1D6E4CEC13F0650AD8A4CFEF5D
:1001980000F0D1EF00F0D5EF00F0140E1C6E030E46
:1001A8001D6E4CEC13F0660AD8A4DDEF00F0DFEF0B
:1001B80000F0E3EF00F03E0E1C6E030E1D6E4CECDB
:1001C80013F0740AD8A4EBEF00F0EDEF00F0F1EFB4
:1001D80000F0690E1C6E030E1D6E4CEC13F06D0AD8
:1001E800D8A4F9EF00F0FBEF00F0FFEF00F05E0E8F
:1001F8001C6E030E1D6E4CEC13F02B0AD8A407EFEF
:1002080001F009EF01F01CEF01F03C0E1A26000E78
:100218001B22580E1A5C020E1B58D8A016EF01F0CC
:1002280018EF01F01CEF01F0000E1B6E3C0E1A6E69
:100238004CEC13F02D0AD8A424EF01F026EF01F0BE
:1002480039EF01F03C0E1A5E000E1B5A1B5007E1F5
:100258003C0E1A5CD8B033EF01F035EF01F039EFFE
:1002680001F0010E1B6E2C0E1A6E4CEC13F0500AA6
:10027800D8A441EF01F043EF01F049EF01F003EC9E
:1002880013F0580E1C6E030E1D6E22921100AAEF79
:0202980012F062
:100300000064697374616E63696100664573747239
:10031000656C6100657371756572646F00746F71EF
:1003200075696E686F0065737472656C61006469ED
:10033000726569746F00436F6D65636F75006672F7
:10034000656E7465007A69677A6167006C696E68CA
:1003500061007465737465007061726172006D6F25
:10036000746F72006172636F00747261730067640E
:07037000006765002000009A
:1003780014EC13F021EC13F0C5EC12F045EC13F07B
:1003880035EC13F0F28EF28C83908382185019109A
:10039800D8B4D1EF01F0D3EF01F0CAEF01F0360E77
:1003A800026E030E036E7AEC12F07F0E116ED40EFD
:1003B800106E320EE82EFED7102EFCD7112EFAD76B
:1003C8004C0E1C1807E1030E1D18D8A4EEEF01F01F
:1003D800F0EF01F000EF02F0F6EC0FF0580E1C18E9
:1003E80007E1030E1D18D8A4FCEF01F0FEEF01F0A1
:1003F800F0EF01F0F2EC12F0010E1C1807E1030E09
:100408001D18D8A40AEF02F00CEF02F01CEF02F05E
:10041800F0EC0DF0580E1C1807E1030E1D18D8A4B7
:1004280018EF02F01AEF02F00CEF02F0F2EC12F003
:10043800640E1C1807E1030E1D18D8A426EF02F05D
:1004480028EF02F0A1EF04F0D58E780ED66EF80EE4
:10045800D76E000E126E98EF04F082A836EF02F005
:1004680038EF02F03FEF02F082B63DEF02F03FEFC7
:1004780002F043EF02F069EC11F07BEF04F080A288
:1004880048EF02F04AEF02F07AEF02F080A84FEF4F
:1004980002F051EF02F07AEF02F082A056EF02F07C
:1004A80058EF02F07AEF02F080A65DEF02F05FEFFE
:1004B80002F07AEF02F080A464EF02F066EF02F037
:1004C8007AEF02F0660E086E000E0A6E460E096E8E
:1004D800640E0CEC12F0660E086E000E0A6E500EDA
:1004E800096E650E0CEC12F07BEF04F080B27FEF22
:1004F80002F081EF02F0B1EF02F080A886EF02F07F
:1005080088EF02F0B1EF02F082A08DEF02F08FEFDA
:1005180002F0B1EF02F080A694EF02F096EF02F03D
:10052800B1EF02F080A49BEF02F09DEF02F0B1EF73
:1005380002F0740E086E000E0A6E460E096E650E05
:100548000CEC12F0660E086E000E0A6E460E096E6E
:10055800640E0CEC12F07BEF04F080A2B6EF02F010
:10056800B8EF02F0E8EF02F080A8BDEF02F0BFEFAD
:1005780002F0E8EF02F082B0C4EF02F0C6EF02F03A
:10058800E8EF02F080A6CBEF02F0CDEF02F0E8EF43
:1005980002F080A4D2EF02F0D4EF02F0E8EF02F00C
:1005A800660E086E000E0A6E640E096E650E0CEC7F
:1005B80012F0660E086E000E0A6E640E096E640E66
:1005C8000CEC12F07BEF04F080A2EDEF02F0EFEFFD
:1005D80002F01FEF03F080B8F4EF02F0F6EF02F03C
:1005E8001FEF03F082A0FBEF02F0FDEF02F01FEF18
:1005F80003F080B602EF03F004EF03F01FEF03F0FF
:1006080080A409EF03F00BEF03F01FEF03F0660E71
:10061800086E000E0A6E640E096E650E0CEC12F080
:10062800660E086E000E0A6E640E096E640E0CECFF
:1006380012F07BEF04F080A224EF03F026EF03F022
:1006480056EF03F080A82BEF03F02DEF03F056EFE1
:1006580003F082A032EF03F034EF03F056EF03F01B
:1006680080B639EF03F03BEF03F056EF03F080A4B8
:1006780040EF03F042EF03F056EF03F0660E086E0A
:10068800000E0A6E460E096E650E0CEC12F0740E22
:10069800086E000E0A6E460E096E640E0CEC12F01F
:1006A8007BEF04F080A25BEF03F05DEF03F08DEFCA
:1006B80003F080A862EF03F064EF03F08DEF03F01E
:1006C80082B069EF03F06BEF03F08DEF03F080B6B3
:1006D80070EF03F072EF03F08DEF03F080A477EF73
:1006E80003F079EF03F08DEF03F0660E086E000E4D
:1006F8000A6E460E096E650E0CEC12F0740E086E4A
:10070800000E0A6E460E096E640E0CEC12F07BEFBA
:1007180004F080A292EF03F094EF03F0C4EF03F02B
:1007280080B899EF03F09BEF03F0C4EF03F082A0C9
:10073800A0EF03F0A2EF03F0C4EF03F080A6A7EF49
:1007480003F0A9EF03F0C4EF03F080A4AEEF03F0C9
:10075800B0EF03F0C4EF03F0740E086E000E0A6EDB
:10076800460E096E650E0CEC12F0660E086E000E51
:100778000A6E460E096E640E0CEC12F07BEF04F064
:1007880080A2C9EF03F0CBEF03F0FBEF03F080B8D2
:10079800D0EF03F0D2EF03F0FBEF03F082B0D7EF16
:1007A80003F0D9EF03F0FBEF03F080A6DEEF03F0D0
:1007B800E0EF03F0FBEF03F080A4E5EF03F0E7EFD1
:1007C80003F0FBEF03F0740E086E000E0A6E460E7F
:1007D800096E650E0CEC12F0660E086E000E0A6EBD
:1007E800460E096E640E0CEC12F07BEF04F080A24A
:1007F80000EF04F002EF04F032EF04F080A807EFF6
:1008080004F009EF04F032EF04F082A00EEF04F0D8
:1008180010EF04F032EF04F080A615EF04F017EFA4
:1008280004F032EF04F080B41CEF04F01EEF04F083
:1008380032EF04F0660E086E000E0A6E460E096E60
:10084800650E0CEC12F0740E086E000E0A6E460E61
:10085800096E640E0CEC12F07BEF04F080A237EF07
:1008680004F039EF04F069EF04F080B83EEF04F0CB
:1008780040EF04F069EF04F082B045EF04F047EF71
:1008880004F069EF04F080B64CEF04F04EEF04F08A
:1008980069EF04F080A453EF04F055EF04F069EF1A
:1008A80004F0660E086E000E0A6E640E096E640E81
:1008B8000CEC12F0660E086E000E0A6E640E096EDD
:1008C800650E0CEC12F07BEF04F0660E086E000E5D
:1008D8000A6E460E096E640E0CEC12F0660E086E77
:1008E800000E0A6E460E096E650E0CEC12F0F2A4AC
:1008F80080EF04F082EF04F088EF04F0F294780EB1
:10090800D66EF80ED76E122A580E1C1807E1030E81
:100918001D18D8A492EF04F094EF04F098EF04F0B7
:10092800F2EC12F0A0EF04F0630E12649EEF04F0F4
:10093800A0EF04F031EF02F0D59E1D0E1C1807E160
:10094800030E1D18D8A4ABEF04F0ADEF04F00CEFC4
:1009580007F0CD80DE0ECE6E0B0ECF6E000E166E3B
:10096800000E156E000E146E03EF07F09EA0BFEF89
:1009780004F0C1EF04F0C8EF04F09E90DE0ECE6ED6
:100988000B0ECF6E144A152A15BED6EF04F015507B
:1009980007E10A0E145CD8B0D4EF04F0D6EF04F0E7
:1009A800EAEF06F080B2DBEF04F0DDEF04F00DEFC4
:1009B80005F080A8E2EF04F0E4EF04F00DEF05F095
:1009C80082A0E9EF04F0EBEF04F00DEF05F080A64C
:1009D800F0EF04F0F2EF04F00DEF05F080A4F7EF6C
:1009E80004F0F9EF04F00DEF05F0740E086E000E38
:1009F8000A6E460E096E650E0CEC12F0660E086E55
:100A0800000E0A6E460E096E640E0CEC12F0F3EF3F
:100A180006F080A212EF05F014EF05F044EF05F0A0
:100A280080A819EF05F01BEF05F044EF05F082B040
:100A380020EF05F022EF05F044EF05F080A627EF40
:100A480005F029EF05F044EF05F080A42EEF05F03E
:100A580030EF05F044EF05F0660E086E000E0A6EE2
:100A6800640E096E650E0CEC12F0660E086E000E30
:100A78000A6E640E096E640E0CEC12F0F3EF06F0C9
:100A880080A249EF05F04BEF05F07BEF05F080B849
:100A980050EF05F052EF05F07BEF05F082A057EF1D
:100AA80005F059EF05F07BEF05F080B65EEF05F035
:100AB80060EF05F07BEF05F080A465EF05F067EFC8
:100AC80005F07BEF05F0660E086E000E0A6E640EE8
:100AD800096E650E0CEC12F0660E086E000E0A6EBA
:100AE800640E096E640E0CEC12F0F3EF06F080A2AF
:100AF80080EF05F082EF05F0B2EF05F080A887EFF0
:100B080005F089EF05F0B2EF05F082A08EEF05F051
:100B180090EF05F0B2EF05F080B695EF05F097EF8E
:100B280005F0B2EF05F080A49CEF05F09EEF05F00C
:100B3800B2EF05F0660E086E000E0A6E460E096EDC
:100B4800650E0CEC12F0740E086E000E0A6E460E5E
:100B5800096E640E0CEC12F0F3EF06F080A2B7EF0A
:100B680005F0B9EF05F0E9EF05F080A8BEEF05F054
:100B7800C0EF05F0E9EF05F082B0C5EF05F0C7EF6B
:100B880005F0E9EF05F080B6CCEF05F0CEEF05F003
:100B9800E9EF05F080A4D3EF05F0D5EF05F0E9EF14
:100BA80005F0660E086E000E0A6E460E096E650E9A
:100BB8000CEC12F0740E086E000E0A6E460E096EEA
:100BC800640E0CEC12F0F3EF06F080A2EEEF05F0E5
:100BD800F0EF05F020EF06F080B8F5EF05F0F7EF3D
:100BE80005F020EF06F082A0FCEF05F0FEEF05F01F
:100BF80020EF06F080A603EF06F005EF06F020EFE1
:100C080006F080A40AEF06F00CEF06F020EF06F0DD
:100C1800740E086E000E0A6E460E096E650E0CEC18
:100C280012F0660E086E000E0A6E460E096E640E0D
:100C38000CEC12F0F3EF06F080A225EF06F027EF98
:100C480006F057EF06F080B82CEF06F02EEF06F00E
:100C580057EF06F082B033EF06F035EF06F057EFA6
:100C680006F080A63AEF06F03CEF06F057EF06F0E4
:100C780080A441EF06F043EF06F057EF06F0740E3C
:100C8800086E000E0A6E460E096E650E0CEC12F028
:100C9800660E086E000E0A6E460E096E640E0CECA7
:100CA80012F0F3EF06F080A25CEF06F05EEF06F0BC
:100CB8008EEF06F080A863EF06F065EF06F08EEF82
:100CC80006F082A06AEF06F06CEF06F08EEF06F0F1
:100CD80080A671EF06F073EF06F08EEF06F080B491
:100CE80078EF06F07AEF06F08EEF06F0660E086EE3
:100CF800000E0A6E460E096E650E0CEC12F0740EAC
:100D0800086E000E0A6E460E096E640E0CEC12F0A8
:100D1800F3EF06F080A293EF06F095EF06F0C5EF2B
:100D280006F080B89AEF06F09CEF06F0C5EF06F0E3
:100D380082B0A1EF06F0A3EF06F0C5EF06F080B68B
:100D4800A8EF06F0AAEF06F0C5EF06F080A4AFEF13
:100D580006F0B1EF06F0C5EF06F0660E086E000E5D
:100D68000A6E640E096E640E0CEC12F0660E086EC4
:100D7800000E0A6E640E096E650E0CEC12F0F3EFAD
:100D880006F015BED2EF06F0155006E11404D8B0EF
:100D9800D0EF06F0D2EF06F0E6EF06F0660E086E2A
:100DA800000E0A6E3C0E096E640E0CEC12F0660E14
:100DB800086E000E0A6E3C0E096E650E0CEC12F001
:100DC800F3EF06F0F2EC12F0F3EF06F0000E156EFA
:100DD800000E146E162A1650300F2BEC13F0580E16
:100DE8001C1807E1030E1D18D8A4FDEF06F0FFEF4D
:100DF80006F003EF07F0F2EC12F00BEF07F0090E24
:100E0800166409EF07F00BEF07F0BAEF04F0CD9086
:100E1800260E1C1807E1030E1D18D8A416EF07F0BC
:100E280018EF07F028EF07F0BDEC10F0580E1C186B
:100E380007E1030E1D18D8A424EF07F026EF07F0EA
:100E480018EF07F0F2EC12F00B0E1C1807E1030E76
:100E58001D18D8A432EF07F034EF07F06BEF07F056
:100E680020042110D8A43BEF07F03DEF07F05BEF1B
:100E780007F0660E086E000E0A6E640E096E640EA8
:100E88000CEC12F0660E086E000E0A6E640E096E07
:100E9800650E0CEC12F0C30E106ECD0EE82EFED7C8
:100EA800102EFCD700F0000E216E000E206EBDEC57
:100EB80010F0580E1C1807E1030E1D18D8A467EF90
:100EC80007F069EF07F034EF07F0F2EC12F0450E87
:100ED8001C1807E1030E1D18D8A475EF07F077EF6B
:100EE80007F0CEEF0BF0000E136E000E176E660EB5
:100EF800086E000E0A6E3C0E096E640E0CEC12F0C1
:100F0800740E086E000E0A6E3C0E096E650E0CEC2F
:100F180012F0020E116EC70E106E880EE82EFED764
:100F2800102EFCD7112EFAD700F000F0CD80DE0E7F
:100F3800CE6E0B0ECF6EC1EF0BF09EA0A6EF07F0A2
:100F4800A8EF07F0AEEF07F09E90DE0ECE6E0B0E08
:100F5800CF6E172A80B2B3EF07F0B5EF07F0E5EFD1
:100F680007F080A8BAEF07F0BCEF07F0E5EF07F04D
:100F780082A0C1EF07F0C3EF07F0E5EF07F080A606
:100F8800C8EF07F0CAEF07F0E5EF07F080A4CFEF4E
:100F980007F0D1EF07F0E5EF07F0740E086E000ECA
:100FA8000A6E3C0E096E650E0CEC12F0660E086EA9
:100FB800000E0A6E3C0E096E640E0CEC12F0AFEFD8
:100FC80009F080A2EAEF07F0ECEF07F01CEF08F059
:100FD80080A8F1EF07F0F3EF07F01CEF08F082B0FC
:100FE800F8EF07F0FAEF07F01CEF08F080A6FFEF24
:100FF80007F001EF08F01CEF08F080A406EF08F0F6
:1010080008EF08F01CEF08F0660E086E000E0A6E76
:101018003C0E096E650E0CEC12F0660E086E000EA2
:101028000A6E3C0E096E640E0CEC12F0AFEF09F07C
:1010380080A221EF08F023EF08F053EF08F080B802
:1010480028EF08F02AEF08F053EF08F082A02FEFFE
:1010580008F031EF08F053EF08F080B636EF08F0EB
:1010680038EF08F053EF08F080A43DEF08F03FEFA9
:1010780008F053EF08F0660E086E000E0A6E3C0E7C
:10108800096E650E0CEC12F0660E086E000E0A6E04
:101098003C0E096E640E0CEC12F0AFEF09F080A262
:1010A80058EF08F05AEF08F08AEF08F080A85FEFD1
:1010B80008F061EF08F08AEF08F082A066EF08F008
:1010C80068EF08F08AEF08F080B66DEF08F06FEF70
:1010D80008F08AEF08F080A474EF08F076EF08F0C3
:1010E8008AEF08F0660E086E000E0A6E3C0E096E56
:1010F800650E0CEC12F0740E086E000E0A6E3C0EB3
:10110800096E640E0CEC12F0AFEF09F080A28FEFBD
:1011180008F091EF08F0C1EF08F080A896EF08F00A
:1011280098EF08F0C1EF08F082B09DEF08F09FEF4C
:1011380008F0C1EF08F080B6A4EF08F0A6EF08F0B9
:10114800C1EF08F080A4ABEF08F0ADEF08F0C1EFF5
:1011580008F0660E086E000E0A6E3C0E096E650EEB
:101168000CEC12F0740E086E000E0A6E3C0E096E3E
:10117800640E0CEC12F0AFEF09F080A2C6EF08F095
:10118800C8EF08F0F8EF08F080B8CDEF08F0CFEF1F
:1011980008F0F8EF08F082A0D4EF08F0D6EF08F0D6
:1011A800F8EF08F080A6DBEF08F0DDEF08F0F8EFC5
:1011B80008F080A4E2EF08F0E4EF08F0F8EF08F098
:1011C800740E086E000E0A6E3C0E096E650E0CEC6D
:1011D80012F0660E086E000E0A6E3C0E096E640E62
:1011E8000CEC12F0AFEF09F080A2FDEF08F0FFEF72
:1011F80008F02FEF09F080B804EF09F006EF09F0C6
:101208002FEF09F082B00BEF09F00DEF09F02FEF87
:1012180009F080A612EF09F014EF09F02FEF09F09A
:1012280080A419EF09F01BEF09F02FEF09F0740EF5
:10123800086E000E0A6E3C0E096E650E0CEC12F07C
:10124800660E086E000E0A6E3C0E096E640E0CECFB
:1012580012F0AFEF09F080A234EF09F036EF09F091
:1012680066EF09F080A83BEF09F03DEF09F066EF63
:1012780009F082A042EF09F044EF09F066EF09F0A7
:1012880080A649EF09F04BEF09F066EF09F080B44A
:1012980050EF09F052EF09F066EF09F0660E086E9C
:1012A800000E0A6E3C0E096E650E0CEC12F0740E00
:1012B800086E000E0A6E3C0E096E640E0CEC12F0FD
:1012C800AFEF09F080A26BEF09F06DEF09F09DEF29
:1012D80009F080B872EF09F074EF09F09DEF09F09A
:1012E80082B079EF09F07BEF09F09DEF09F080B645
:1012F80080EF09F082EF09F09DEF09F080A487EFF5
:1013080009F089EF09F09DEF09F0660E086E000EEE
:101318000A6E3C0E096E640E0CEC12F0660E086E36
:10132800000E0A6E3C0E096E650E0CEC12F0AFEF63
:1013380009F0660E086E000E0A6E3C0E096E640E09
:101348000CEC12F0660E086E000E0A6E3C0E096E6A
:10135800650E0CEC12F0180E1764B5EF09F0B7EF34
:1013680009F0A1EF07F0000E176EF2EC12F0410E33
:10137800106EEE0EE82EFED7102EFCD700F000F00F
:101388009DEF0BF09EA0CBEF09F0CDEF09F0D3EF66
:1013980009F09E90DE0ECE6E0B0ECF6E172A80B22D
:1013A800D8EF09F0DAEF09F00AEF0AF080A8DFEFCA
:1013B80009F0E1EF09F00AEF0AF082A0E6EF09F080
:1013C800E8EF09F00AEF0AF080A6EDEF09F0EFEF79
:1013D80009F00AEF0AF080A4F4EF09F0F6EF09F03B
:1013E8000AEF0AF0740E086E000E0A6E3C0E096EC3
:1013F800650E0CEC12F0660E086E000E0A6E3C0EBE
:10140800096E640E0CEC12F09DEF0BF080A20FEF4A
:101418000AF011EF0AF041EF0AF080A816EF0AF07F
:1014280018EF0AF041EF0AF082B01DEF0AF01FEF43
:101438000AF041EF0AF080A624EF0AF026EF0AF03E
:1014480041EF0AF080A42BEF0AF02DEF0AF041EFEC
:101458000AF0660E086E000E0A6E3C0E096E650EE6
:101468000CEC12F0660E086E000E0A6E3C0E096E49
:10147800640E0CEC12F09DEF0BF080A246EF0AF020
:1014880048EF0AF078EF0AF080B84DEF0AF04FEF16
:101498000AF078EF0AF082A054EF0AF056EF0AF04B
:1014A80078EF0AF080B65BEF0AF05DEF0AF078EFAC
:1014B8000AF080A462EF0AF064EF0AF078EF0AF00D
:1014C800660E086E000E0A6E3C0E096E650E0CEC78
:1014D80012F0660E086E000E0A6E3C0E096E640E5F
:1014E8000CEC12F09DEF0BF080A27DEF0AF07FEF7D
:1014F8000AF0AFEF0AF080A884EF0AF086EF0AF04E
:10150800AFEF0AF082A08BEF0AF08DEF0AF0AFEF91
:101518000AF080B692EF0AF094EF0AF0AFEF0AF003
:1015280080A499EF0AF09BEF0AF0AFEF0AF0660E7D
:10153800086E000E0A6E3C0E096E650E0CEC12F079
:10154800740E086E000E0A6E3C0E096E640E0CECEA
:1015580012F09DEF0BF080A2B4EF0AF0B6EF0AF09C
:10156800E6EF0AF080A8BBEF0AF0BDEF0AF0E6EF5D
:101578000AF082B0C2EF0AF0C4EF0AF0E6EF0AF010
:1015880080B6C9EF0AF0CBEF0AF0E6EF0AF080A4C4
:10159800D0EF0AF0D2EF0AF0E6EF0AF0660E086E16
:1015A800000E0A6E3C0E096E650E0CEC12F0740EFD
:1015B800086E000E0A6E3C0E096E640E0CEC12F0FA
:1015C8009DEF0BF080A2EBEF0AF0EDEF0AF01DEFB4
:1015D8000BF080B8F2EF0AF0F4EF0AF01DEF0BF011
:1015E80082A0F9EF0AF0FBEF0AF01DEF0BF080A6DE
:1015F80000EF0BF002EF0BF01DEF0BF080A407EFEC
:101608000BF009EF0BF01DEF0BF0740E086E000ED7
:101618000A6E3C0E096E650E0CEC12F0660E086E32
:10162800000E0A6E3C0E096E640E0CEC12F09DEF73
:101638000BF080A222EF0BF024EF0BF054EF0BF02D
:1016480080B829EF0BF02BEF0BF054EF0BF082B0C2
:1016580030EF0BF032EF0BF054EF0BF080A637EFC2
:101668000BF039EF0BF054EF0BF080A43EEF0BF0CA
:1016780040EF0BF054EF0BF0740E086E000E0A6E7C
:101688003C0E096E650E0CEC12F0660E086E000E2C
:101698000A6E3C0E096E640E0CEC12F09DEF0BF016
:1016A80080A259EF0BF05BEF0BF08BEF0BF080A8EB
:1016B80060EF0BF062EF0BF08BEF0BF082A067EF9F
:1016C8000BF069EF0BF08BEF0BF080A66EEF0BF0D1
:1016D80070EF0BF08BEF0BF080B475EF0BF077EF3A
:1016E8000BF08BEF0BF0660E086E000E0A6E3C0EC8
:1016F800096E650E0CEC12F0740E086E000E0A6E80
:101708003C0E096E640E0CEC12F09DEF0BF0740E9B
:10171800086E000E0A6E3C0E096E640E0CEC12F098
:10172800660E086E000E0A6E3C0E096E650E0CEC15
:1017380012F0060E1764A3EF0BF0A5EF0BF0C6EF3F
:1017480009F0F2EC12F0410E106EEE0EE82EFED704
:10175800102EFCD700F000F0580E1C1807E1030EFD
:101768001D18D8A4BAEF0BF0BCEF0BF0C0EF0BF0CC
:10177800F2EC12F0C9EF0BF0132A0B0E1364C7EF4B
:101788000BF0C9EF0BF0AFEF09F0CD90740E1C6EA3
:10179800030E1D6E140E1C1807E1030E1D18D8A4A5
:1017A800D8EF0BF0DAEF0BF015EF0CF0000E1B6E14
:1017B8003C0E1A6E818E690E1C1807E1030E1D1867
:1017C800D8A4E9EF0BF0EBEF0BF0F5EF0BF0000E00
:1017D800776E000E766E1AC075FF1B50746E09EF97
:1017E8000CF03E0E1C1807E1030E1D18D8A4FFEFDD
:1017F8000BF001EF0CF009EF0CF01AC077FF1B504B
:10180800766E000E756E000E746E580E1C1807E189
:10181800030E1D18D8A413EF0CF015EF0CF0DFEF32
:101828000BF02E0E1C1807E1030E1D18D8A41FEF8D
:101838000CF021EF0CF05CEF0CF0000E1B6E3C0E70
:101848001A6E818C3E0E1C1807E1030E1D18D8A4D1
:1018580030EF0CF032EF0CF03CEF0CF01AC079FFCF
:101868001B50786E000E736E000E726E50EF0CF007
:10187800690E1C1807E1030E1D18D8A446EF0CF0DA
:1018880048EF0CF050EF0CF0000E796E000E786EF9
:101898001AC073FF1B50726E580E1C1807E1030E16
:1018A8001D18D8A45AEF0CF05CEF0CF026EF0CF0E2
:1018B8005E0E1C1807E1030E1D18D8A466EF0CF085
:1018C80068EF0CF0B6EF0CF0000E1B6E3C0E1A6EB3
:1018D800818C818E3E0E1C1807E1030E1D18D8A4BA
:1018E80078EF0CF07AEF0CF08CEF0CF01AC079FF5F
:1018F8001B50786E000E736E000E726E1AC077FF62
:101908001B50766E000E756E000E746EA8EF0CF00C
:10191800690E1C1807E1030E1D18D8A496EF0CF0E9
:1019280098EF0CF0A8EF0CF0000E796E000E786EB0
:101938001AC073FF1B50726E000E776E000E766E23
:101948001AC075FF1B50746E580E1C1807E1030E61
:101958001D18D8A4B2EF0CF0B4EF0CF06EEF0CF039
:10196800F2EC12F0520E1C1807E1030E1D18D8A451
:10197800C0EF0CF0C2EF0CF025EF0DF0818E818CDA
:10198800660E086E000E0A6E500E096E640E0CECA0
:1019980012F0660E086E000E0A6E500E096E650E85
:1019A8000CEC12F00D0E116EAF0E106EB60EE82E86
:1019B800FED7102EFCD7112EFAD700F000F0660ED5
:1019C800086E000E0A6E000E096E640E0CEC12F022
:1019D800660E086E000E0A6E000E096E650E0CEC9F
:1019E80012F0330E116EBB0E106EE00EE82EFED70D
:1019F800102EFCD7112EFAD7740E086E000E0A6E40
:101A0800500E096E640E0CEC12F0740E086E000E87
:101A18000A6E500E096E650E0CEC12F00D0E116E6A
:101A2800AF0E106EB60EE82EFED7102EFCD7112E74
:101A3800FAD700F000F0F2EC12F0200E1C6E000E47
:101A48001D6E6E0E1C1807E1030E1D18D8A42FEF8B
:101A58000DF031EF0DF054EF0DF0660E086E000E2C
:101A68000A6E3C0E096E650E0CEC12F0740E086ED0
:101A7800000E0A6E3C0E096E640E0CEC12F0080E95
:101A8800116E9D0E106E060EE82EFED7102EFCD796
:101A9800112EFAD7F2EC12F0200E1C6E000E1D6EFD
:101AA800710E1C1807E1030E1D18D8A45EEF0DF087
:101AB80060EF0DF083EF0DF0740E086E000E0A6EE5
:101AC8003C0E096E650E0CEC12F0660E086E000EE8
:101AD8000A6E3C0E096E640E0CEC12F0080E116EC4
:101AE8009D0E106E060EE82EFED7102EFCD7112E76
:101AF800FAD7F2EC12F0200E1C6E000E1D6E80B4A8
:101B080088EF0DF08AEF0DF098EF0DF0030E116ECF
:101B18008A0E106E560EE82EFED7102EFCD7112E08
:101B2800FAD7300E2BEC13F080B69DEF0DF09FEF37
:101B38000DF0ADEF0DF0030E116E8A0E106E560EFD
:101B4800E82EFED7102EFCD7112EFAD7310E2BEC2B
:101B580013F082B0B2EF0DF0B4EF0DF0C2EF0DF05C
:101B6800030E116E8A0E106E560EE82EFED7102E3A
:101B7800FCD7112EFAD7320E2BEC13F080B8C7EF32
:101B88000DF0C9EF0DF0D7EF0DF0030E116E8A0EB0
:101B9800106E560EE82EFED7102EFCD7112EFAD74F
:101BA800330E2BEC13F080B2DCEF0DF0DEEF0DF00E
:101BB800E4EF01F0030E116E8A0E106E560EE82E39
:101BC800FED7102EFCD7112EFAD7340E2BEC13F0BB
:101BD800E4EF01F04BEF01F0000E0D6E640E0C6E99
:101BE80080B2F9EF0DF0FBEF0DF02BEF0EF080A8AF
:101BF80000EF0EF002EF0EF02BEF0EF082A007EFD1
:101C08000EF009EF0EF02BEF0EF080A60EEF0EF09F
:101C180010EF0EF02BEF0EF080A415EF0EF017EF7B
:101C28000EF02BEF0EF0740E086E000E0A6E460EC4
:101C3800096E650E0CEC12F0660E086E000E0A6E48
:101C4800460E096E640E0CEC12F0F5EF0FF080A250
:101C580030EF0EF032EF0EF062EF0EF080A837EFA3
:101C68000EF039EF0EF062EF0EF082B03EEF0EF09C
:101C780040EF0EF062EF0EF080A645EF0EF047EF52
:101C88000EF062EF0EF080A44CEF0EF04EEF0EF067
:101C980062EF0EF0660E086E000E0A6E640E096E94
:101CA800650E0CEC12F0660E086E000E0A6E640EDD
:101CB800096E640E0CEC12F0F5EF0FF080A267EFDE
:101CC8000EF069EF0EF099EF0EF080B86EEF0EF09F
:101CD80070EF0EF099EF0EF082A075EF0EF077EF2F
:101CE8000EF099EF0EF080B67CEF0EF07EEF0EF05E
:101CF80099EF0EF080A483EF0EF085EF0EF099EFC8
:101D08000EF0660E086E000E0A6E640E096E650E01
:101D18000CEC12F0660E086E000E0A6E640E096E68
:101D2800640E0CEC12F0F5EF0FF080A29EEF0EF0AF
:101D3800A0EF0EF0D0EF0EF080B8A5EF0EF0A7EFF1
:101D48000EF0D0EF0EF082B0ACEF0EF0AEEF0EF06A
:101D5800D0EF0EF080B6B3EF0EF0B5EF0EF0D0EF87
:101D68000EF080A4BAEF0EF0BCEF0EF0D0EF0EF03C
:101D7800660E086E000E0A6E640E096E640E0CEC98
:101D880012F0660E086E000E0A6E640E096E650E7D
:101D98000CEC12F0F5EF0FF080A2D5EF0EF0D7EFB4
:101DA8000EF007EF0FF080A8DCEF0EF0DEEF0EF07C
:101DB80007EF0FF082A0E3EF0EF0E5EF0EF007EF6C
:101DC8000FF080B6EAEF0EF0ECEF0EF007EF0FF031
:101DD80080A4F1EF0EF0F3EF0EF007EF0FF0660EB0
:101DE800086E000E0A6E460E096E650E0CEC12F0B7
:101DF800740E086E000E0A6E460E096E640E0CEC28
:101E080012F0F5EF0FF080A20CEF0FF00EEF0FF0CD
:101E18003EEF0FF080A813EF0FF015EF0FF03EEF35
:101E28000FF082B01AEF0FF01CEF0FF03EEF0FF03B
:101E380080B621EF0FF023EF0FF03EEF0FF080A4F4
:101E480028EF0FF02AEF0FF03EEF0FF0660E086E46
:101E5800000E0A6E460E096E650E0CEC12F0740E3A
:101E6800086E000E0A6E460E096E640E0CEC12F037
:101E7800F5EF0FF080A243EF0FF045EF0FF075EF8D
:101E88000FF080B84AEF0FF04CEF0FF075EF0FF03E
:101E980082A051EF0FF053EF0FF075EF0FF080A60F
:101EA80058EF0FF05AEF0FF075EF0FF080A45FEFC7
:101EB8000FF061EF0FF075EF0FF0740E086E000E63
:101EC8000A6E460E096E650E0CEC12F0660E086E70
:101ED800000E0A6E460E096E640E0CEC12F0F5EF59
:101EE8000FF080A27AEF0FF07CEF0FF0ACEF0FF05D
:101EF80080B881EF0FF083EF0FF0ACEF0FF082B0F6
:101F080088EF0FF08AEF0FF0ACEF0FF080A68FEF9D
:101F18000FF091EF0FF0ACEF0FF080A496EF0FF0F9
:101F280098EF0FF0ACEF0FF0740E086E000E0A6E0B
:101F3800460E096E650E0CEC12F0660E086E000E69
:101F48000A6E460E096E640E0CEC12F0F5EF0FF0F7
:101F580080A2B1EF0FF0B3EF0FF0E3EF0FF080A81E
:101F6800B8EF0FF0BAEF0FF0E3EF0FF082A0BFEF7A
:101F78000FF0C1EF0FF0E3EF0FF080A6C6EF0FF000
:101F8800C8EF0FF0E3EF0FF080B4CDEF0FF0CFEF15
:101F98000FF0E3EF0FF0660E086E000E0A6E460EA5
:101FA800096E650E0CEC12F0740E086E000E0A6EC7
:101FB800460E096E640E0CEC12F0F5EF0FF0660E8B
:101FC800086E000E0A6E640E096E640E0CEC12F0B8
:101FD800660E086E000E0A6E640E096E650E0CEC35
:101FE80012F0120082A6FBEF0FF0FDEF0FF018EFD2
:101FF80010F082A802EF10F004EF10F018EF10F0C4
:10200800660E086E000E0A6E320E096E640E0CEC37
:1020180012F0660E086E000E0A6E320E096E650E1C
:102028000CEC12F0BCEF10F082A61DEF10F01FEFC1
:1020380010F045EF10F082B824EF10F026EF10F002
:1020480045EF10F0660E086E000E0A6E320E096E2D
:10205800640E0CEC12F0740E086E000E0A6E320E4E
:10206800096E650E0CEC12F0080E0D6E9D0E0C6ECE
:10207800060EE82EFED70C2EFCD70D2EFAD7BCEF95
:1020880010F082B64AEF10F04CEF10F067EF10F046
:1020980082A851EF10F053EF10F067EF10F0740EB4
:1020A800086E000E0A6E320E096E640E0CEC12F009
:1020B800660E086E000E0A6E320E096E650E0CEC86
:1020C80012F038EF10F082B66CEF10F06EEF10F0EF
:1020D800BCEF10F082B873EF10F075EF10F0BCEFA2
:1020E80010F0740E086E000E0A6E320E096E640E41
:1020F8000CEC12F0740E086E000E0A6E320E096EA9
:10210800650E0CEC12F0030E0D6E8A0E0C6E560E58
:10211800E82EFED70C2EFCD70D2EFAD7F2EC12F0D3
:10212800410E0C6EEE0EE82EFED70C2EFCD700F0FA
:1021380000F0660E086E000E0A6E320E096E640E0E
:102148000CEC12F0740E086E000E0A6E320E096E58
:10215800650E0CEC12F0030E0D6E8A0E0C6E560E08
:10216800E82EFED70C2EFCD70D2EFAD7BCEF10F0B8
:10217800120082A6C2EF10F0C4EF10F0CFEF10F0FB
:1021880082A8C9EF10F0CBEF10F0CFEF10F0F0EC11
:102198000DF068EF11F082B6D4EF10F0D6EF10F022
:1021A800FCEF10F082A8DBEF10F0DDEF10F0FCEF91
:1021B80010F0660E086E000E0A6E460E096E640E6A
:1021C8000CEC12F0740E086E000E0A6E460E096EC4
:1021D800650E0CEC12F0030E0F6E8A0E0E6E560E84
:1021E800E82EFED70E2EFCD70F2EFAD768EF11F087
:1021F80082A601EF11F003EF11F01EEF11F082B883
:1022080008EF11F00AEF11F01EEF11F0740E086ECE
:10221800000E0A6E460E096E640E0CEC12F0660E85
:10222800086E000E0A6E460E096E650E0CEC12F072
:10223800EFEF10F082B623EF11F025EF11F068EF01
:1022480011F082B82AEF11F02CEF11F068EF11F0BD
:10225800740E086E000E0A6E500E096E640E0CECB9
:1022680012F0740E086E000E0A6E500E096E650E9E
:102278000CEC12F0030E0F6E8A0E0E6E560EE82E40
:10228800FED70E2EFCD70F2EFAD7F2EC12F0410E25
:102298000E6EEE0EE82EFED70E2EFCD700F000F0E4
:1022A800740E086E000E0A6E460E096E640E0CEC73
:1022B80012F0660E086E000E0A6E460E096E650E66
:1022C8000CEC12F0EFEF10F0120082A66EEF11F096
:1022D80070EF11F096EF11F082B875EF11F077EF0B
:1022E80011F096EF11F0660E086E000E0A6E320EAF
:1022F800096E640E0CEC12F0740E086E000E0A6E75
:10230800320E096E650E0CEC12F0080E0D6E9D0E65
:102318000C6E060EE82EFED70C2EFCD70D2EFAD723
:102328000BEF12F082B69BEF11F09DEF11F0B8EFB2
:1023380011F082A8A2EF11F0A4EF11F0B8EF11F09C
:10234800740E086E000E0A6E320E096E640E0CECE6
:1023580012F0660E086E000E0A6E320E096E650ED9
:102368000CEC12F089EF11F082B6BDEF11F0BFEF5F
:1023780011F00BEF12F082B8C4EF11F0C6EF11F0B4
:102388000BEF12F0740E086E000E0A6E320E096E14
:10239800640E0CEC12F0740E086E000E0A6E320E0B
:1023A800096E650E0CEC12F0030E0D6E8A0E0C6EA3
:1023B800560EE82EFED70C2EFCD70D2EFAD7F2ECCF
:1023C80012F0410E0C6EEE0EE82EFED70C2EFCD746
:1023D80000F000F0660E086E000E0A6E320E096EEE
:1023E800640E0CEC12F0740E086E000E0A6E320EBB
:1023F800096E650E0CEC12F0030E0D6E8A0E0C6E53
:10240800560EE82EFED70C2EFCD70D2EFAD712004A
:102418000B6E09C002F00AC003F0000E056E060E2E
:10242800046EDFEC12F002C009F003C00AF0650E7A
:102438000B18D8A422EF12F024EF12F04BEF12F091
:10244800818C660E0818D8A42CEF12F02EEF12F02B
:1024580038EF12F009C077FF0A50766E000E756EDD
:10246800000E746E79EF12F0740E0818D8A43FEFBE
:1024780012F041EF12F079EF12F0000E776E000EB5
:10248800766E09C075FF0A50746E79EF12F0640E0B
:102498000B18D8A452EF12F054EF12F079EF12F0A3
:1024A800818E660E0818D8A45CEF12F05EEF12F069
:1024B80068EF12F009C079FF0A50786E000E736E4B
:1024C800000E726E79EF12F0740E0818D8A46FEF30
:1024D80012F071EF12F079EF12F009C073FF0A5091
:1024E800726E000E796E000E786E1200000E076E86
:1024F800000E066E91EF12F006500224046E07508B
:102508000320056E04C0F6FF05C0F7FF0800F5CFED
:10251800ADFF3DEC13F0064A072A06500224046E6C
:1025280007500320056E04C0F6FF05C0F7FF08003A
:10253800F5500009D8A4A3EF12F0A5EF12F080EF30
:1025480012F00D0EAD6E3DEC13F01200A00EF66EFB
:10255800260EF76E000EF86E0900F5CF20F0090080
:10256800F5CF21F000EE18F0080EEE6AE806FDE15E
:1025780022902292000EF86E030EF76E0001BCEF57
:1025880001F0000E7F6E800E7E6E5F0E6F6E010E84
:102598006E6E100E6D6E6B68000E6A6E960E7B6E18
:1025A800000E7A6E000E7D6E000E7C6E000E816E3F
:1025B800000E836E120002500402F3CF06F0F4CF2F
:1025C80007F002500502F350072603500402F350A7
:1025D800072606C002F007C003F01200000E786E4E
:1025E800000E796E000E766E000E776E000E746E19
:1025F800000E756E000E726E000E736E1200000EE5
:10260800786E000E796E000E766E000E776E000EF4
:10261800746E000E756E000E726E000E736E1200F0
:102628009268000E936E9468000E956E070E966E73
:10263800800EB86E010EB96E1200820EAF6EAC8AB3
:10264800AC98AC84AB8EAB889E9A9D8A1200026EC1
:1026580002C0ADFF3DEC13F00D0EAD6E3DEC13F076
:102668001200CD8ECD9CCD88CD96CD94CD92CD90B7
:102678001200ACA242EF13F044EF13F03DEF13F059
:102688001200D59ED59CD59AD596D580F294120085
:0A269800AECF01F001501200010066
:020000040020DA
:08000000FFFFFFFFFFFFFFFF00
:020000040030CA
:0E000000FFC20D3E3C1D81FF0FC00FE00F4000
:00000001FF
